:1000000032C100004DC100004BC1000049C10000D9
:1000100047C1000045C1000043C1000041C10000CC
:100020003FC100003DC100003BC1000039C10000DC
:1000300037C100000BC7000048C200006FC20000BB
:1000400096C20000BDC20000E4C200000BC3000065
:1000500032C3000059C3000080C30000A7C30000E2
:100060001FC100000C943E231BC1000019C10000F9
:1000700017C1000015C1000013C1000011C100002C
:100080000FC100000DC100000BC1000009C100003C
:1000900007C1000005C1000003C1000001C100004C
:1000A000FFC00000FDC00000FBC00000F9C0000060
:1000B000F7C00000F5C00000ECC600003AC5000023
:1000C00061C5000088C50000AFC50000D6C50000AE
:1000D000FDC50000E5C00000E3C00000E1C0000075
:1000E000DFC00000DDC00000DBC00000D9C00000A0
:1000F000D7C00000D5C00000D3C00000D1C00000B0
:100100000C94DD20CDC00000CBC00000C9C00000B1
:10011000C7C00000C5C00000C3C0000014C100007B
:1001200040C100006CC1000098C10000B9C00000CF
:10013000B7C0000064C300008BC30000B2C300005E
:10014000D9C3000000C4000027C400004EC4000052
:1001500075C400009CC40000C3C40000A1C000001E
:100160009FC000009DC000009BC0000099C000001F
:1001700097C0000095C0000093C0000091C000002F
:100180008FC000008DC000008BC0000089C000003F
:1001900087C0000085C0000083C0000081C000004F
:1001A0007FC000007DC000007BC0000079C000005F
:1001B00077C0000075C0000073C0000071C000006F
:1001C0006FC000006DC000006BC0000069C000007F
:1001D00067C0000065C0000063C0000061C000008F
:1001E0005FC000005DC000005BC0000059C000009F
:1001F00057C0000055C0000053C00000036EDB363E
:100200003D9A9999993DABAAAA2A3E000000803FE9
:10021000084AD73B3BCE016E84BCBFFDC12F3D6C6D
:1002200074319ABD56833DDA3D00C77F11BED9E4D3
:10023000BB4C3E916BAAAABE000000803F072C7AFF
:10024000A5BA6CC590DA3B9365FC8BBC53F810FDE6
:100250003C5692834DBD879D3AB63DCBC9BF5BBE30
:1002600073DA0FC93F0011241FBECFEFCDBFDFE20D
:10027000DEBF11E2A0E0B0E2E0E8FEE502C00590DA
:100280000D92A03BB107D9F72CE2A0EBB1E201C07F
:100290001D92A43BB207E1F70E9465230C943E2F08
:1002A000AFCE08958FEF809370008093710080939C
:1002B0007200809373008093740080937500809324
:1002C00076000895CF93DF931F92CDB7DEB79FB727
:1002D0009983F8949981E82FF0E0E059FF4F6095F9
:1002E0008081682360839FBF0F90DF91CF91089535
:1002F000CF93DF931F92CDB7DEB7809125239091E6
:100300002623E0912123F0912223BE016F5F7F4FCE
:1003100009958981082E000C990B0F90DF91CF91E0
:100320000895682F8091252390912623E09123231F
:10033000F0912423099599231CF081E090E0089521
:100340008FEF9FEF08951F920F920FB60F92112417
:100350002F933F934F935F936F937F938F939F93CD
:10036000AF93BF93EF93FF934091240250912502E6
:10037000E0912723F091282361E080E092E0099545
:10038000FF91EF91BF91AF919F918F917F916F916D
:100390005F914F913F912F910F900FBE0F901F9043
:1003A00018951F920F920FB60F9211242F933F931F
:1003B0004F935F936F937F938F939F93AF93BF936D
:1003C000EF93FF9340912C0250912D02E09127234F
:1003D000F091282362E080E092E00995FF91EF918F
:1003E000BF91AF919F918F917F916F915F914F914D
:1003F0003F912F910F900FBE0F901F9018951F9255
:100400000F920FB60F9211242F933F934F935F9348
:100410006F937F938F939F93AF93BF93EF93FF93CC
:100420004091340250913502E0912723F091282326
:1004300064E080E092E00995FF91EF91BF91AF9168
:100440009F918F917F916F915F914F913F912F91EC
:100450000F900FBE0F901F9018951F920F920FB61E
:100460000F9211242F933F934F935F936F937F933A
:100470008F939F93AF93BF93EF93FF9340913C0271
:1004800050913D02E0912723F091282368E080E01D
:1004900092E00995FF91EF91BF91AF919F918F915C
:1004A0007F916F915F914F913F912F910F900FBE70
:1004B0000F901F9018954091CA01E62FF72F809357
:1004C000CA0184914093CA0108951F920F920FB6FA
:1004D0000F9211242F933F934F935F936F937F93CA
:1004E0008F939F93AF93BF93EF93FF93E091E2219C
:1004F000F091E321309709F00995FF91EF91BF91B9
:10050000AF919F918F917F916F915F914F913F91AB
:100510002F910F900FBE0F901F9018951F920F9262
:100520000FB60F9211242F933F934F935F936F93C6
:100530007F938F939F93AF93BF93EF93FF93E0913C
:10054000E021F091E121309709F00995FF91EF91B9
:10055000BF91AF919F918F917F916F915F914F91DB
:100560003F912F910F900FBE0F901F9018951F92E3
:100570000F920FB60F9211242F933F934F935F93D7
:100580006F937F938F939F93AF93BF93EF93FF935B
:10059000E091DE21F091DF21309709F00995FF917C
:1005A000EF91BF91AF919F918F917F916F915F91EB
:1005B0004F913F912F910F900FBE0F901F90189564
:1005C0001F920F920FB60F9211242F933F934F93C8
:1005D0005F936F937F938F939F93AF93BF93EF93AB
:1005E000FF93E091DC21F091DD21309709F009952E
:1005F000FF91EF91BF91AF919F918F917F916F91FB
:100600005F914F913F912F910F900FBE0F901F90D0
:1006100018951F920F920FB60F9211242F933F93AC
:100620004F935F936F937F938F939F93AF93BF93FA
:10063000EF93FF93E091DA21F091DB21309709F0FD
:100640000995FF91EF91BF91AF919F918F917F910C
:100650006F915F914F913F912F910F900FBE0F902F
:100660001F9018951F920F920FB60F9211242F937F
:100670003F934F935F936F937F938F939F93AF932A
:10068000BF93EF93FF93E091D821F091D921309758
:1006900009F00995FF91EF91BF91AF919F918F91D3
:1006A0007F916F915F914F913F912F910F900FBE6E
:1006B0000F901F9018951F920F920FB60F92112452
:1006C0002F933F934F935F936F937F938F939F935A
:1006D000AF93BF93EF93FF93E091D621F091D72191
:1006E000309709F00995FF91EF91BF91AF919F91DC
:1006F0008F917F916F915F914F913F912F910F90CB
:100700000FBE0F901F9018951F920F920FB60F9269
:1007100011242F933F934F935F936F937F938F9306
:100720009F93AF93BF93EF93FF93E091D421F09108
:10073000D521309709F00995FF91EF91BF91AF91C5
:100740009F918F917F916F915F914F913F912F91E9
:100750000F900FBE0F901F9018951F920F920FB61B
:100760000F9211242F933F934F935F936F937F9337
:100770008F939F93AF93BF93EF93FF93E091D22119
:10078000F091D321309709F00995FF91EF91BF9136
:10079000AF919F918F917F916F915F914F913F9119
:1007A0002F910F900FBE0F901F9018951F920F92D0
:1007B0000FB60F9211242F933F934F935F936F9334
:1007C0007F938F939F93AF93BF93EF93FF93E091AA
:1007D000D021F091D121309709F00995FF91EF9147
:1007E000BF91AF919F918F917F916F915F914F9149
:1007F0003F912F910F900FBE0F901F9018951F9251
:100800000F920FB60F9211242F933F934F935F9344
:100810006F937F938F939F93AF93BF93EF93FF93C8
:10082000E091CE21F091CF21309709F00995FF9109
:10083000EF91BF91AF919F918F917F916F915F9158
:100840004F913F912F910F900FBE0F901F901895D1
:100850001F920F920FB60F9211242F933F934F9335
:100860005F936F937F938F939F93AF93BF93EF9318
:10087000FF93E091CC21F091CD21309709F00995BB
:10088000FF91EF91BF91AF919F918F917F916F9168
:100890005F914F913F912F910F900FBE0F901F903E
:1008A00018951F920F920FB60F9211242F933F931A
:1008B0004F935F936F937F938F939F93AF93BF9368
:1008C000EF93FF93E091CA21F091CB21309709F08B
:1008D0000995FF91EF91BF91AF919F918F917F917A
:1008E0006F915F914F913F912F910F900FBE0F909D
:1008F0001F9018951F920F920FB60F9211242F93ED
:100900003F934F935F936F937F938F939F93AF9397
:10091000BF93EF93FF93E091C821F091C9213097E5
:1009200009F00995FF91EF91BF91AF919F918F9140
:100930007F916F915F914F913F912F910F900FBEDB
:100940000F901F9018951F920F920FB60F921124BF
:100950002F933F934F935F936F937F938F939F93C7
:10096000AF93BF93EF93FF93E091C621F091C7211E
:10097000309709F00995FF91EF91BF91AF919F9149
:100980008F917F916F915F914F913F912F910F9038
:100990000FBE0F901F9018951F920F920FB60F92D7
:1009A00011242F933F934F935F936F937F938F9374
:1009B0009F93AF93BF93EF93FF93E091C421F09186
:1009C000C521309709F00995FF91EF91BF91AF9143
:1009D0009F918F917F916F915F914F913F912F9157
:1009E0000F900FBE0F901F9018951F920F920FB689
:1009F0000F9211242F933F934F935F936F937F93A5
:100A00008F939F93AF93BF93EF93FF93E091C22196
:100A1000F091C321309709F00995FF91EF91BF91B3
:100A2000AF919F918F917F916F915F914F913F9186
:100A30002F910F900FBE0F901F9018951F920F923D
:100A40000FB60F9211242F933F934F935F936F93A1
:100A50007F938F939F93AF93BF93EF93FF93E09117
:100A6000C021F091C121309709F00995FF91EF91D4
:100A7000BF91AF919F918F917F916F915F914F91B6
:100A80003F912F910F900FBE0F901F9018951F92BE
:100A90000F920FB60F9211242F933F934F935F93B2
:100AA0006F937F938F939F93AF93BF93EF93FF9336
:100AB000E091BE21F091BF21309709F00995FF9197
:100AC000EF91BF91AF919F918F917F916F915F91C6
:100AD0004F913F912F910F900FBE0F901F9018953F
:100AE0001F920F920FB60F9211242F933F934F93A3
:100AF0005F936F937F938F939F93AF93BF93EF9386
:100B0000FF93E091BC21F091BD21309709F0099548
:100B1000FF91EF91BF91AF919F918F917F916F91D5
:100B20005F914F913F912F910F900FBE0F901F90AB
:100B300018951F920F920FB60F9211242F933F9387
:100B40004F935F936F937F938F939F93AF93BF93D5
:100B5000EF93FF93E091BA21F091BB21309709F018
:100B60000995FF91EF91BF91AF919F918F917F91E7
:100B70006F915F914F913F912F910F900FBE0F900A
:100B80001F9018951F920F920FB60F9211242F935A
:100B90003F934F935F936F937F938F939F93AF9305
:100BA000BF93EF93FF93E091B821F091B921309773
:100BB00009F00995FF91EF91BF91AF919F918F91AE
:100BC0007F916F915F914F913F912F910F900FBE49
:100BD0000F901F9018951F920F920FB60F9211242D
:100BE0002F933F934F935F936F937F938F939F9335
:100BF000AF93BF93EF93FF93E091B621F091B721AC
:100C0000309709F00995FF91EF91BF91AF919F91B6
:100C10008F917F916F915F914F913F912F910F90A5
:100C20000FBE0F901F9018951F920F920FB60F9244
:100C300011242F933F934F935F936F937F938F93E1
:100C40009F93AF93BF93EF93FF93E091B421F09103
:100C5000B521309709F00995FF91EF91BF91AF91C0
:100C60009F918F917F916F915F914F913F912F91C4
:100C70000F900FBE0F901F9018951F920F920FB6F6
:100C80000F9211242F933F934F935F936F937F9312
:100C90008F939F93AF93BF93EF93FF93E091B22114
:100CA000F091B321309709F00995FF91EF91BF9131
:100CB000AF919F918F917F916F915F914F913F91F4
:100CC0002F910F900FBE0F901F9018951F920F92AB
:100CD0000FB60F9211242F933F934F935F936F930F
:100CE0007F938F939F93AF93BF93EF93FF93E09185
:100CF000B021F091B121309709F00995FF91EF9162
:100D0000BF91AF919F918F917F916F915F914F9123
:100D10003F912F910F900FBE0F901F901895CF937A
:100D2000DF93E091E421F091E521848183FF08C005
:100D30008860848383E0838386EF8093EE2183C081
:100D4000982F947131F083E083838FEF8093EE21AD
:100D50007AC086FF43C0C4EED1E2AA81BB818C81F8
:100D60009D8114962D913C911597821793076CF4F1
:100D70009C012F5F3F4F2093E8213093E921A80F7A
:100D8000B91F11968C9187835EC08091EA21909162
:100D9000EB2118962D913C91199782179307C8F46F
:100DA0002091EC21222321F08681816086834BC033
:100DB00016962D913C911797AC014F5F5F4F409372
:100DC000EA215093EB21D901A80FB91F8C91878399
:100DD0003AC083E083831092EE2135C0882384F5E6
:100DE000A4EEB1E21296CD91DC91139716968D91F7
:100DF0009C9117972885398582179307D8F46E81BF
:100E00007F819C012F5F3F4F2093EA213093EB219C
:100E10004781DB01A80FB91F4C9388859985281756
:100E2000390718F482E083830EC087E08383109231
:100E3000EE2109C083E0838389EF8093EE2103C014
:100E40008BEF8093EE21DF91CF9108951F920F9247
:100E50000FB60F9211242F933F934F935F936F938D
:100E60007F938F939F93AF93BF93EF93FF9357DF3E
:100E7000FF91EF91BF91AF919F918F917F916F9172
:100E80005F914F913F912F910F900FBE0F901F9048
:100E900018951F920F920FB60F9211242F933F9324
:100EA0004F935F936F937F938F939F93AF93BF9372
:100EB000EF93FF9334DFFF91EF91BF91AF919F913B
:100EC0008F917F916F915F914F913F912F910F90F3
:100ED0000FBE0F901F901895FC01DB0114968C91AA
:100EE000858388EB818381E08483E4EEF1E21186DF
:100EF0001286E0EAF0E0828182608283789480E06A
:100F00000895CF93DF931F92CDB7DEB79C01FB010D
:100F1000892B09F451C0309709F450C09285809113
:100F2000ED21882319F09923F1F34AC08FB7898303
:100F3000F8948981A4EEB1E291E019969C931997F7
:100F400090E81A969C931A978FBF2D933C93119714
:100F500012966D937C93139714961D921C9215977D
:100F600016961D921C92179718964C938081880FA5
:100F700064817581672B11F4411103C0F9018683E7
:100F800003C08160F9018683E4EEF1E29285903836
:100F9000E9F3F90184818370813049F0A4EEB1E274
:100FA000ED91FC911197848183708130C9F7E4EE53
:100FB000F1E28285118605C088EF03C088EF01C089
:100FC00086EF0F90DF91CF910895FC01918195FFFD
:100FD000FDCF608380E090E00895FC01918199232A
:100FE000ECF7808108954F925F926F927F928F927B
:100FF0009F92AF92BF92EF92FF920F931F93CF9366
:101000007C014A015B0128013901FC01848182FFD6
:1010100016C0D901C801689412F8B695A79597959E
:1010200087951694D1F7B901A801032E36E176957C
:101030006795579547953A95D1F7302D15C0D90149
:10104000C801689413F8B695A79597958795169457
:10105000D1F7B901A801032E37E176956795579529
:1010600047953A95D1F7302D88159905AA05BB0506
:1010700008F4A6C084169506A606B70608F4A2C012
:10108000F701848182FD04C0880C991CAA1CBB1C3A
:10109000C301B201A50194010E94952A2F3F310599
:1010A0004105510508F490C08FEF90E0A0E0B0E05A
:1010B000C9EF05C0281739074A075B0758F0880FA2
:1010C000991FAA1FBB1FCD3F0CF48160CF5FC730B3
:1010D00089F74FC0CC230CF04CC0D501C401880F58
:1010E000991FAA1FBB1F880F991FAA1FBB1F880F1C
:1010F000991FAA1FBB1F481A590A6A0A7B0ACE3FCA
:10110000F4F48DEF9FEF8C1B9109C7FD939504C0FC
:10111000440C551C661C771C8A95D2F7D501C40176
:10112000B695A79597958795BC01CD01640D751D62
:10113000861D971DA50194010E94952A37C083E062
:101140008C0FA501940104C0220F331F441F551FAB
:101150008A95D2F7DA01C901B695A7959795879533
:10116000BC01CD01640D751D861D971D0E94952A39
:101170001DC083E08C0FA501940104C0220F331F12
:10118000441F551F8A95D2F7DA01C901B695A79574
:1011900097958795BC01CD01640D751D861D971D22
:1011A0000E94952A2150310941095109832F8F70DE
:1011B000C295C07FC82BF701C783268381E018C082
:1011C00080E016C080E014C0D501C401880F991FCB
:1011D000AA1FBB1F880F991FAA1FBB1F880F991F2B
:1011E000AA1FBB1F481A590A6A0A7B0AC9EF89CF8E
:1011F000CF911F910F91FF90EF90BF90AF909F9074
:101200008F907F906F905F904F9008950F931F93F2
:10121000CF93DF93EC018B01009709F4CCC0803CA5
:10122000910521F460E180E04DD8C5C0C11584E08E
:10123000D80721F464E080E045D8BDC0C038E1E0C3
:10124000DE0721F462E080E03DD8B5C0C115F1E0D1
:10125000DF0721F461E080E035D8ADC0C03883E01D
:10126000D80721F461E081E02DD8A5C0C115E2E0E6
:10127000DE0721F462E081E025D89DC0C032F3E0B2
:10128000DF0721F464E082E01DD895C0C11588E035
:10129000D80721F461E083E015D88DC0C115E9E0DD
:1012A000DE0721F461E084E00DD885C0C115FAE0C5
:1012B000DF0721F461E085E005D87DC0C03488E017
:1012C000D80729F462E083E00E94620174C0C03450
:1012D000E9E0DE0729F462E084E00E9462016BC06D
:1012E000C039F8E0DF0729F464E083E00E9462017E
:1012F00062C0C03989E0D80729F464E084E00E9424
:10130000620159C0C039EAE0DE0729F464E085E0F3
:101310000E94620150C0C03CF8E0DF0729F468E099
:1013200083E00E94620147C0C03C89E0D80729F4ED
:1013300068E084E00E9462013EC0C03AE8E0DE0757
:1013400029F460E183E00E94620135C0C03AF9E00F
:10135000DF0729F460E184E00E9462012CC0C03AFA
:101360008AE0D80729F460E185E00E94620123C089
:10137000C03BE8E0DE0729F460E283E00E946201FE
:101380001AC0C03BF9E0DF0729F460E284E00E9464
:10139000620111C0C03884E0D80729F460E483E01A
:1013A0000E94620108C0C03AE4E0DE0721F460E474
:1013B00085E00E9462018D818F738D83F801958194
:1013C0008481892B9681911198E0892B8D83F80176
:1013D000408151816281738100E814E82EE130E0A0
:1013E000CE0101DE9C8198609C839C8190619C83EE
:1013F000DF91CF911F910F910895FF920F931F934B
:10140000CF93DF93C0E0D2E0FF24F394F8821982F7
:1014100080E18A8385E08C8361E270E082E04BD8D2
:10142000082F10E0102F002760E270E082E043D820
:10143000082B0C871D87F8A288E089A3DF91CF9144
:101440001F910F91FF900895813021F488E08093DF
:1014500021020895823021F480E1809321020895D1
:10146000833021F488E180932102089580E2809303
:1014700021020895E0E0F2E080A1806880A383A1CA
:101480008823E9F3E0E0F2E013A284A195A1089596
:1014900044E60C94C41E08952F923F924F925F929F
:1014A0006F927F928F929F92AF92BF92CF92DF9274
:1014B000EF92FF920F931F93CF93DF93CDB7DEB7D9
:1014C000C154D109CDBFDEBF1C01CE0101960E94DF
:1014D000321F85E1FE013196A9E2B3E201900D923F
:1014E0008A95E1F709E213E2F80161817281072E22
:1014F000000C880B990B0E94B8286B017C0160914D
:101500000C2070910D20072E000C880B990B0E9467
:10151000B8289B01AC01C701B6010E943C275B01C2
:101520006C01F80165857685072E000C880B990BF8
:101530000E94B8282B013C016091EF217091F021AD
:10154000072E000C880B990B0E94B8289B01AC0158
:10155000C301B2010E943C2720E030E040E057E4A4
:101560000E943C2720E030E04AE755E40E94C4296D
:1015700020E03FEF4FE757E40E941D2820E030E0D5
:101580004AEF54E40E943B276A8F7B8F8C8F9D8F9C
:10159000F80163857485072E000C880B990B0E9457
:1015A000B8282B013C016091F1217091F221072EA6
:1015B000000C880B990B0E94B8289B01AC01C30159
:1015C000B2010E943C2720E030E040E057E40E9456
:1015D0003C2720E030E04AE755E40E94C42920E09F
:1015E0003FEF4FE757E40E941D2820E030E04AEF2C
:1015F00054E40E943B276E8F7F8F88A399A3F80144
:1016000061857285072E000C880B990B0E94B82803
:101610002B013C016091062070910720072E000CE1
:10162000880B990B0E94B8289B01AC01C301B20141
:101630000E943C2720E030E040E057E40E943C2735
:1016400020E030E04AE755E40E94C42920E03FEF63
:101650004FE757E40E941D2820E030E04AEF54E4B1
:101660000E943B272B013C01F80163897489072EF6
:10167000000C880B990B0E94B8286E8B7F8B888F8B
:10168000998F60910E2070910F20072E000C880B0F
:10169000990B0E94B8289B01AC016E897F89888DC7
:1016A000998D0E943C27DC01CB01B058BF93AF93CA
:1016B0009F938F93F80167857089072E000C880B24
:1016C000990B0E94B8286E8B7F8B888F998F6091C1
:1016D000122070911320072E000C880B990B0E948A
:1016E000B8289B01AC016E897F89888D998D0E94F5
:1016F0003C279F938F937F936F93F8016189728941
:10170000072E000C880B990B0E94B8286E8B7F8BDC
:10171000888F998F6091102070911120072E000CF6
:10172000880B990B0E94B8289B01AC016E897F89B8
:10173000888D998D0E943C279F938F937F936F9301
:10174000F80165817681072E000C880B990B0E94A9
:10175000B8286E8B7F8B888F998F6091082070914D
:101760000920072E000C880B990B0E94B8289B01BA
:10177000AC016E897F89888D998D0E943C279F934B
:101780008F937F936F93F80163817481072E000C10
:10179000880B990B0E94B8286E8B7F8B888F998F4E
:1017A00060910A2070910B20072E000C880B990B7A
:1017B0000E94B8289B01AC016E897F89888D998D24
:1017C0000E943C279F938F937F936F93EA8CFB8CAF
:1017D0000C8D1D8D2E8D3F8D48A159A1C301B201E5
:1017E00083D76091142070911520809116209091DC
:1017F00017202091142030911520409116205091EF
:101800001720C0900722D0900822E0900922F09083
:101810000A228090072290900822A0900922B0907E
:101820000A2240900322509004226090052270907A
:1018300006224A8E5B8E6C8E7D8E409003225090E5
:10184000042260900522709006224E8E5F8E68A260
:1018500079A24090FF215090002260900122709068
:1018600002224E8A5F8A688E798E4090FF215090C6
:10187000002260900122709002224AA25BA26CA218
:101880007DA240900722509008226090092270901B
:101890000A224EA25FA268A679A640900322509029
:1018A000042260900522709006224AA65BA66CA6D0
:1018B0007DA64090142050901520609016207090C6
:1018C00017204EAA5FAA68AE79AE4090FF215090D3
:1018D000002260900122709002224EA65FA668AAA4
:1018E00079AA0E94C4292B013C01A5019401C701DA
:1018F000B6010E94C4299B01AC01C301B2010E9440
:101900003C276B017C012E8D3F8D48A159A16A8D2A
:101910007B8D8C8D9D8D0E94C4299B01AC01C701DC
:10192000B6010E943B276B017C012AA13BA14CA17F
:101930005DA16E897F89888D998D0E94C4299B0144
:10194000AC01C701B6010E943B276B017C012AA5AF
:101950003BA54CA55DA56EA17FA188A599A50E9478
:10196000C4294B015C012EA53FA548A959A96EA920
:101970007FA988AD99AD0E94C4299B01AC01C50126
:10198000B4010E943C279B01AC010E943C27A701A7
:1019900096010E94C6276A8F7B8F8C8F9D8F6091E6
:1019A0000722709108228091092290910A222091A9
:1019B000FF2130910022409101225091022280901B
:1019C000142090901520A0901620B09017204090E1
:1019D00003225090042260900522709006220E94FB
:1019E000C4296B017C01A3019201C501B4010E94CD
:1019F000C4299B01AC01C701B6010E943B279B0192
:101A0000AC010E943C270E94A0276E8F7F8F88A385
:101A100099A36091142070911520809116209091C7
:101A200017202091142030911520409116205091BC
:101A300017208090072290900822A0900922B09051
:101A40000A2240900722509008226090092270904C
:101A50000A22E0900322F0900422009105221091C6
:101A60000622EE8AFF8A088F198FE0900322F090F9
:101A700004220091052210910622EAA2FBA20CA3E7
:101A80001DA3E090FF21F09000220091012210910F
:101A90000222EEA2FFA208A719A7E090FF21F09072
:101AA00000220091012210910222EAA6FBA60CA7B7
:101AB0001DA7E0901420F0901520009116201091A1
:101AC0001720EEA6FFA608AB19ABE0900722F09016
:101AD00008220091092210910A22EAAAFBAA0CAB63
:101AE0001DABE0900322F09004220091052210919A
:101AF00006222296ECAEFDAE0EAF1FAF2297E0900D
:101B0000FF21F09000220091012210910222EEAA02
:101B1000FFAA08AF19AF0E94C4296B017C01A30181
:101B20009201C501B4010E94C4299B01AC01C70107
:101B3000B6010E943B274B015C012AA13BA14CA1AD
:101B40005DA16E897F89888D998D0E94C4299B0132
:101B5000AC01C501B4010E943B274B015C012AA5E1
:101B60003BA54CA55DA56EA17FA188A599A50E9466
:101B7000C4299B01AC01C501B4010E943C272B0183
:101B80003C012AA93BA94CA95DA96EA57FA588A9FE
:101B900099A90E94C4294B015C012EA93FA948AD17
:101BA00059AD22966CAD7DAD8EAD9FAD22970E9452
:101BB000C4299B01AC01C501B4010E943C279B01D3
:101BC000AC010E943C27A30192010E94C6276B0131
:101BD0007C0185E1E9E2F3E2D1011C9601900D92CE
:101BE0008A95E1F76E8D7F8D88A199A190582DEE91
:101BF0003EE245E652E40E94C429F101608371830C
:101C0000828393832DEE3EE245E652E4C701B6019E
:101C10000E94C429F10164837583868397832DEE26
:101C20003EE245E652E46A8D7B8D8C8D9D8D0E944F
:101C3000C429F1016087718782879387CDBFDEBF9A
:101C4000C101CF5BDF4FCDBFDEBFDF91CF911F91D1
:101C50000F91FF90EF90DF90CF90BF90AF909F904B
:101C60008F907F906F905F904F903F902F9008954E
:101C7000CF92DF92EF92FF920F931F938B019C0103
:101C800035952795179507950F2EFFEDCF2EF9E582
:101C9000DF2EF7E3EF2EFFE5FF2EF02DC01AD10A5D
:101CA000E20AF30A20E030E040E05FE30E94C4294A
:101CB000A70196010E94C429A70196010E94C42988
:101CC0009B01AC0160E070E080EC9FE30E943B2749
:101CD000A70196010E94C4291F910F91FF90EF90D8
:101CE000DF90CF9008954F925F926F927F928F9284
:101CF0009F92AF92BF92CF92DF92EF92FF920F939B
:101D00001F93CF93DF93CDB7DEB7A497CDBFDEBFD0
:101D100069877A878B879C872D873E874F87588B6B
:101D2000E98AFA8A0B8B1C8B20E030E0A901C601FE
:101D3000B5010E941928811117C020E030E0A901E7
:101D40006FA978AD89AD9AAD0E94192881110CC098
:101D500020E030E0A9016BAD7CAD8DAD9EAD0E9461
:101D60001928882309F460C2A6019501C601B501AE
:101D70000E94C4292B013C012FA938AD49AD5AADB1
:101D8000CA01B9010E94C4299B01AC01C301B2017F
:101D90000E943C272B013C012BAD3CAD4DAD5EAD0F
:101DA000CA01B9010E94C4299B01AC01C301B2015F
:101DB0000E943C275DDF2B013C019B01AC01C60169
:101DC000B5010E94C42969837A838B839C83A30114
:101DD00092016FA978AD89AD9AAD0E94C4296D8337
:101DE0007E838F839887A30192016BAD7CAD8DAD0F
:101DF0009EAD0E94C4296D8B7E8B8F8B988F6091D6
:101E00000722709108228091092290910A22209144
:101E1000FF213091002240910122509102228090B6
:101E2000142090901520A0901620B090172040907C
:101E300003225090042260900522709006220E9496
:101E4000C4296B017C01A3019201C501B4010E9468
:101E5000C4299B01AC01C701B6010E943B27698FD1
:101E60007A8F8B8F9C8F60911420709115208091B8
:101E7000162090911720209107223091082240913E
:101E8000092250910A228090032290900422A0906F
:101E90000522B09006224090FF21509000226090D1
:101EA0000122709002220E94C4296B017C01A301CF
:101EB0009201C501B4010E94C4299B01AC01C70174
:101EC000B6010E943C276D8F7E8F8F8F98A3609103
:101ED0001420709115208091162090911720209148
:101EE0001420309115204091162050911720809099
:101EF000FF2190900022A0900122B09002224090F9
:101F0000FF215090002260900122709002220E94D6
:101F1000C42920E030E040E05FE30E943B276B01F2
:101F20007C01A3019201C501B4010E94C4299B0157
:101F3000AC01C701B6010E943C276B017C019B01EB
:101F4000AC016D817E818F8198850E94C4294B01EF
:101F50005C012D8D3E8D4F8D58A16D897E898F89B5
:101F6000988D0E94C4299B01AC01C501B4010E9457
:101F70003B2769A37AA38BA39CA3298D3A8D4B8D14
:101F80005C8D6D897E898F89988D0E94C4294B0153
:101F90005C01A701960169817A818B819C810E94F5
:101FA000C4299B01AC01C501B4010E943B274B0130
:101FB0005C012D8D3E8D4F8D58A169817A818B8179
:101FC0009C810E94C4296B017C01298D3A8D4B8D27
:101FD0005C8D6D817E818F8198850E94C4299B01D3
:101FE000AC01C701B6010E943B276B017C016091E7
:101FF0000B2270910C2280910D2290910E2220E0F4
:1020000030E0A9010E94B92918160CF0ABC020914C
:102010000B2230910C2240910D2250910E224090C3
:10202000FB215090FC216090FD217090FE2169A160
:102030007AA18BA19CA10E94C4292AEF39EC44E328
:1020400059E30E94C429A30192010E943C27609396
:10205000FB217093FC218093FD219093FE21209120
:102060000B2230910C2240910D2250910E22409073
:10207000F7215090F8216090F9217090FA21C50164
:10208000B4010E94C4292AEF39EC44E359E30E94C9
:10209000C429A30192010E943C276093F721709309
:1020A000F8218093F9219093FA2120910B2230910D
:1020B0000C2240910D2250910E224090F32150901D
:1020C000F4216090F5217090F621C701B6010E94BD
:1020D000C4292AEF39EC44E359E30E94C429A3013F
:1020E00092010E943C276093F3217093F421809326
:1020F000F5219093F6212091FB213091FC21409114
:10210000FD215091FE2169857A858B859C850E94F1
:102110003C2769877A878B879C872091F7213091AC
:10212000F8214091F9215091FA216D857E858F85A6
:1021300098890E943C276D877E878F87988B209196
:10214000F3213091F4214091F5215091F6216989D4
:102150007A898B899C890E943C27698B7A8B8B8B2F
:102160009C8B18C01092FB211092FC211092FD2133
:102170001092FE211092F7211092F8211092F9216D
:102180001092FA211092F3211092F4211092F5216D
:102190001092F621209118203091192040911A2098
:1021A00050911B2069A17AA18BA19CA10E94C429F6
:1021B0009B01AC0169857A858B859C850E943C27B3
:1021C00069877A878B879C87209118203091192006
:1021D00040911A2050911B20C501B4010E94C429CE
:1021E0009B01AC016D857E858F8598890E943C2777
:1021F0006D877E878F87988B2091182030911920CA
:1022000040911A2050911B20C701B6010E94C42999
:102210009B01AC0169897A898B899C890E943C2742
:10222000698B7A8B8B8B9C8B2AEF39EC44EB58E3D0
:1022300069857A858B859C850E94C42969877A8700
:102240008B879C872AEF39EC44EB58E36D857E85BC
:102250008F8598890E94C4296D877E878F87988B88
:102260002AEF39EC44EB58E369897A898B899C8998
:102270000E94C429698B7A8B8B8B9C8BE0901420F5
:10228000F09015200091162010911720ED82FE820B
:102290000F8318878090072290900822A09009222F
:1022A000B0900A22E0900322F090042200910522CF
:1022B00010910622ED8AFE8A0F8B188F4090FF2125
:1022C000509000226090012270900222C090142051
:1022D000D0901520E0901620F0901720C501B40191
:1022E000905829853A854B855C850E94C42969836D
:1022F0007A838B839C832D893E894F89588D6D8588
:102300007E858F8598890E94C4299B01AC016981D3
:102310007A818B819C810E943B2769837A838B839E
:102320009C83A301920169897A898B899C890E9487
:10233000C4299B01AC0169817A818B819C810E94B7
:102340003B27A70196010E943C27609314207093BD
:10235000152080931620909317204090FF215090D5
:1023600000226090012270900222C0900722D0903B
:102370000822E0900922F0900A222D813E814F81AF
:10238000588569857A858B859C850E94C4296983D7
:102390007A838B839C832D893E894F89588D6989E7
:1023A0007A898B899C890E94C4299B01AC0169812F
:1023B0007A818B819C810E943C2769837A838B83FD
:1023C0009C83A30192016D857E858F8598890E94EB
:1023D000C4299B01AC0169817A818B819C810E9417
:1023E0003B27A70196010E943C2760930722709328
:1023F00008228093092290930A224090FF21509056
:1024000000226090012270900222C0900322D0909E
:102410000422E0900522F09006222D813E814F811A
:1024200058856D857E858F8598890E94C42969832A
:102430007A838B839C83A501940169897A898B892E
:102440009C890E94C4299B01AC0169817A818B819E
:102450009C810E943B2769837A838B839C83A301A1
:10246000920169857A858B859C850E94C4299B0190
:10247000AC0169817A818B819C810E943C27A701F4
:1024800096010E943C27609303227093042280935C
:10249000052290930622C090FF21D0900022E09068
:1024A0000122F09002222D813E814F815885698959
:1024B0007A898B899C890E94C4292B013C01A50142
:1024C00094016D857E858F8598890E94C4299B0122
:1024D000AC01C301B2010E943C274B015C012D8974
:1024E0003E894F89588D69857A858B859C850E94A8
:1024F000C4299B01AC01C501B4010E943B27A7017F
:1025000096010E943C276093FF21709300228093E4
:1025100001229093022260911420709115208091E5
:102520001620909117202091142030911520409171
:102530001620509117208090072290900822A0909A
:102540000922B0900A224090072250900822609001
:10255000092270900A22E0900322F0900422009158
:10256000052210910622E986FA860B871C87E090E7
:102570000322F09004220091052210910622ED869C
:10258000FE860F87188BE090FF21F09000220091CB
:10259000012210910222E982FA820B831C83E090CF
:1025A000FF21F09000220091012210910222E98A7D
:1025B000FA8A0B8B1C8B0E94C4296B017C01A3013E
:1025C0009201C501B4010E94C4299B01AC01C7015D
:1025D000B6010E943C274B015C012D853E854F854D
:1025E000588969857A858B859C850E94C4299B01C1
:1025F000AC01C501B4010E943C274B015C01298953
:102600003A894B895C8969817A818B819C810E949E
:10261000C4299B01AC01C501B4010E943C2728DB01
:102620006B017C01209114203091152040911620DF
:10263000509117200E94C429609314207093152094
:102640008093162090931720209107223091082222
:102650004091092250910A22C701B6010E94C42963
:1026600060930722709308228093092290930A2294
:10267000209103223091042240910522509106229C
:10268000C701B6010E94C4296093032270930422FB
:1026900080930522909306222091FF213091002201
:1026A0004091012250910222C701B6010E94C42923
:1026B0006093FF2170930022809301229093022265
:1026C000A496CDBFDEBFDF91CF911F910F91FF90F8
:1026D000EF90DF90CF90BF90AF909F908F907F90C2
:1026E0006F905F904F9008952F923F924F925F921C
:1026F0006F927F928F929F92AF92BF92CF92DF9212
:10270000EF92FF920F931F93CF93DF93CDB7DEB776
:10271000C855D109CDBFDEBF698B7A8B8B8B9C8B63
:10272000298F3A8F4B8F5C8FE982FA820B831C834F
:10273000AE96FFACAE97AF96EFACAF97E0969FAC7E
:10274000E097E1968FACE197E2961FADE297E396B2
:102750000FADE397E4963FACE497E5962FACE59791
:1027600020E030E0A901E9966CAD7DAD8EAD9FAD66
:10277000E9970E941928811134C020E030E0A901B6
:10278000ED966CAD7DAD8EAD9FADED970E94192895
:10279000811127C020E030E0A901C358DF4F6881D4
:1027A00079818A819B81CD57D0400E94192881115F
:1027B00018C02F923F920F931F938F929F92EF9288
:1027C000FF92E980FA800B811C81298D3A8D4B8D17
:1027D0005C8D69897A898B899C8985DACDBFDEBF5A
:1027E000A4C720E030E0A901C601B5010E94192864
:1027F000811117C020E030E0A9016F2D7E2D892DB9
:10280000982D0E94192881110CC020E030E0A90108
:10281000612F702F832D922D0E941928882309F48F
:1028200037C5A6019501C601B5010E94C4292B0137
:102830003C012F2D3E2D492D582D6F2D7E2D892D9C
:10284000982D0E94C4299B01AC01C301B2010E94D2
:102850003C272B013C01212F302F432D522D612F7E
:10286000702F832D922D0E94C4299B01AC01C301BE
:10287000B2010E943C27FCD92B013C019B01AC0119
:10288000C601B5010E94C4296DAB7EAB8FAB98AF7A
:10289000A30192016F2D7E2D892D982D0E94C429B0
:1028A00069AF7AAF8BAF9CAFA3019201612F702FFC
:1028B000832D922D0E94C42921966CAF7DAF8EAFDF
:1028C0009FAF2197E9962CAD3DAD4EAD5FADE99739
:1028D000CA01B9010E94C4296B017C01ED962CAD9F
:1028E0003DAD4EAD5FADED97CA01B9010E94C4295F
:1028F0009B01AC01C701B6010E943C276B017C0122
:10290000C358DF4F288139814A815B81CD57D04040
:10291000CA01B9010E94C4299B01AC01C701B601DB
:102920000E943C27A5D96B017C019B01AC01E99673
:102930006CAD7DAD8EAD9FADE9970E94C4296D83CE
:102940007E838F839887A7019601ED966CAD7DAD50
:102950008EAD9FADED970E94C42969877A878B87DA
:102960009C87A7019601C358DF4F688179818A81CE
:102970009B81CD57D0400E94C4296D877E878F8769
:10298000988B4090142050901520609016207090E5
:102990001720E0901420F09015200091162010913F
:1029A00017206996ECAEFDAE0EAF1FAF6997609130
:1029B000142070911520809116209091172020915D
:1029C0000722309108224091092250910A220E9448
:1029D000C42969A37AA38BA39CA36091142070914E
:1029E000152080911620909117202091032230917C
:1029F000042240910522509106220E94C4296D8F25
:102A00007E8F8F8F98A360911420709115208091F4
:102A10001620909117202091FF21309100224091A3
:102A20000122509102220E94C4296D8B7E8B8F8BD4
:102A3000988FC0900722D0900822E0900922F09051
:102A40000A228091072290910822A0910922B09138
:102A50000A2289AB9AABABABBCAB609107227091F9
:102A600008228091092290910A222091032230911C
:102A7000042240910522509106220E94C42969A790
:102A80007AA78BA79CA7609107227091082280915A
:102A9000092290910A222091FF2130910022409139
:102AA0000122509102220E94C4296DA77EA78FA700
:102AB00098AB60910322709104228091052290913D
:102AC0000622209103223091042240910522509148
:102AD00006220E94C42925966CAF7DAF8EAF9FAFB2
:102AE0002597609103227091042280910522909194
:102AF00006222091FF213091002240910122509125
:102B000002220E94C42929966CAF7DAF8EAF9FAF81
:102B100029976091FF21709100228091012290916C
:102B200002222091FF2130910022409101225091F8
:102B300002220E94C4296DA37EA38FA398A7259685
:102B40002CAD3DAD4EAD5FAD259760E070E080E00F
:102B50009FE30E943B272DA13EA14FA158A50E94B3
:102B60003B272D966CAF7DAF8EAF9FAF2D972D89F4
:102B70003E894F89588D69A57AA58BA59CA50E9491
:102B80003B2761966CAF7DAF8EAF9FAF61972DA550
:102B90003EA54FA558A96D8D7E8D8F8D98A10E9461
:102BA0003C2765966CAF7DAF8EAF9FAF65972D9636
:102BB0002CAD3DAD4EAD5FAD2D976D817E818F818A
:102BC00098850E94C4294B015C0161962CAD3DADF6
:102BD0004EAD5FAD619769857A858B859C850E9436
:102BE000C4299B01AC01C501B4010E943C274B01E3
:102BF0005C0165962CAD3DAD4EAD5FAD65976D85C5
:102C00007E858F8598890E94C4299B01AC01C501EE
:102C1000B4010E943C279B01AC010E943C274B0160
:102C20005C0129A93AA94BA95CA9C701B6010E9478
:102C3000C4299B01AC0160E070E080E09FE30E944A
:102C40003B2769AB7AAB8BAB9CAB29A53AA54BA5CF
:102C50005CA56D897E898F89988D0E943C272D8186
:102C60003E814F8158850E94C4296B017C012DA1B2
:102C70003EA14FA158A569A97AA98BA99CA90E9438
:102C80003B2729853A854B855C850E94C4299B0199
:102C9000AC01C701B6010E943C276B017C0129A150
:102CA0003AA14BA15CA129966CAD7DAD8EAD9FADD7
:102CB00029970E943B272D853E854F8558890E9484
:102CC000C4299B01AC01C701B6010E943C279B01AE
:102CD000AC010E943C276B017C01A5019401C50158
:102CE000B4010E94C4296D8B7E8B8F8B988FA501B8
:102CF0009401C501B4010E94C4294B015C01A701E4
:102D00009601C701B6010E94C4299B01AC01C5010F
:102D1000B4010E943C270E942B2A4B015C012D8D9F
:102D20003E8D4F8D58A16DA57EA58FA598A90E94B7
:102D30003B276D8F7E8F8F8F98A329962CAD3DAD4D
:102D40004EAD5FAD299769A17AA18BA19CA10E948C
:102D50003C2769A37AA38BA39CA325962CAD3DADFC
:102D60004EAD5FAD259769A97AA98BA99CA90E9450
:102D70003B276D8B7E8B8F8B988F2D8D3E8D4F8D4E
:102D800058A16D817E818F8198850E94C4296B0135
:102D90007C0129A13AA14BA15CA169857A858B852B
:102DA0009C850E94C4299B01AC01C701B6010E9409
:102DB0003C276B017C012D893E894F89588D6D859B
:102DC0007E858F8598890E94C4299B01AC01C7012B
:102DD000B6010E943C279B01AC010E943C276B017D
:102DE0007C0169962CAD3DAD4EAD5FAD6997C301D9
:102DF000B2010E94C42920E030E040E05FE30E947D
:102E00003B272DA13EA14FA158A50E943C276DA3B1
:102E10007EA38FA398A7A50194012D966CAD7DADDF
:102E20008EAD9FAD2D970E94C4292B013C01A701B7
:102E300096016D8D7E8D8F8D98A10E94C4299B0176
:102E4000AC01C301B2010E943C2769A77AA78BA7F6
:102E50009CA7A501940161966CAD7DAD8EAD9FAD33
:102E600061970E94C4292B013C01A701960169A129
:102E70007AA18BA19CA10E94C4299B01AC01C30132
:102E8000B2010E943C276DA77EA78FA798ABA50132
:102E9000940165966CAD7DAD8EAD9FAD65970E943A
:102EA000C4292B013C01A70196016D897E898F8978
:102EB000988D0E94C4299B01AC01C301B2010E94FC
:102EC0003C276B017C012DA13EA14FA158A569AD06
:102ED0007AAD8BAD9CAD0E94C4294B015C0129A148
:102EE0003AA14BA15CA121966CAD7DAD8EAD9FAD9D
:102EF00021970E94C4299B01AC01C501B4010E9425
:102F00003B274B015C01A701960169857A858B857A
:102F10009C850E94C4292B013C012DA53EA54FA5EF
:102F200058A96D857E858F8598890E94C4299B014B
:102F3000AC01C301B2010E943B279B01AC01C5015A
:102F4000B4010E943C276D8B7E8B8F8B988F2D8DCB
:102F50003E8D4F8D58A121966CAD7DAD8EAD9FAD50
:102F600021970E94C4294B015C012DA13EA14FA1D4
:102F700058A56DA97EA98FA998AD0E94C4299B016F
:102F8000AC01C501B4010E943B274B015C0129A59E
:102F90003AA54BA55CA56D857E858F8598890E9495
:102FA000C4292B013C01A70196016D817E818F818F
:102FB00098850E94C4299B01AC01C301B2010E9403
:102FC0003B279B01AC01C501B4010E943C274B018A
:102FD0005C0129A13AA14BA15CA16DA97EA98FA991
:102FE00098AD0E94C4296B017C012D8D3E8D4F8DC3
:102FF00058A169AD7AAD8BAD9CAD0E94C4299B01EF
:10300000AC01C701B6010E943B276B017C012DA5D5
:103010003EA54FA558A96D817E818F8198850E941C
:10302000C4292B013C0129A53AA54BA55CA56985BE
:103030007A858B859C850E94C4299B01AC01C301C4
:10304000B2010E943B279B01AC01C701B6010E945F
:103050003C276B017C0160910B2270910C228091C6
:103060000D2290910E2220E030E0A9010E94B929A2
:1030700018160CF0ABC020910B2230910C2240911D
:103080000D2250910E224090FB215090FC21609027
:10309000FD217090FE216D897E898F89988D0E9417
:1030A000C4292AEF39EC44E359E30E94C429A3015F
:1030B00092010E943C276093FB217093FC21809336
:1030C000FD219093FE2120910B2230910C22409102
:1030D0000D2250910E224090F7215090F8216090DF
:1030E000F9217090FA21C501B4010E94C4292AEF88
:1030F00039EC44E359E30E94C429A30192010E94E0
:103100003C276093F7217093F8218093F9219093E5
:10311000FA2120910B2230910C2240910D225091E6
:103120000E224090F3215090F4216090F521709090
:10313000F621C701B6010E94C4292AEF39EC44E305
:1031400059E30E94C429A30192010E943C27609385
:10315000F3217093F4218093F5219093F62120912F
:10316000FB213091FC214091FD215091FE21698984
:103170007A898B899C890E943C27698B7A8B8B8BFF
:103180009C8B2091F7213091F8214091F9215091A9
:10319000FA21698D7A8D8B8D9C8D0E943C27698FD9
:1031A0007A8F8B8F9C8F2091F3213091F421409165
:1031B000F5215091F62169817A818B819C810E9451
:1031C0003C2769837A838B839C8318C01092FB21F0
:1031D0001092FC211092FD211092FE211092F721F5
:1031E0001092F8211092F9211092FA211092F321F5
:1031F0001092F4211092F5211092F62120911820BE
:103200003091192040911A2050911B206D897E89A0
:103210008F89988D0E94C4299B01AC0169897A89A4
:103220008B899C890E943C27698B7A8B8B8B9C8B2A
:10323000209118203091192040911A2050911B2084
:10324000C501B4010E94C4299B01AC01698D7A8D2E
:103250008B8D9C8D0E943C27698F7A8F8B8F9C8FE2
:10326000209118203091192040911A2050911B2054
:10327000C701B6010E94C4299B01AC0169817A8112
:103280008B819C810E943C2769837A838B839C83FA
:103290002AEF39EC44EB58E369897A898B899C8958
:1032A0000E94C4296D837E838F8398872AEF39EC2F
:1032B00044EB58E3698D7A8D8B8D9C8D0E94C429D7
:1032C00069877A878B879C872AEF39EC44EB58E330
:1032D00069817A818B819C810E94C4296D877E8758
:1032E0008F87988BE0901420F09015200091162085
:1032F00010911720E98AFA8A0B8B1C8B8090072289
:1033000090900822A0900922B0900A22E090032217
:10331000F09004220091052210910622E98EFA8E87
:103320000B8F1C8F4090FF21509000226090012253
:1033300070900222C0901420D0901520E0901620AA
:10334000F0901720C501B40190582D813E814F8126
:1033500058850E94C42969837A838B839C83298D35
:103360003A8D4B8D5C8D69857A858B859C850E9415
:10337000C4299B01AC0169817A818B819C810E9467
:103380003B2769837A838B839C83A30192016D859C
:103390007E858F8598890E94C4299B01AC01698133
:1033A0007A818B819C810E943B27A70196010E9414
:1033B0003C276093142070931520809316209093DF
:1033C00017204090FF2150900022609001227090C1
:1033D0000222C0900722D0900822E0900922F090AB
:1033E0000A2229893A894B895C896D817E818F8186
:1033F00098850E94C42969837A838B839C83298D55
:103400003A8D4B8D5C8D6D857E858F8598890E9468
:10341000C4299B01AC0169817A818B819C810E94C6
:103420003C2769837A838B839C83A30192016985FE
:103430007A858B859C850E94C4299B01AC0169819A
:103440007A818B819C810E943B27A70196010E9473
:103450003C2760930722709308228093092290935F
:103460000A224090FF21509000226090012270902B
:103470000222C0900322D0900422E0900522F09016
:10348000062229893A894B895C8969857A858B85E9
:103490009C850E94C42969837A838B839C83A501C0
:1034A00094016D857E858F8598890E94C4299B0132
:1034B000AC0169817A818B819C810E943B27698361
:1034C0007A838B839C83A30192016D817E818F819E
:1034D00098850E94C4299B01AC0169817A818B8106
:1034E0009C810E943C27A70196010E943C27609383
:1034F0000322709304228093052290930622C090A9
:10350000FF21D0900022E0900122F0900222298930
:103510003A894B895C896D857E858F8598890E9463
:10352000C4292B013C01A501940169857A858B850D
:103530009C850E94C4299B01AC01C301B2010E9479
:103540003C274B015C01298D3A8D4B8D5C8D6D8143
:103550007E818F8198850E94C4299B01AC01C501A1
:10356000B4010E943B27A70196010E943C2760936B
:10357000FF21709300228093012290930222609198
:103580001420709115208091162090911720209181
:1035900014203091152040911620509117208090D2
:1035A000072290900822A0900922B0900A22409011
:1035B0000722509008226090092270900A22E09021
:1035C0000322F09004220091052210910622ED8240
:1035D000FE820F831887E0900322F090042200916E
:1035E000052210910622E986FA860B871C87E09057
:1035F000FF21F09000220091012210910222E98225
:10360000FA820B831C83E090FF21F090002200914E
:10361000012210910222ED86FE860F87188B0E94F0
:10362000C4296B017C01A3019201C501B4010E9470
:10363000C4299B01AC01C701B6010E943C274B0184
:103640005C0129853A854B855C856D817E818F8102
:1036500098850E94C4299B01AC01C501B4010E9458
:103660003C274B015C012D853E854F85588969813A
:103670007A818B819C810E94C4299B01AC01C50188
:10368000B4010E943C270E94380E6B017C012091FE
:1036900014203091152040911620509117200E943F
:1036A000C429609314207093152080931620909362
:1036B0001720209107223091082240910922509131
:1036C0000A22C701B6010E94C429609307227093A1
:1036D00008228093092290930A222091032230919C
:1036E00004224091052250910622C701B6010E9492
:1036F000C42960930322709304228093052290933F
:1037000006222091FF213091002240910122509108
:103710000222C701B6010E94C4296093FF21709361
:1037200000228093012290930222C85ADF4FCDBF1E
:10373000DEBFDF91CF911F910F91FF90EF90DF904F
:10374000CF90BF90AF909F908F907F906F905F9041
:103750004F903F902F90089504C0615071098109E6
:1037600091096115710581059105B9F708950F93C8
:103770001F938B019C01642F70E088EE93E00E9400
:10378000812AECE1F0E288E6808389E1818381E0AF
:1037900090E08087918761506093212240E0BF01D3
:1037A000C8010E9481071F910F9108959F92AF92C7
:1037B000BF92CF92DF92EF92FF920F931F93CF931E
:1037C000DF936B017C01CCE1D0E20F2EF8E69F2E57
:1037D000F02D98828AE18983AA24A394B12CA8862B
:1037E000B98601E212E282E0F801808340E0BE0186
:1037F000C6010E94810798828BE18983A886B986D9
:1038000088E1F801808340E0BE01C6010E94810783
:10381000DF91CF911F910F91FF90EF90DF90CF90AC
:10382000BF90AF909F9008959F92AF92BF92CF921A
:10383000DF92EF92FF920F931F93CF93DF936B0171
:103840007C01CCE1D0E20F2EF8E69F2EF02D98827D
:103850008CE18983AA24A394B12CA886B98601E2BD
:1038600012E288E1F801808340E0BE01C6010E94B7
:10387000810798828DE18983A886B98682E0F80164
:10388000808340E0BE01C6010E948107DF91CF9195
:103890001F910F91FF90EF90DF90CF90BF90AF906E
:1038A0009F9008952F923F924F925F926F927F92D6
:1038B0008F929F92AF92BF92CF92DF92EF92FF9240
:1038C0000F931F93CF93DF936B017C01CCE1D0E288
:1038D0000F2EF8E69F2EF02D98820F2EF5E26F2E18
:1038E000F02D6982AA24A394B12CA886B98601E29E
:1038F00012E20F2EFCE04F2EF02DF801408240E046
:10390000BE01C6010E94810798820F2EF6E27F2E2B
:10391000F02D7982A886B9860F2EFAE05F2EF02D61
:10392000F801508240E0BE01C6010E9481079882E2
:103930000F2EF3E63F2EF02D3982A886B9868FE14F
:10394000F801808340E0BE01C6010E948107988291
:103950000F2EF7E28F2EF02D8982A886B98681E896
:10396000F801808340E0BE01C6010E9481076BE040
:103970007AE180E090E0F0DE98826982A886B986DC
:103980008CE8F801808340E0BE01C6010E948107F7
:1039900098827982A886B9866894222424F8F8014E
:1039A000208240E0BE01C6010E9481079882898280
:1039B000A886B98683E8F801808340E0BE01C6018D
:1039C0000E9481076BE07AE180E090E0C5DE98829A
:1039D00089E4898384E090E08887998741E0BE018B
:1039E000C6010E948107F801608170E080E090E0EC
:1039F0000E94B62820E030E040E053E40E943B27DC
:103A000020E030E040E85BE30E94C42920E030E0A1
:103A100040E85FE30E943C276093172270931822CE
:103A20008093192290931A22F801618170E080E05E
:103A300090E00E94B62820E030E040E053E40E948D
:103A40003B2720E030E040E85BE30E94C42920E00F
:103A500030E040E85FE30E943C27609313227093BC
:103A600014228093152290931622F801628170E04F
:103A700080E090E00E94B62820E030E040E053E48F
:103A80000E943B2720E030E040E85BE30E94C4292D
:103A900020E030E040E85FE30E943C2760930F2283
:103AA000709310228093112290931222988269823F
:103AB000A886B986F801408240E0BE01C6010E9496
:103AC000810798827982A886B986F801508240E001
:103AD000BE01C6010E94810798823982A886B986F4
:103AE000F801208240E0BE01C6010E948107988251
:103AF0008982A886B98681E8F801808340E0BE010A
:103B0000C6010E9481076BE07AE180E090E024DE4C
:103B1000DF91CF911F910F91FF90EF90DF90CF90A9
:103B2000BF90AF909F908F907F906F905F904F90DD
:103B30003F902F9008954F925F926F927F928F9255
:103B40009F92AF92BF92CF92DF92EF92FF920F932C
:103B50001F93CF93DF936B017C01CCE1D0E20F2E5A
:103B6000F8E69F2EF02D988284E28983AA24A394FC
:103B7000B12CA886B98601E212E28DECF8018083AF
:103B800040E0BE01C6010E948107988287E68983D2
:103B9000A886B9860F2EF1E86F2EF02DF80160820D
:103BA00040E0BE01C6010E94810798828AE68983AF
:103BB000A886B98680E2F801808340E0BE01C60194
:103BC0000E94810798820F2EF5E25F2EF02D598218
:103BD000A886B9868CE0F801808340E0BE01C6016A
:103BE0000E94810798820F2EF6E27F2EF02D7982B7
:103BF000A886B9868BE0F801808340E0BE01C6014B
:103C00000E94810798820F2EF3E64F2EF02D4982F5
:103C1000A886B98681E0F801808340E0BE01C60134
:103C20000E94810798820F2EF7E28F2EF02D898255
:103C3000A886B986F801608240E0BE01C6010E94F4
:103C4000810766E07DE080E090E086DDC701B60197
:103C500029DE98827982A886B9868AE0F801808375
:103C600040E0BE01C6010E94810798824982A88671
:103C7000B98686E1F801808340E0BE01C6010E945A
:103C8000810798828982A886B986F801608240E01F
:103C9000BE01C6010E94810766E07DE080E090E001
:103CA0005BDD98825982A886B9868CE8F80180830A
:103CB00040E0BE01C6010E94810798827982A886F1
:103CC000B98683E0F801808340E0BE01C6010E940E
:103CD000810798828982A886B98687E8F80180835F
:103CE00040E0BE01C6010E948107DF91CF911F9184
:103CF0000F91FF90EF90DF90CF90BF90AF909F908B
:103D00008F907F906F905F904F9008959F92AF92A9
:103D1000BF92CF92DF92EF92FF920F931F93CF93B8
:103D2000DF936B017C01CCE1D0E20F2EF8E69F2EF1
:103D3000F02D988287E38983AA24A394B12CA886C6
:103D4000B98601E212E280E1F801808340E0BE0121
:103D5000C6010E948107988288E38983A886B98674
:103D600081E0F801808340E0BE01C6010E94810726
:103D7000DF91CF911F910F91FF90EF90DF90CF9047
:103D8000BF90AF909F9008957F928F929F92AF9235
:103D9000BF92CF92DF92EF92FF920F931F93CF9338
:103DA000DF936B017C01742ECCE1D0E20F2EF8E69C
:103DB0009F2EF02D98820F2EFBE68F2EF02D8982FC
:103DC000AA24A394B12CA886B98601E212E280E865
:103DD000F801808340E0BE01C6010E94810766E3CE
:103DE00072E880E090E0B8DC98828982A886B98683
:103DF00088248394F801808240E0BE01C6010E94BD
:103E0000810798828CE68983A886B986F80110829A
:103E100040E0BE01C6010E948107C701B601C6DCB1
:103E2000C701B60101DD472DC701B601A0DCC701FE
:103E3000B6016CDFC701B6017EDEE0E6F6E081E1A7
:103E4000808B828683E08187DF91CF911F910F91D4
:103E5000FF90EF90DF90CF90BF90AF909F908F90AA
:103E60007F9008954F925F926F927F928F929F9270
:103E7000AF92BF92CF92DF92EF92FF920F931F9378
:103E8000CF93DF93CDB7DEB76897CDBFDEBF8C0190
:103E9000DB01CA01ECE1F0E228E620832AE321837A
:103EA00026E130E02087318741E0BF010E94810791
:103EB000C0902720D0902820E0902920F0902A2040
:103EC0006091222270E0762F662780912322680F6E
:103ED000711D072E000C880B990B0E94B828A701B2
:103EE00096010E941D280E94852869837A838B830E
:103EF0009C83C0902720D0902820E0902920F0902B
:103F00002A206091242270E0762F66278091252256
:103F1000680F711D072E000C880B990B0E94B828A2
:103F2000A70196010E941D280E9485286D837E832B
:103F30008F839887C0902720D0902820E090292058
:103F4000F0902A206091262270E0762F66278091DB
:103F50002722680F711D072E000C880B990B0E94F9
:103F6000B828A70196010E941D280E94852869870C
:103F70007A878B879C87C0902B20D0902C20E09054
:103F80002D20F0902E2060912A2270E0762F662757
:103F900080912B22680F711D072E000C880B990B46
:103FA0000E94B828A70196010E941D280E9485281A
:103FB0006D877E878F87988BC0902B20D0902C2088
:103FC000E0902D20F0902E2060912C2270E0762F32
:103FD000662780912D22680F711D072E000C880B1B
:103FE000990B0E94B828A70196010E941D280E94E3
:103FF0008528698B7A8B8B8B9C8BC0902B20D090E3
:104000002C20E0902D20F0902E2060912E2270E048
:10401000762F662780912F22680F711D072E000CC6
:10402000880B990B0E94B828A70196010E941D28B1
:104030000E9485286D8B7E8B8F8B988FC090172266
:10404000D0901822E0901922F0901A22609131222B
:1040500070E0762F662780913022680F711D072E41
:10406000000C880B990B0E94B828A70196010E94AA
:10407000C42920E030E040EC50E40E94C4290E94B2
:1040800085282B013C01C0901322D0901422E0908F
:104090001522F09016226091332270E0762F662769
:1040A00080913222680F711D072E000C880B990B2E
:1040B0000E94B828A70196010E94C42920E030E0A0
:1040C00040EC50E40E94C4290E9485284B015C0109
:1040D000C0900F22D0901022E0901122F090122276
:1040E0006091352270E0762F662780913422680F28
:1040F000711D072E000C880B990B0E94B828A70190
:1041000096010E94C42920E030E040EC50E40E9477
:10411000C429FBD76B017C016091282270E0762FC7
:10412000662780912922680F711D072E000C880BCD
:10413000990B0E94B82823E43DEA45E550E47DD779
:10414000E4D76C5C774FE1E2F2E28081F801808392
:1041500089819A81818392838D819E8183839483D7
:1041600089859A8585839683678370878D859E85EB
:104170008187928789899A89838794878D899E8987
:10418000858796874786508A818A928AC38AD48A8D
:10419000C8016896CDBFDEBFDF91CF911F910F910F
:1041A000FF90EF90DF90CF90BF90AF909F908F9057
:1041B0007F906F905F904F9008951F920F920FB66F
:1041C0000F9211248F939F93AF93BF9381E08093BD
:1041D000202280931F2280911B2290911C22A0916B
:1041E0001D22B0911E220196A11DB11D80931B229C
:1041F00090931C22A0931D22B0931E22BF91AF91D9
:104200009F918F910F900FBE0F901F901895CF9395
:10421000DF93EB010E94ED078883DF91CF91089532
:104220000C94E5070895CF93DF93CDB7DEB72797BA
:10423000CDBFDEBF60E184E00E946201E0E6F6E00F
:1042400080818860808380EA99E080932523909321
:10425000262380E191E2809323239093242387E017
:1042600091E28093212390932223EDE3F0E2848175
:104270008D8385818E8386818F8380819181A281C8
:10428000B38189839A83AB83BC8360E184E00E941D
:104290006201BE016F5F7F4F80EA99E00E940609CC
:1042A00068E771E081E991E00E94B72A2796CDBFC7
:1042B000DEBFDF91CF9108950F931F93CF93DF93CC
:1042C000CDB7DEB72797CDBFDEBF60E183E00E94A8
:1042D0006201E0E4F6E080818860808300EA18E013
:1042E000009325231093262380E191E280932323DA
:1042F0009093242387E091E28093212390932223BB
:10430000E6E3F0E284818D8385818E8386818F83CD
:1043100080819181A281B38189839A83AB83BC839D
:1043200060E183E00E946201BE016F5F7F4F80EA1F
:1043300098E00E94060968E771E081E991E00E9437
:10434000B72AF801838180618383E0EAF0E082810B
:10435000816082832796CDBFDEBFDF91CF911F9111
:104360000F9108950F931F93CF93DF93CDB7DEB7CF
:104370002797CDBFDEBF60E183E00E946201E0E4E9
:10438000F6E080818860808300EA18E000932523AE
:104390001093262380E191E280932323909324239A
:1043A00087E091E28093212390932223EFE2F0E2D1
:1043B00084818D8385818E8386818F8380819181A5
:1043C000A281B38189839A83AB83BC8360E183E05C
:1043D0000E946201BE016F5F7F4F80EA98E00E94F9
:1043E000060968E771E081E991E00E94B72AF801C7
:1043F000838180618383E0EAF0E08281816082834F
:104400002796CDBFDEBFDF91CF911F910F91089509
:1044100004C0615071098109910961157105810517
:104420009105B9F70895009709F4D5C0803C91052E
:1044300029F460E180E00C9462010895811524E084
:10444000920729F464E080E00C94620108958038BA
:1044500021E0920729F462E080E00C946201089563
:10446000811521E0920729F461E080E00C9462015B
:104470000895803823E0920729F461E081E00C94EC
:1044800062010895811522E0920729F462E081E03B
:104490000C9462010895803223E0920729F464E0CD
:1044A00082E00C9462010895811528E0920729F4B6
:1044B00061E083E00C9462010895811529E0920780
:1044C00029F461E084E00C946201089581152AE0EA
:1044D000920729F461E085E00C946201089580342C
:1044E00028E0920729F462E083E00C9462010895C9
:1044F000803429E0920729F462E084E00C946201A0
:104500000895803928E0920729F464E083E00C9450
:1045100062010895803929E0920729F464E084E07B
:104520000C946201089580392AE0920729F464E02E
:1045300085E00C9462010895803C28E0920729F4FC
:1045400068E083E00C9462010895803C29E09207C2
:1045500029F468E084E00C9462010895803A28E030
:10456000920729F460E183E00C9462010895803A97
:1045700029E0920729F460E184E00C946201089537
:10458000803A2AE0920729F460E185E00C94620108
:104590000895803B28E0920729F460E283E00C94C0
:1045A00062010895803B29E0920729F460E284E0EB
:1045B0000C9462010895803824E0920729F460E4A5
:1045C00083E00C9462010895803A944021F460E401
:1045D00085E00C9462010895FC01F85F40815181EF
:1045E0009A012F5F3F4F34960190F081E02D2E17F6
:1045F0003F0710F020E030E0FC01EE5FF74F019044
:10460000F081E02DE217F30759F0FC01E40FF51FEC
:104610006083FC01F85F2083318380E090E008959F
:104620008FEF9FEF0895FC01EE5FF74F20813181FE
:1046300032974081518142175307E9F0A9014F5F3A
:104640005F4F34960190F081E02D4E175F0718F40C
:10465000A42F452F02C0A0E040E0FC01E20FF31FB1
:104660002081FB012083FC01EE5FF74FA083418393
:1046700080E090E008958FEF9FEF08951F920F92D2
:104680000FB60F9211242F933F934F935F936F9325
:104690007F938F939F93AF93BF93EF93FF9360911B
:1046A000A00880E993E298DFFF91EF91BF91AF916D
:1046B0009F918F917F916F915F914F913F912F913A
:1046C0000F900FBE0F901F901895CF93DF93CDB72B
:1046D000DEB7CC5CD109CDBFDEBF1092902B10921B
:1046E000912B1092922B1092932B80E098E0809364
:1046F000942B9093952B0E945101789466E07DE075
:1047000080E090E085DE0E94520164E083E00E9438
:10471000620180E092E087DE0E94FD09CDDD60E16C
:1047200077E280E090E074DE8CE2E4E4F0E2DE0127
:10473000129601900D928A95E1F703E010E06E0168
:104740002EE2C20ED11C0EC0D7018D917D0190E0EA
:104750006BD7EC14FD04C1F78AE090E065D70150F7
:10476000110929F07E01B2E0EB0EF11CEDCF60E102
:1047700077E280E090E04CDE80E1E0E7F0E2DE010D
:104780009E9601900D928A95E1F703E010E06E018C
:10479000EEE3CE0ED11C0EC0D7018D917D0190E0CD
:1047A00043D7EC14FD04C1F788EC90E242D70150E6
:1047B000110929F07E01BEE2EB0EF11CEDCF60E1A4
:1047C00077E280E090E024DE80E1E0E8F0E2DE01E4
:1047D000DE9601900D928A95E1F70F2EF3E0EF2E11
:1047E000F12CF02D0FC0F80181918F0190E01CD7C2
:1047F0000C151D05C1F788EC90E21BD7F1E0EF1A0C
:10480000F10841F08E01025C1F4F680120E1C20EE9
:10481000D11CE9CF60E177E280E090E0F9DD80E152
:10482000E0E9F0E2DE01A25BBF4F01900D928A95B4
:10483000E1F70F2EF3E0EF2EF12CF02D0FC0D80191
:104840008D918D0190E0F0D6C016D106C1F788ECAD
:1048500090E2EFD6B1E0EB1AF10841F08E01025B75
:104860001F4F6801E0E1CE0ED11CE9CF60E177E295
:1048700080E090E0CDDD80E1E0EAF0E2DE01A25AE6
:10488000BF4F01900D928A95E1F70F2EF3E0EF2EC6
:10489000F12CF02D0FC0D8018D918D0190E0C4D680
:1048A0000C151D05C1F788EC90E2C3D6B1E0EB1AF8
:1048B000F10841F08E01025A1F4F6801E0E1CE0E6F
:1048C000D11CE9CF60E177E280E090E0A1DD80E1FA
:1048D000E0EBF0E2DE01A259BF4F01900D928A9504
:1048E000E1F70F2EF3E0EF2EF12CF02D0FC0D801E1
:1048F0008D918D0190E098D60C151D05C1F788ECBF
:1049000090E297D6B1E0EB1AF10841F08E0102591E
:104910001F4F6801E0E1CE0ED11CE9CF60E177E2E4
:1049200080E090E075DD88E0E0ECF0E2DE01A25886
:10493000BF4F01900D928A95E1F70F2EF3E0EF2E15
:10494000F12CF02D14C0D8018D918D0190E06CD622
:10495000C016D106C1F76EE471E080E090E058DD4A
:1049600088EC90E266D6B1E0EB1AF10841F08E01D6
:1049700002581F4F6801E8E0CE0ED11CE4CF60E181
:1049800077E280E090E044DD4EDC00E010E0C12CF6
:10499000D12C14C08981082E000C990B45D60F5FCD
:1049A0001F4F6EE471E080E090E032DD91E080E046
:1049B0000F3E11050CF490E0C92ED82EBE016F5F9A
:1049C0007F4F80E993E22FDE892B21F380EE90E286
:1049D00030D660E177E280E090E01ADD7E01F6E813
:1049E000EF0EF11C0F2EF9E0BF2EF02DD701EB2DAD
:1049F0001D92EA95E9F780E89AE1A6E0B0E0F701B8
:104A000080839183A283B38383E290E0A0E0B0E04F
:104A100084839583A683B78380EA94E004DD8E01C6
:104A200001571F4FD8011D92BA94E9F780E593EC26
:104A3000A0E0B0E0F80180839183A283B38380E596
:104A400080878FE090E0A0E0B0E084839583A68328
:104A5000B78380EA94E0E7DCB80180EA94E00E9442
:104A60006C07B70180EA94E00E946C07E0EAF4E08A
:104A700081818860818360EA74E080E090E00E9438
:104A8000480AE0E2F6E087E0808384838AEC90E2E3
:104A9000D0D58AED90E2CDD582EE90E2CAD5C3DBC7
:104AA000812C912C54010F2EF7E02F2EF02D0F2E7C
:104AB000FEE3EF2EF3E2FF2EF02D209224066BE2B0
:104AC00078E680E090E0A4DCC114D10411F41092E7
:104AD000240640EA54E060E070E0CE0188569F4F23
:104AE0000E944C0AC856DF4F88819981AA81BB81F8
:104AF000C859D040CF53DF4F88839983AA83BB83A3
:104B0000C15CD040C456DF4F88819981AA81BB81A6
:104B1000CC59D040CB53DF4F88839983AA83BB8382
:104B2000C55CD040C056DF4F88819981AA81BB8186
:104B3000C05AD040C753DF4F88839983AA83BB8371
:104B4000C95CD0400F2EFEE36F2EF3E27F2EF02DD6
:104B500011E0812F0E94240A63E876E080E090E073
:104B600057DC0E943A0AD3018D939D933D011F5F4C
:104B7000153079F758DBC753DF4F688179818A8117
:104B80009B81C95CD040C1D22B013C01CB53DF4F8C
:104B9000688179818A819B81C55CD040B6D2C75437
:104BA000DF4F688379838A839B83C95BD040CF536F
:104BB000DF4F688179818A819B81C15CD040A5D219
:104BC000C354DF4F688379838A839B83CD5BD04056
:104BD000F70187818F9386818F9385818F9384815D
:104BE0008F9383818F9382818F9381818F93808133
:104BF0008F93C455DF4F8881CC5AD0408F93C555D1
:104C0000DF4F8881CB5AD0408F93C854DF4F8881C3
:104C1000C85BD0408F93C954DF4F8881C75BD040B9
:104C20008F93CA54DF4F8881C65BD0408F93CB549B
:104C3000DF4F8881C55BD0408F93CC54DF4F888194
:104C4000C45BD0408F93CD54DF4F8881C35BD0408D
:104C50008F93CE54DF4F8881C25BD0408F93CF5467
:104C6000DF4F8881C15BD0408F93C055DF4F888173
:104C7000C05BD0408F93C155DF4F8881CF5AD04061
:104C80008F93C255DF4F8881CE5AD0408F93C35542
:104C9000DF4F8881CD5AD0408F93C655DF4F888132
:104CA000CA5AD0408F93C755DF4F8881C95AD04028
:104CB0008F93C855DF4F8881C85AD0408F93C9550C
:104CC000DF4F8881C75AD0408F93CA55DF4F888104
:104CD000C65AD0408F93CB55DF4F8881C55AD040FC
:104CE0008F93B201052C000C880B990B41D29B01CC
:104CF000AC01C753DF4F688179818A819B81C95C90
:104D0000D040B9D020E030E04AE754E43DD3FDD1B3
:104D10009B01772324F422273327261B370B3F934D
:104D20002F935F924F92C754DF4F28813981C95B1F
:104D3000D040B901330F880B990B1AD29B01AC01FB
:104D4000CB53DF4F688179818A819B81C55CD040DC
:104D500092D020E030E04AE754E416D3D6D19B014C
:104D6000772324F422273327261B370B3F932F93D7
:104D7000C654DF4F3881CA5BD0403F93C754DF4FE2
:104D80008881C95BD0408F93C354DF4FA881B9811C
:104D9000CD5BD040BD01BB0F880B990BE9D19B01C6
:104DA000AC01CF53DF4F688179818A819B81C15CDF
:104DB000D04061D020E030E04AE754E4E5D2A5D10C
:104DC0009B01772324F422273327261B370B3F939D
:104DD0002F93C254DF4FB881CE5BD040BF93C354F2
:104DE000DF4FE881CD5BD040EF93BF92AF929F92AF
:104DF0008F9227E531E23F932F9303D4CDBFDEBFDF
:104E0000BE016F5F7F4F80E993E20DDC892BC1F714
:104E10008981082E000C990B07D466E07DE080E0C4
:104E200090E0F6DA00E010E014C08981082E000C52
:104E3000990BFAD30F5F1F4F6CE171E080E090E0B7
:104E4000E7DA91E080E0093C11050CF490E0C92E0E
:104E5000D82EBE016F5F7F4F80E993E2E4DB892BA0
:104E600021F380EE90E2E5D37DDABFEF8B1A9B0A47
:104E7000AB0ABB0A22CE5058BB27AA270ED03FC28E
:104E800030D230F035D220F031F49F3F11F41EF4CF
:104E9000EFC10EF4E095E7FBE5C1E92F41D280F3C5
:104EA000BA17620773078407950718F071F49EF527
:104EB00059C20EF4E0950B2EBA2FA02D0B01B901AB
:104EC00090010C01CA01A0011124FF27591B99F080
:104ED000593F50F4503E68F11A16F040A22F232F8C
:104EE000342F4427585FF3CF469537952795A795DC
:104EF000F0405395C9F77EF41F16BA0B620B730B83
:104F0000840BBAF09150A1F0FF0FBB1F661F771FF3
:104F1000881FC2F70EC0BA0F621F731F841F48F4A8
:104F2000879577956795B795F7959E3F08F0B3CF2E
:104F30009395880F08F09927EE0F97958795089518
:104F40009F939F77EEE389379E0720F4ECEFF1E023
:104F5000B7D109C048D19058A2EA2AED3FE049EC08
:104F60005FE39BDFCCD10F9007FC90580895B9D137
:104F700058F080E891E009F49EEFBAD128F040E8BB
:104F800051E059F45EEF09C073C1ECC1E92FE0783C
:104F9000C7D168F3092E052AC1F32617370748073A
:104FA000590738F00E2E07F8E02569F0E025E06497
:104FB0000AC0EF6307F8009407FADB01B9019D010D
:104FC000DC01CA01AD01EF9347D099D10AD05F91BE
:104FD000552331F02BED3FE049E450FD49EC4CCF37
:104FE0000895DF93DD27B92FBF7740E85FE31616FA
:104FF000170648075B0710F4D92FBFD19F938F93F3
:105000007F936F9366D2E0E1F2E035D178D12F91B2
:105010003F914F915F91C4D1DD2349F09058A2EAAE
:105020002AED3FE049EC5FE3D0785D2736DFDF9182
:1050300066C1F4D008F481E008950CD060C158D165
:1050400040F04FD130F021F45F3F19F00BC1511106
:105050008AC10EC165D198F39923C9F35523B1F3E1
:10506000951B550BBB27AA2762177307840738F0D7
:105070009F5F5F4F220F331F441FAA1FA9F333D036
:105080000E2E3AF0E0E830D091505040E695001CEA
:10509000CAF729D0FE2F27D0660F771F881FBB1FA6
:1050A000261737074807AB07B0E809F0BB0B802D80
:1050B000BF01FF2793585F4F2AF09E3F510568F0CC
:1050C000D1C051C15F3FECF3983EDCF386957795F4
:1050D0006795B795F7959F5FC9F7880F911D9695CE
:1050E000879597F90895E1E0660F771F881FBB1F2A
:1050F000621773078407BA0720F0621B730B840BD7
:10510000BA0BEE1F88F7E095089504D06894B111AA
:105110002AC108950DD188F09F5790F0B92F992793
:10512000B751A0F0D1F0660F771F881F991F1AF0B2
:10513000BA95C9F712C0B13081F014D1B1E0089529
:1051400011C1672F782F8827B85F39F0B93FCCF3AA
:10515000869577956795B395D9F73EF490958095A8
:10516000709561957F4F8F4F9F4F0895E89409C0C8
:1051700097FB3EF490958095709561957F4F8F4F8A
:105180009F4F9923A9F0F92F96E9BB279395F695A0
:10519000879577956795B795F111F8CFFAF4BB0F1E
:1051A00011F460FF1BC06F5F7F4F8F4F9F4F16C082
:1051B000882311F096E911C0772321F09EE8872F0C
:1051C000762F05C0662371F096E8862F70E060E0C8
:1051D0002AF09A95660F771F881FDAF7880F969541
:1051E000879597F90895DF93CF931F930F938B01C2
:1051F000EC01EDE3F2E03FD082D09801AE018B01EB
:10520000EC0160E070E080E89FE335DE24D1980196
:10521000AE010F911F91CF91DF91C2C0990F00088D
:10522000550FAA0BE0E8FEEF16161706E807F90778
:10523000C0F012161306E407F50798F0621B730B13
:10524000840B950B39F40A2661F0232B242B252B94
:1052500021F408950A2609F4A140A6958FEF811D37
:10526000811D089597F99F6780E870E060E00895D8
:105270009FEF80EC0895DF93CF931F930F93FF92DE
:10528000EF92DF927B018C01689405C0DA2EEF016A
:1052900087D0FE01E894A5912591359145915591CE
:1052A000AEF3EF01FADDFE019701A801DA9479F778
:1052B000DF90EF90FF900F911F91CF91DF910895B4
:1052C0009F938F937F936F93FF93EF939B01AC0119
:1052D0005BD0EF91FF91CFDF2F913F914F915F9185
:1052E00053C000240A9416161706180609060895D6
:1052F00000240A9412161306140605060895092EB2
:105300000394000C11F4882352F0BB0F40F4BF2B20
:1053100011F460FF04C06F5F7F4F8F4F9F4F089560
:1053200057FD9058440F551F59F05F3F71F0479556
:10533000880F97FB991F61F09F3F79F0879508953B
:10534000121613061406551FF2CF4695F1DF08C05A
:10535000161617061806991FF1CF86957105610577
:1053600008940895E894BB2766277727CB0197F91F
:10537000089554DF08F48FEF08959B01AC0160E0BD
:1053800070E080E89FE359CE0BD0B9CFAADF28F0B8
:10539000AFDF18F0952309F065CF6ACF1124E3CF72
:1053A000BFDFA0F3959FD1F3950F50E0551F629F8B
:1053B000F001729FBB27F00DB11D639FAA27F00D6E
:1053C000B11DAA1F649F6627B00DA11D661F829F95
:1053D0002227B00DA11D621F739FB00DA11D621F7A
:1053E000839FA00D611D221F749F3327A00D611D97
:1053F000231F849F600D211D822F762F6A2F112479
:105400009F5750408AF0E1F088234AF0EE0FFF1FCB
:10541000BB1F661F771F881F91505040A9F79E3F02
:10542000510570F01FCF9FCF5F3FECF3983EDCF348
:10543000869577956795B795F795E7959F5FC1F73F
:10544000FE2B880F911D9695879597F9089511F475
:105450000EF40ECF41C06CDFD0F39923D9F3CEF315
:105460009F57550B87FF46D00024A0E640EA9001E5
:1054700080585695979528F4805C660F771F881F93
:1054800020F026173707480730F4621B730B840B94
:10549000202931294A2BA6951794079420253125D8
:1054A0004A2758F7660F771F881F20F026173707FF
:1054B000480730F4620B730B840B200D311D411D26
:1054C000A09581F7B901842F9158880F96958795FB
:1054D00008959B01AC0158CF9F3F31F0915020F4CB
:1054E000879577956795B795880F911D96958795C0
:1054F00097F9089591505040660F771F881FD2F793
:105500000895AA1BBB1B51E107C0AA1FBB1FA6170A
:10551000B70710F0A61BB70B881F991F5A95A9F75C
:1055200080959095BC01CD010895A1E21A2EAA1B89
:10553000BB1BFD010DC0AA1FBB1FEE1FFF1FA21743
:10554000B307E407F50720F0A21BB30BE40BF50B40
:10555000661F771F881F991F1A9469F760957095C9
:10556000809590959B01AC01BD01CF0108950F93EB
:105570001F93CF93DF93009731F46115710519F4F0
:1055800080E090E039C08B01EC016EE070E081E0DA
:1055900090E051D2FC01892B99F380E883830115B7
:1055A000110571F00287138781E883838091AA2C0B
:1055B0009091AB2C892B21F4E093AA2CF093AB2C87
:1055C0002097C9F0C087D1878381826083838091CF
:1055D000AC2C9091AD2C892B71F4E093AC2CF09312
:1055E000AD2C8091AE2C9091AF2C892B21F4E093BF
:1055F000AE2CF093AF2CCF01DF91CF911F910F9183
:105600000895A0E0B0E0E6E0FBE217C4AE014B5F16
:105610005F4FFA0161917191AF018091AC2C909133
:10562000AD2C37D0E2E022C46091AC2C7091AD2C4F
:105630005AC30F931F93CF93DF93E091AC2CF0915B
:10564000AD2C238121FF1BC08C01D0E0C0E0F8010C
:1056500081918F016091AC2C7091AD2CDB0118967B
:10566000ED91FC911997882331F00995892B79F3F5
:10567000DFEFCFEFECCF8AE00995892B19F08FEFA0
:105680009FEF02C08D2F9C2FDF91CF911F910F9123
:105690000895ABE0B0E0EEE4FBE2BFC36C017B0138
:1056A0008A01FC0116821782838181FFBFC1CE016E
:1056B00001963C01F6019381F70193FD859193FFDB
:1056C00081917F01882309F4ADC1853239F493FDBE
:1056D000859193FF81917F01853221F4B60190E09D
:1056E00002D3E8CF912C212C312CFFE1F315D8F017
:1056F0008B3279F038F4803279F08332A1F4232DA3
:1057000020611DC08D3261F0803369F4232D21604A
:1057100016C0832D8260382EE32DE4603E2E2AC011
:10572000F32DF8601DC037FC2DC020ED280F2A3066
:1057300040F08E32B9F436FC75C1232D2064322E30
:1057400019C036FE06C08AE0989E200D1124922EC4
:1057500011C0EAE02E9E200D1124222EF32DF062BE
:105760003F2E08C08C3621F4832D8068382E02C06D
:10577000883641F4F70193FD859193FF81917F0174
:105780008111B3CF982F9F7D9554933028F40C5FEF
:105790001F4F9FE399830DC0833631F0833771F03B
:1057A000833509F055C020C0F801808189830E5FE0
:1057B0001F4F88248394912C530112C02801F2E0DA
:1057C0004F0E511CF801A080B18036FE03C0692D38
:1057D00070E002C06FEF7FEFC5017AD24C01820109
:1057E000F32DFF773F2E15C0280122E0420E511CF9
:1057F000F801A080B18036FE03C0692D70E002C0C0
:105800006FEF7FEFC50152D24C01F32DF0683F2EB0
:10581000820133FC19C0822D90E088169906A0F40D
:10582000B60180E290E05FD22A94F5CFF50137FC13
:10583000859137FE81915F01B60190E054D221102D
:105840002A9421E0821A91088114910479F7E1C029
:10585000843611F0893639F5F80137FE07C06081CA
:105860007181828193810C5F1F4F08C060817181BB
:10587000072E000C880B990B0E5F1F4FF32DFF7640
:105880003F2E97FF09C090958095709561957F4F49
:105890008F4F9F4FF0683F2E2AE030E0A3015FD288
:1058A000882E861844C0853731F4232D2F7EB22EE2
:1058B0002AE030E025C0932D997FB92E8F36C1F0B4
:1058C00018F4883579F0AEC0803719F0883721F0A8
:1058D000A9C0E92FE061BE2EB4FE0DC0FB2DF4601F
:1058E000BF2E09C034FE0AC0292F2660B22E06C082
:1058F00028E030E005C020E130E002C020E132E0E5
:10590000F801B7FE07C060817181828193810C5FCD
:105910001F4F06C06081718180E090E00E5F1F4FD5
:10592000A3011DD2882E8618FB2DFF773F2E36FE51
:105930000DC0232D2E7FA22E891458F434FE0BC0E7
:1059400032FC09C0832D8E7EA82E05C0B82CA32C56
:1059500003C0B82C01C0B92CA4FE0FC0FE01E80D95
:10596000F11D8081803321F49A2D997EA92E09C0E2
:10597000A2FE06C0B394B39404C08A2D867809F0C1
:10598000B394A3FC10C0A0FE06C0B21480F4280C8F
:10599000922C9B180DC0B21458F4B60180E290E02E
:1059A000A2D1B394F8CFB21418F42B1802C0982CDB
:1059B000212CA4FE0FC0B60180E390E094D1A2FE9A
:1059C00016C0A1FC03C088E790E002C088E590E023
:1059D000B6010CC08A2D867851F0A1FE02C08BE280
:1059E00001C080E2A7FC8DE2B60190E07CD1891471
:1059F00030F4B60180E390E076D19A94F8CF8A949F
:105A0000F301E80DF11D8081B60190E06CD18110A9
:105A1000F6CF222009F44ECEB60180E290E063D1A9
:105A20002A94F7CFF6018681978102C08FEF9FEF0E
:105A30002B96E2E10BC20F931F93CF93DF93869FC8
:105A40008001879F100D969F100D1124C8010DD065
:105A5000EC01009721F0A80160E070E032D1CE01A6
:105A6000DF91CF911F910F9108950F931F93CF93C3
:105A7000DF938230910510F482E090E0E091B22C47
:105A8000F091B32C20E030E0A0E0B0E0309719F1C5
:105A9000408151810281138148175907C8F084174A
:105AA000950769F4109731F012960C93129713969C
:105AB0001C9327C00093B22C1093B32C22C0211545
:105AC000310519F04217530718F49A01BD01EF018F
:105AD000DF01F801DBCF21153105F9F0281B390B67
