:1000000032C100004DC100004BC1000049C10000D9
:1000100047C1000045C1000043C1000041C10000CC
:100020003FC100003DC100003BC1000039C10000DC
:1000300037C100000BC7000048C200006FC20000BB
:1000400096C20000BDC20000E4C200000BC3000065
:1000500032C3000059C3000080C30000A7C30000E2
:100060001FC100000C94BD221BC1000019C100007B
:1000700017C1000015C1000013C1000011C100002C
:100080000FC100000DC100000BC1000009C100003C
:1000900007C1000005C1000003C1000001C100004C
:1000A000FFC00000FDC00000FBC00000F9C0000060
:1000B000F7C00000F5C00000ECC600003AC5000023
:1000C00061C5000088C50000AFC50000D6C50000AE
:1000D000FDC50000E5C00000E3C00000E1C0000075
:1000E000DFC00000DDC00000DBC00000D9C00000A0
:1000F000D7C00000D5C00000D3C00000D1C00000B0
:100100000C94B920CDC00000CBC00000C9C00000D5
:10011000C7C00000C5C00000C3C0000014C100007B
:1001200040C100006CC1000098C10000B9C00000CF
:10013000B7C0000064C300008BC30000B2C300005E
:10014000D9C3000000C4000027C400004EC4000052
:1001500075C400009CC40000C3C40000A1C000001E
:100160009FC000009DC000009BC0000099C000001F
:1001700097C0000095C0000093C0000091C000002F
:100180008FC000008DC000008BC0000089C000003F
:1001900087C0000085C0000083C0000081C000004F
:1001A0007FC000007DC000007BC0000079C000005F
:1001B00077C0000075C0000073C0000071C000006F
:1001C0006FC000006DC000006BC0000069C000007F
:1001D00067C0000065C0000063C0000061C000008F
:1001E0005FC000005DC000005BC0000059C000009F
:1001F00057C0000055C0000053C00000036EDB363E
:100200003D9A9999993DABAAAA2A3E000000803FE9
:10021000084AD73B3BCE016E84BCBFFDC12F3D6C6D
:1002200074319ABD56833DDA3D00C77F11BED9E4D3
:10023000BB4C3E916BAAAABE000000803F072C7AFF
:10024000A5BA6CC590DA3B9365FC8BBC53F810FDE6
:100250003C5692834DBD879D3AB63DCBC9BF5BBE30
:1002600073DA0FC93F0011241FBECFEFCDBFDFE20D
:10027000DEBF11E2A0E0B0E2E4E9F9E502C00590DA
:100280000D92A232B107D9F725E2A2E2B1E201C094
:100290001D92A632B207E1F70E94E4220C94C82C0A
:1002A000AFCE08958FEF809370008093710080939C
:1002B0007200809373008093740080937500809324
:1002C00076000895CF93DF931F92CDB7DEB79FB727
:1002D0009983F8949981E82FF0E0E059FF4F6095F9
:1002E0008081682360839FBF0F90DF91CF91089535
:1002F000CF93DF931F92CDB7DEB780919722909175
:100300009822E0919322F0919422BE016F5F7F4F7B
:1003100009958981082E000C990B0F90DF91CF91E0
:100320000895682F8091972290919822E0919522CC
:10033000F0919622099599231CF081E090E00895B0
:100340008FEF9FEF08951F920F920FB60F92112417
:100350002F933F934F935F936F937F938F939F93CD
:10036000AF93BF93EF93FF934091240250912502E6
:10037000E0919922F0919A2261E080E092E0099563
:10038000FF91EF91BF91AF919F918F917F916F916D
:100390005F914F913F912F910F900FBE0F901F9043
:1003A00018951F920F920FB60F9211242F933F931F
:1003B0004F935F936F937F938F939F93AF93BF936D
:1003C000EF93FF9340912C0250912D02E0919922DE
:1003D000F0919A2262E080E092E00995FF91EF911E
:1003E000BF91AF919F918F917F916F915F914F914D
:1003F0003F912F910F900FBE0F901F9018951F9255
:100400000F920FB60F9211242F933F934F935F9348
:100410006F937F938F939F93AF93BF93EF93FF93CC
:100420004091340250913502E0919922F0919A2244
:1004300064E080E092E00995FF91EF91BF91AF9168
:100440009F918F917F916F915F914F913F912F91EC
:100450000F900FBE0F901F9018951F920F920FB61E
:100460000F9211242F933F934F935F936F937F933A
:100470008F939F93AF93BF93EF93FF9340913C0271
:1004800050913D02E0919922F0919A2268E080E03B
:1004900092E00995FF91EF91BF91AF919F918F915C
:1004A0007F916F915F914F913F912F910F900FBE70
:1004B0000F901F9018954091CA01E62FF72F809357
:1004C000CA0184914093CA0108951F920F920FB6FA
:1004D0000F9211242F933F934F935F936F937F93CA
:1004E0008F939F93AF93BF93EF93FF93E09154212A
:1004F000F0915521309709F00995FF91EF91BF9147
:10050000AF919F918F917F916F915F914F913F91AB
:100510002F910F900FBE0F901F9018951F920F9262
:100520000FB60F9211242F933F934F935F936F93C6
:100530007F938F939F93AF93BF93EF93FF93E0913C
:100540005221F0915321309709F00995FF91EF91D5
:10055000BF91AF919F918F917F916F915F914F91DB
:100560003F912F910F900FBE0F901F9018951F92E3
:100570000F920FB60F9211242F933F934F935F93D7
:100580006F937F938F939F93AF93BF93EF93FF935B
:10059000E0915021F0915121309709F00995FF9198
:1005A000EF91BF91AF919F918F917F916F915F91EB
:1005B0004F913F912F910F900FBE0F901F90189564
:1005C0001F920F920FB60F9211242F933F934F93C8
:1005D0005F936F937F938F939F93AF93BF93EF93AB
:1005E000FF93E0914E21F0914F21309709F009954A
:1005F000FF91EF91BF91AF919F918F917F916F91FB
:100600005F914F913F912F910F900FBE0F901F90D0
:1006100018951F920F920FB60F9211242F933F93AC
:100620004F935F936F937F938F939F93AF93BF93FA
:10063000EF93FF93E0914C21F0914D21309709F019
:100640000995FF91EF91BF91AF919F918F917F910C
:100650006F915F914F913F912F910F900FBE0F902F
:100660001F9018951F920F920FB60F9211242F937F
:100670003F934F935F936F937F938F939F93AF932A
:10068000BF93EF93FF93E0914A21F0914B21309774
:1006900009F00995FF91EF91BF91AF919F918F91D3
:1006A0007F916F915F914F913F912F910F900FBE6E
:1006B0000F901F9018951F920F920FB60F92112452
:1006C0002F933F934F935F936F937F938F939F935A
:1006D000AF93BF93EF93FF93E0914821F0914921AD
:1006E000309709F00995FF91EF91BF91AF919F91DC
:1006F0008F917F916F915F914F913F912F910F90CB
:100700000FBE0F901F9018951F920F920FB60F9269
:1007100011242F933F934F935F936F937F938F9306
:100720009F93AF93BF93EF93FF93E0914621F09196
:100730004721309709F00995FF91EF91BF91AF9153
:100740009F918F917F916F915F914F913F912F91E9
:100750000F900FBE0F901F9018951F920F920FB61B
:100760000F9211242F933F934F935F936F937F9337
:100770008F939F93AF93BF93EF93FF93E0914421A7
:10078000F0914521309709F00995FF91EF91BF91C4
:10079000AF919F918F917F916F915F914F913F9119
:1007A0002F910F900FBE0F901F9018951F920F92D0
:1007B0000FB60F9211242F933F934F935F936F9334
:1007C0007F938F939F93AF93BF93EF93FF93E091AA
:1007D0004221F0914321309709F00995FF91EF9163
:1007E000BF91AF919F918F917F916F915F914F9149
:1007F0003F912F910F900FBE0F901F9018951F9251
:100800000F920FB60F9211242F933F934F935F9344
:100810006F937F938F939F93AF93BF93EF93FF93C8
:10082000E0914021F0914121309709F00995FF9125
:10083000EF91BF91AF919F918F917F916F915F9158
:100840004F913F912F910F900FBE0F901F901895D1
:100850001F920F920FB60F9211242F933F934F9335
:100860005F936F937F938F939F93AF93BF93EF9318
:10087000FF93E0913E21F0913F21309709F00995D7
:10088000FF91EF91BF91AF919F918F917F916F9168
:100890005F914F913F912F910F900FBE0F901F903E
:1008A00018951F920F920FB60F9211242F933F931A
:1008B0004F935F936F937F938F939F93AF93BF9368
:1008C000EF93FF93E0913C21F0913D21309709F0A7
:1008D0000995FF91EF91BF91AF919F918F917F917A
:1008E0006F915F914F913F912F910F900FBE0F909D
:1008F0001F9018951F920F920FB60F9211242F93ED
:100900003F934F935F936F937F938F939F93AF9397
:10091000BF93EF93FF93E0913A21F0913B21309701
:1009200009F00995FF91EF91BF91AF919F918F9140
:100930007F916F915F914F913F912F910F900FBEDB
:100940000F901F9018951F920F920FB60F921124BF
:100950002F933F934F935F936F937F938F939F93C7
:10096000AF93BF93EF93FF93E0913821F09139213A
:10097000309709F00995FF91EF91BF91AF919F9149
:100980008F917F916F915F914F913F912F910F9038
:100990000FBE0F901F9018951F920F920FB60F92D7
:1009A00011242F933F934F935F936F937F938F9374
:1009B0009F93AF93BF93EF93FF93E0913621F09114
:1009C0003721309709F00995FF91EF91BF91AF91D1
:1009D0009F918F917F916F915F914F913F912F9157
:1009E0000F900FBE0F901F9018951F920F920FB689
:1009F0000F9211242F933F934F935F936F937F93A5
:100A00008F939F93AF93BF93EF93FF93E091342124
:100A1000F0913521309709F00995FF91EF91BF9141
:100A2000AF919F918F917F916F915F914F913F9186
:100A30002F910F900FBE0F901F9018951F920F923D
:100A40000FB60F9211242F933F934F935F936F93A1
:100A50007F938F939F93AF93BF93EF93FF93E09117
:100A60003221F0913321309709F00995FF91EF91F0
:100A7000BF91AF919F918F917F916F915F914F91B6
:100A80003F912F910F900FBE0F901F9018951F92BE
:100A90000F920FB60F9211242F933F934F935F93B2
:100AA0006F937F938F939F93AF93BF93EF93FF9336
:100AB000E0913021F0913121309709F00995FF91B3
:100AC000EF91BF91AF919F918F917F916F915F91C6
:100AD0004F913F912F910F900FBE0F901F9018953F
:100AE0001F920F920FB60F9211242F933F934F93A3
:100AF0005F936F937F938F939F93AF93BF93EF9386
:100B0000FF93E0912E21F0912F21309709F0099564
:100B1000FF91EF91BF91AF919F918F917F916F91D5
:100B20005F914F913F912F910F900FBE0F901F90AB
:100B300018951F920F920FB60F9211242F933F9387
:100B40004F935F936F937F938F939F93AF93BF93D5
:100B5000EF93FF93E0912C21F0912D21309709F034
:100B60000995FF91EF91BF91AF919F918F917F91E7
:100B70006F915F914F913F912F910F900FBE0F900A
:100B80001F9018951F920F920FB60F9211242F935A
:100B90003F934F935F936F937F938F939F93AF9305
:100BA000BF93EF93FF93E0912A21F0912B2130978F
:100BB00009F00995FF91EF91BF91AF919F918F91AE
:100BC0007F916F915F914F913F912F910F900FBE49
:100BD0000F901F9018951F920F920FB60F9211242D
:100BE0002F933F934F935F936F937F938F939F9335
:100BF000AF93BF93EF93FF93E0912821F0912921C8
:100C0000309709F00995FF91EF91BF91AF919F91B6
:100C10008F917F916F915F914F913F912F910F90A5
:100C20000FBE0F901F9018951F920F920FB60F9244
:100C300011242F933F934F935F936F937F938F93E1
:100C40009F93AF93BF93EF93FF93E0912621F09191
:100C50002721309709F00995FF91EF91BF91AF914E
:100C60009F918F917F916F915F914F913F912F91C4
:100C70000F900FBE0F901F9018951F920F920FB6F6
:100C80000F9211242F933F934F935F936F937F9312
:100C90008F939F93AF93BF93EF93FF93E0912421A2
:100CA000F0912521309709F00995FF91EF91BF91BF
:100CB000AF919F918F917F916F915F914F913F91F4
:100CC0002F910F900FBE0F901F9018951F920F92AB
:100CD0000FB60F9211242F933F934F935F936F930F
:100CE0007F938F939F93AF93BF93EF93FF93E09185
:100CF0002221F0912321309709F00995FF91EF917E
:100D0000BF91AF919F918F917F916F915F914F9123
:100D10003F912F910F900FBE0F901F901895CF937A
:100D2000DF93E0915621F0915721848183FF08C021
:100D30008860848383E0838386EF8093602183C00F
:100D4000982F947131F083E083838FEF809360213B
:100D50007AC086FF43C0C6E5D1E2AA81BB818C81FF
:100D60009D8114962D913C911597821793076CF4F1
:100D70009C012F5F3F4F20935A2130935B21A80F96
:100D8000B91F11968C9187835EC080915C219091F0
:100D90005D2118962D913C91199782179307C8F4FD
:100DA00020915E21222321F08681816086834BC0C1
:100DB00016962D913C911797AC014F5F5F4F409372
:100DC0005C2150935D21D901A80FB91F8C918783B5
:100DD0003AC083E083831092602135C0882384F574
:100DE000A6E5B1E21296CD91DC91139716968D91FE
:100DF0009C9117972885398582179307D8F46E81BF
:100E00007F819C012F5F3F4F20935C2130935D21B8
:100E10004781DB01A80FB91F4C9388859985281756
:100E2000390718F482E083830EC087E08383109231
:100E3000602109C083E0838389EF8093602103C030
:100E40008BEF80936021DF91CF9108951F920F92D5
:100E50000FB60F9211242F933F934F935F936F938D
:100E60007F938F939F93AF93BF93EF93FF9357DF3E
:100E7000FF91EF91BF91AF919F918F917F916F9172
:100E80005F914F913F912F910F900FBE0F901F9048
:100E900018951F920F920FB60F9211242F933F9324
:100EA0004F935F936F937F938F939F93AF93BF9372
:100EB000EF93FF9334DFFF91EF91BF91AF919F913B
:100EC0008F917F916F915F914F913F912F910F90F3
:100ED0000FBE0F901F901895FC01DB0114968C91AA
:100EE000858388EB818381E08483E6E5F1E21186E6
:100EF0001286E0EAF0E0828182608283789480E06A
:100F00000895CF93DF931F92CDB7DEB79C01FB010D
:100F1000892B09F451C0309709F450C09285809113
:100F20005F21882319F09923F1F34AC08FB7898391
:100F3000F8948981A6E5B1E291E019969C931997FE
:100F400090E81A969C931A978FBF2D933C93119714
:100F500012966D937C93139714961D921C9215977D
:100F600016961D921C92179718964C938081880FA5
:100F700064817581672B11F4411103C0F9018683E7
:100F800003C08160F9018683E6E5F1E2928590383D
:100F9000E9F3F90184818370813049F0A6E5B1E27B
:100FA000ED91FC911197848183708130C9F7E6E55A
:100FB000F1E28285118605C088EF03C088EF01C089
:100FC00086EF0F90DF91CF910895FC01918195FFFD
:100FD000FDCF608380E090E00895FC01918199232A
:100FE000ECF7808108954F925F926F927F928F927B
:100FF0009F92AF92BF92EF92FF920F931F93CF9366
:101000007C014A015B0128013901FC01848182FFD6
:1010100016C0D901C801689412F8B695A79597959E
:1010200087951694D1F7B901A801032E36E176957C
:101030006795579547953A95D1F7302D15C0D90149
:10104000C801689413F8B695A79597958795169457
:10105000D1F7B901A801032E37E176956795579529
:1010600047953A95D1F7302D88159905AA05BB0506
:1010700008F4A6C084169506A606B70608F4A2C012
:10108000F701848182FD04C0880C991CAA1CBB1C3A
:10109000C301B201A50194010E941F282F3F310511
:1010A0004105510508F490C08FEF90E0A0E0B0E05A
:1010B000C9EF05C0281739074A075B0758F0880FA2
:1010C000991FAA1FBB1FCD3F0CF48160CF5FC730B3
:1010D00089F74FC0CC230CF04CC0D501C401880F58
:1010E000991FAA1FBB1F880F991FAA1FBB1F880F1C
:1010F000991FAA1FBB1F481A590A6A0A7B0ACE3FCA
:10110000F4F48DEF9FEF8C1B9109C7FD939504C0FC
:10111000440C551C661C771C8A95D2F7D501C40176
:10112000B695A79597958795BC01CD01640D751D62
:10113000861D971DA50194010E941F2837C083E0DA
:101140008C0FA501940104C0220F331F441F551FAB
:101150008A95D2F7DA01C901B695A7959795879533
:10116000BC01CD01640D751D861D971D0E941F28B1
:101170001DC083E08C0FA501940104C0220F331F12
:10118000441F551F8A95D2F7DA01C901B695A79574
:1011900097958795BC01CD01640D751D861D971D22
:1011A0000E941F282150310941095109832F8F7056
:1011B000C295C07FC82BF701C783268381E018C082
:1011C00080E016C080E014C0D501C401880F991FCB
:1011D000AA1FBB1F880F991FAA1FBB1F880F991F2B
:1011E000AA1FBB1F481A590A6A0A7B0AC9EF89CF8E
:1011F000CF911F910F91FF90EF90BF90AF909F9074
:101200008F907F906F905F904F9008950F931F93F2
:10121000CF93DF93EC018B01009709F4CCC0803CA5
:10122000910521F460E180E04DD8C5C0C11584E08E
:10123000D80721F464E080E045D8BDC0C038E1E0C3
:10124000DE0721F462E080E03DD8B5C0C115F1E0D1
:10125000DF0721F461E080E035D8ADC0C03883E01D
:10126000D80721F461E081E02DD8A5C0C115E2E0E6
:10127000DE0721F462E081E025D89DC0C032F3E0B2
:10128000DF0721F464E082E01DD895C0C11588E035
:10129000D80721F461E083E015D88DC0C115E9E0DD
:1012A000DE0721F461E084E00DD885C0C115FAE0C5
:1012B000DF0721F461E085E005D87DC0C03488E017
:1012C000D80729F462E083E00E94620174C0C03450
:1012D000E9E0DE0729F462E084E00E9462016BC06D
:1012E000C039F8E0DF0729F464E083E00E9462017E
:1012F00062C0C03989E0D80729F464E084E00E9424
:10130000620159C0C039EAE0DE0729F464E085E0F3
:101310000E94620150C0C03CF8E0DF0729F468E099
:1013200083E00E94620147C0C03C89E0D80729F4ED
:1013300068E084E00E9462013EC0C03AE8E0DE0757
:1013400029F460E183E00E94620135C0C03AF9E00F
:10135000DF0729F460E184E00E9462012CC0C03AFA
:101360008AE0D80729F460E185E00E94620123C089
:10137000C03BE8E0DE0729F460E283E00E946201FE
:101380001AC0C03BF9E0DF0729F460E284E00E9464
:10139000620111C0C03884E0D80729F460E483E01A
:1013A0000E94620108C0C03AE4E0DE0721F460E474
:1013B00085E00E9462018D818F738D83F801958194
:1013C0008481892B9681911198E0892B8D83F80176
:1013D000408151816281738100E814E82EE130E0A0
:1013E000CE0101DE9C8198609C839C8190619C83EE
:1013F000DF91CF911F910F910895FF920F931F934B
:10140000CF93DF93C0E0D2E0FF24F394F8821982F7
:1014100080E18A8385E08C8361E270E082E04BD8D2
:10142000082F10E0102F002760E270E082E043D820
:10143000082B0C871D87F8A288E089A3DF91CF9144
:101440001F910F91FF900895813021F488E08093DF
:1014500021020895823021F480E1809321020895D1
:10146000833021F488E180932102089580E2809303
:1014700021020895E0E0F2E080A1806880A383A1CA
:101480008823E9F3E0E0F2E013A284A195A1089596
:1014900044E60C94BE1E08952F923F924F925F92A5
:1014A0006F927F928F929F92AF92BF92CF92DF9274
:1014B000EF92FF920F931F93CF93DF93CDB7DEB7D9
:1014C000C154D109CDBFDEBF1C01CE0101960E94DF
:1014D0002C1F85E1FE013196ABE9B2E201900D923D
:1014E0008A95E1F70BE912E2F80161817281072E1A
:1014F000000C880B990B0E9442266B017C016091C5
:101500000C2070910D20072E000C880B990B0E9467
:1015100042269B01AC01C701B6010E94C6245B01B3
:101520006C01F80165857685072E000C880B990BF8
:101530000E9442262B013C01609161217091622141
:10154000072E000C880B990B0E9442269B01AC01D0
:10155000C301B2010E94C62420E030E040E057E41D
:101560000E94C62420E030E04AE755E40E944E275E
:1015700020E03FEF4FE757E40E94A72520E030E04E
:101580004AEF54E40E94C5246A8F7B8F8C8F9D8F15
:10159000F80163857485072E000C880B990B0E9457
:1015A00042262B013C016091632170916421072E3A
:1015B000000C880B990B0E9442269B01AC01C301D1
:1015C000B2010E94C62420E030E040E057E40E94CF
:1015D000C62420E030E04AE755E40E944E2720E090
:1015E0003FEF4FE757E40E94A72520E030E04AEFA5
:1015F00054E40E94C5246E8F7F8F88A399A3F801BD
:1016000061857285072E000C880B990B0E9442267B
:101610002B013C016091062070910720072E000CE1
:10162000880B990B0E9442269B01AC01C301B201B9
:101630000E94C62420E030E040E057E40E94C62427
:1016400020E030E04AE755E40E944E2720E03FEFDB
:101650004FE757E40E94A72520E030E04AEF54E42A
:101660000E94C5242B013C01F80163897489072E6F
:10167000000C880B990B0E9442266E8B7F8B888F03
:10168000998F60910E2070910F20072E000C880B0F
:10169000990B0E9442269B01AC016E897F89888D3F
:1016A000998D0E94C624DC01CB01B058BF93AF9343
:1016B0009F938F93F80167857089072E000C880B24
:1016C000990B0E9442266E8B7F8B888F998F609139
:1016D000122070911320072E000C880B990B0E948A
:1016E00042269B01AC016E897F89888D998D0E946D
:1016F000C6249F938F937F936F93F80161897289BA
:10170000072E000C880B990B0E9442266E8B7F8B54
:10171000888F998F6091102070911120072E000CF6
:10172000880B990B0E9442269B01AC016E897F8930
:10173000888D998D0E94C6249F938F937F936F937A
:10174000F80165817681072E000C880B990B0E94A9
:1017500042266E8B7F8B888F998F609108207091C5
:101760000920072E000C880B990B0E9442269B0132
:10177000AC016E897F89888D998D0E94C6249F93C4
:101780008F937F936F93F80163817481072E000C10
:10179000880B990B0E9442266E8B7F8B888F998FC6
:1017A00060910A2070910B20072E000C880B990B7A
:1017B0000E9442269B01AC016E897F89888D998D9C
:1017C0000E94C6249F938F937F936F93EA8CFB8C28
:1017D0000C8D1D8D2E8D3F8D48A159A1C301B201E5
:1017E00083D76091142070911520809116209091DC
:1017F00017202091142030911520409116205091EF
:101800001720C0907921D0907A21E0907B21F09030
:101810007C218090792190907A21A0907B21B090BA
:101820007C214090752150907621609077217090B6
:1018300078214A8E5B8E6C8E7D8E40907521509003
:10184000762160907721709078214E8E5F8E68A20D
:1018500079A2409071215090722160907321709014
:1018600074214E8A5F8A688E798E409071215090E3
:10187000722160907321709074214AA25BA26CA2C5
:101880007DA24090792150907A2160907B217090C8
:101890007C214EA25FA268A679A640907521509047
:1018A000762160907721709078214AA65BA66CA67D
:1018B0007DA64090142050901520609016207090C6
:1018C00017204EAA5FAA68AE79AE40907121509061
:1018D000722160907321709074214EA65FA668AA51
:1018E00079AA0E944E272B013C01A5019401C70152
:1018F000B6010E944E279B01AC01C301B2010E94B8
:10190000C6246B017C012E8D3F8D48A159A16A8DA3
:101910007B8D8C8D9D8D0E944E279B01AC01C70154
:10192000B6010E94C5246B017C012AA13BA14CA1F8
:101930005DA16E897F89888D998D0E944E279B01BC
:10194000AC01C701B6010E94C5246B017C012AA528
:101950003BA54CA55DA56EA17FA188A599A50E9478
:101960004E274B015C012EA53FA548A959A96EA998
:101970007FA988AD99AD0E944E279B01AC01C5019E
:10198000B4010E94C6249B01AC010E94C624A70199
:1019900096010E9450256A8F7B8F8C8F9D8F60915E
:1019A000792170917A2180917B2190917C212091E5
:1019B0007121309172214091732150917421809056
:1019C000142090901520A0901620B09017204090E1
:1019D00075215090762160907721709078210E9437
:1019E0004E276B017C01A3019201C501B4010E9445
:1019F0004E279B01AC01C701B6010E94C5249B0183
:101A0000AC010E94C6240E942A256E8F7F8F88A376
:101A100099A36091142070911520809116209091C7
:101A200017202091142030911520409116205091BC
:101A300017208090792190907A21A0907B21B090FE
:101A40007C214090792150907A2160907B21709088
:101A50007C21E0907521F090762100917721109102
:101A60007821EE8AFF8A088F198FE0907521F09017
:101A700076210091772110917821EAA2FBA20CA394
:101A80001DA3E0907121F0907221009173211091BB
:101A90007421EEA2FFA208A719A7E0907121F0908F
:101AA00072210091732110917421EAA6FBA60CA764
:101AB0001DA7E0901420F0901520009116201091A1
:101AC0001720EEA6FFA608AB19ABE0907921F090A5
:101AD0007A2100917B2110917C21EAAAFBAA0CAB10
:101AE0001DABE0907521F090762100917721109147
:101AF00078212296ECAEFDAE0EAF1FAF2297E0909C
:101B00007121F09072210091732110917421EEAA3D
:101B1000FFAA08AF19AF0E944E276B017C01A301F9
:101B20009201C501B4010E944E279B01AC01C7017F
:101B3000B6010E94C5244B015C012AA13BA14CA126
:101B40005DA16E897F89888D998D0E944E279B01AA
:101B5000AC01C501B4010E94C5244B015C012AA55A
:101B60003BA54CA55DA56EA17FA188A599A50E9466
:101B70004E279B01AC01C501B4010E94C6242B0174
:101B80003C012AA93BA94CA95DA96EA57FA588A9FE
:101B900099A90E944E274B015C012EA93FA948AD8F
:101BA00059AD22966CAD7DAD8EAD9FAD22970E9452
:101BB0004E279B01AC01C501B4010E94C6249B01C4
:101BC000AC010E94C624A30192010E9450256B0122
:101BD0007C0185E1EBE9F2E2D1011C9601900D92C6
:101BE0008A95E1F76E8D7F8D88A199A190582DEE91
:101BF0003EE245E652E40E944E27F1016083718384
:101C0000828393832DEE3EE245E652E4C701B6019E
:101C10000E944E27F10164837583868397832DEE9E
:101C20003EE245E652E46A8D7B8D8C8D9D8D0E944F
:101C30004E27F1016087718782879387CDBFDEBF12
:101C4000C101CF5BDF4FCDBFDEBFDF91CF911F91D1
:101C50000F91FF90EF90DF90CF90BF90AF909F904B
:101C60008F907F906F905F904F903F902F9008954E
:101C7000CF92DF92EF92FF920F931F938B019C0103
:101C800035952795179507950F2EFFEDCF2EF9E582
:101C9000DF2EF7E3EF2EFFE5FF2EF02DC01AD10A5D
:101CA000E20AF30A20E030E040E05FE30E944E27C2
:101CB000A70196010E944E27A70196010E944E2778
:101CC0009B01AC0160E070E080EC9FE30E94C524C2
:101CD000A70196010E944E271F910F91FF90EF9050
:101CE000DF90CF9008954F925F926F927F928F9284
:101CF0009F92AF92BF92CF92DF92EF92FF920F939B
:101D00001F93CF93DF93CDB7DEB7A497CDBFDEBFD0
:101D100069877A878B879C872D873E874F87588B6B
:101D2000E98AFA8A0B8B1C8B20E030E0A901C601FE
:101D3000B5010E94A325811117C020E030E0A90160
:101D40006FA978AD89AD9AAD0E94A32581110CC011
:101D500020E030E0A9016BAD7CAD8DAD9EAD0E9461
:101D6000A325882309F460C2A6019501C601B50127
:101D70000E944E272B013C012FA938AD49AD5AAD29
:101D8000CA01B9010E944E279B01AC01C301B201F7
:101D90000E94C6242B013C012BAD3CAD4DAD5EAD88
:101DA000CA01B9010E944E279B01AC01C301B201D7
:101DB0000E94C6245DDF2B013C019B01AC01C601E2
:101DC000B5010E944E2769837A838B839C83A3018C
:101DD00092016FA978AD89AD9AAD0E944E276D83AF
:101DE0007E838F839887A30192016BAD7CAD8DAD0F
:101DF0009EAD0E944E276D8B7E8B8F8B988F60914E
:101E0000792170917A2180917B2190917C21209180
:101E100071213091722140917321509174218090F1
:101E2000142090901520A0901620B090172040907C
:101E300075215090762160907721709078210E94D2
:101E40004E276B017C01A3019201C501B4010E94E0
:101E50004E279B01AC01C701B6010E94C524698FC2
:101E60007A8F8B8F9C8F60911420709115208091B8
:101E70001620909117202091792130917A2140915C
:101E80007B2150917C218090752190907621A090AB
:101E90007721B0907821409071215090722160900C
:101EA0007321709074210E944E276B017C01A30165
:101EB0009201C501B4010E944E279B01AC01C701EC
:101EC000B6010E94C6246D8F7E8F8F8F98A360917C
:101ED0001420709115208091162090911720209148
:101EE0001420309115204091162050911720809099
:101EF000712190907221A0907321B0907421409034
:101F000071215090722160907321709074210E9411
:101F10004E2720E030E040E05FE30E94C5246B01E3
:101F20007C01A3019201C501B4010E944E279B01CF
:101F3000AC01C701B6010E94C6246B017C019B0164
:101F4000AC016D817E818F8198850E944E274B0167
:101F50005C012D8D3E8D4F8D58A16D897E898F89B5
:101F6000988D0E944E279B01AC01C501B4010E94CF
:101F7000C52469A37AA38BA39CA3298D3A8D4B8D8D
:101F80005C8D6D897E898F89988D0E944E274B01CB
:101F90005C01A701960169817A818B819C810E94F5
:101FA0004E279B01AC01C501B4010E94C5244B0121
:101FB0005C012D8D3E8D4F8D58A169817A818B8179
:101FC0009C810E944E276B017C01298D3A8D4B8D9F
:101FD0005C8D6D817E818F8198850E944E279B014B
:101FE000AC01C701B6010E94C5246B017C01609160
:101FF0007D2170917E2180917F219091802120E030
:1020000030E0A9010E94432718160CF0ABC02091C4
:102010007D2130917E2140917F21509180214090FF
:102020006D2150906E2160906F217090702169A198
:102030007AA18BA19CA10E944E272AEF39EC44E3A0
:1020400059E30E944E27A30192010E94C624609387
:102050006D2170936E2180936F2190937021209158
:102060007D2130917E2140917F21509180214090AF
:10207000692150906A2160906B2170906C21C5019C
:10208000B4010E944E272AEF39EC44E359E30E9441
:102090004E27A30192010E94C62460936921709388
:1020A0006A2180936B2190936C2120917D21309146
:1020B0007E2140917F215091802140906521509058
:1020C00066216090672170906821C701B6010E9467
:1020D0004E272AEF39EC44E359E30E944E27A3012F
:1020E00092010E94C62460936521709366218093BB
:1020F00067219093682120916D2130916E2140914C
:102100006F215091702169857A858B859C850E940D
:10211000C62469877A878B879C87209169213091B3
:102120006A2140916B2150916C216D857E858F8550
:1021300098890E94C6246D877E878F87988B20910F
:10214000652130916621409167215091682169890C
:102150007A898B899C890E94C624698B7A8B8B8BA8
:102160009C8B18C010926D2110926E2110926F21DD
:10217000109270211092692110926A2110926B21A5
:1021800010926C21109265211092662110926721A5
:1021900010926821209118203091192040911A2026
:1021A00050911B2069A17AA18BA19CA10E944E276E
:1021B0009B01AC0169857A858B859C850E94C6242C
:1021C00069877A878B879C87209118203091192006
:1021D00040911A2050911B20C501B4010E944E2746
:1021E0009B01AC016D857E858F8598890E94C624F0
:1021F0006D877E878F87988B2091182030911920CA
:1022000040911A2050911B20C701B6010E944E2711
:102210009B01AC0169897A898B899C890E94C624BB
:10222000698B7A8B8B8B9C8B2AEF39EC44EB58E3D0
:1022300069857A858B859C850E944E2769877A8778
:102240008B879C872AEF39EC44EB58E36D857E85BC
:102250008F8598890E944E276D877E878F87988B00
:102260002AEF39EC44EB58E369897A898B899C8998
:102270000E944E27698B7A8B8B8B9C8BE09014206D
:10228000F09015200091162010911720ED82FE820B
:102290000F8318878090792190907A21A0907B21DC
:1022A000B0907C21E0907521F0907621009177210B
:1022B00010917821ED8AFE8A0F8B188F4090712142
:1022C000509072216090732170907421C0901420FE
:1022D000D0901520E0901620F0901720C501B40191
:1022E000905829853A854B855C850E944E276983E5
:1022F0007A838B839C832D893E894F89588D6D8588
:102300007E858F8598890E944E279B01AC0169814B
:102310007A818B819C810E94C52469837A838B8317
:102320009C83A301920169897A898B899C890E9487
:102330004E279B01AC0169817A818B819C810E942F
:10234000C524A70196010E94C624609314207093AF
:102350001520809316209093172040907121509063
:1023600072216090732170907421C0907921D09077
:102370007A21E0907B21F0907C212D813E814F815C
:10238000588569857A858B859C850E944E2769834F
:102390007A838B839C832D893E894F89588D6989E7
:1023A0007A898B899C890E944E279B01AC016981A7
:1023B0007A818B819C810E94C62469837A838B8376
:1023C0009C83A30192016D857E858F8598890E94EB
:1023D0004E279B01AC0169817A818B819C810E948F
:1023E000C524A70196010E94C624609379217093A9
:1023F0007A2180937B2190937C2140907121509091
:1024000072216090732170907421C0907521D090DA
:102410007621E0907721F09078212D813E814F81C7
:1024200058856D857E858F8598890E944E276983A2
:102430007A838B839C83A501940169897A898B892E
:102440009C890E944E279B01AC0169817A818B8116
:102450009C810E94C52469837A838B839C83A3011A
:10246000920169857A858B859C850E944E279B0108
:10247000AC0169817A818B819C810E94C624A7016D
:1024800096010E94C62460937521709376218093F3
:10249000772190937821C0907121D0907221E090A3
:1024A0007321F09074212D813E814F815885698977
:1024B0007A898B899C890E944E272B013C01A501BA
:1024C00094016D857E858F8598890E944E279B019A
:1024D000AC01C301B2010E94C6244B015C012D89ED
:1024E0003E894F89588D69857A858B859C850E94A8
:1024F0004E279B01AC01C501B4010E94C524A70170
:1025000096010E94C624609371217093722180937A
:102510007321909374216091142070911520809103
:102520001620909117202091142030911520409171
:102530001620509117208090792190907A21A090B8
:102540007B21B0907C214090792150907A2160903D
:102550007B2170907C21E0907521F0907621009194
:10256000772110917821E986FA860B871C87E09005
:102570007521F09076210091772110917821ED86D8
:10258000FE860F87188BE0907121F09072210091E8
:10259000732110917421E982FA820B831C83E090ED
:1025A0007121F09072210091732110917421E98AB8
:1025B000FA8A0B8B1C8B0E944E276B017C01A301B6
:1025C0009201C501B4010E944E279B01AC01C701D5
:1025D000B6010E94C6244B015C012D853E854F85C6
:1025E000588969857A858B859C850E944E279B0139
:1025F000AC01C501B4010E94C6244B015C012989CC
:102600003A894B895C8969817A818B819C810E949E
:102610004E279B01AC01C501B4010E94C62428DBF2
:102620006B017C01209114203091152040911620DF
:10263000509117200E944E2760931420709315200C
:1026400080931620909317202091792130917A2140
:1026500040917B2150917C21C701B6010E944E27F9
:102660006093792170937A2180937B2190937C21D0
:1026700020917521309176214091772150917821D8
:10268000C701B6010E944E27609375217093762191
:10269000809377219093782120917121309172213C
:1026A0004091732150917421C701B6010E944E27B9
:1026B00060937121709372218093732190937421A0
:1026C000A496CDBFDEBFDF91CF911F910F91FF90F8
:1026D000EF90DF90CF90BF90AF909F908F907F90C2
:1026E0006F905F904F9008952F923F924F925F921C
:1026F0006F927F928F929F92AF92BF92CF92DF9212
:10270000EF92FF920F931F93CF93DF93CDB7DEB776
:10271000C855D109CDBFDEBF698B7A8B8B8B9C8B63
:10272000298F3A8F4B8F5C8FE982FA820B831C834F
:10273000AE96FFACAE97AF96EFACAF97E0969FAC7E
:10274000E097E1968FACE197E2961FADE297E396B2
:102750000FADE397E4963FACE497E5962FACE59791
:1027600020E030E0A901E9966CAD7DAD8EAD9FAD66
:10277000E9970E94A325811134C020E030E0A9012F
:10278000ED966CAD7DAD8EAD9FADED970E94A3250E
:10279000811127C020E030E0A901C358DF4F6881D4
:1027A00079818A819B81CD57D0400E94A3258111D8
:1027B00018C02F923F920F931F938F929F92EF9288
:1027C000FF92E980FA800B811C81298D3A8D4B8D17
:1027D0005C8D69897A898B899C8985DACDBFDEBF5A
:1027E000A4C720E030E0A901C601B5010E94A325DD
:1027F000811117C020E030E0A9016F2D7E2D892DB9
:10280000982D0E94A32581110CC020E030E0A90181
:10281000612F702F832D922D0E94A325882309F408
:1028200037C5A6019501C601B5010E944E272B01AF
:102830003C012F2D3E2D492D582D6F2D7E2D892D9C
:10284000982D0E944E279B01AC01C301B2010E944A
:10285000C6242B013C01212F302F432D522D612FF7
:10286000702F832D922D0E944E279B01AC01C30136
:10287000B2010E94C624FCD92B013C019B01AC0192
:10288000C601B5010E944E276DAB7EAB8FAB98AFF2
:10289000A30192016F2D7E2D892D982D0E944E2728
:1028A00069AF7AAF8BAF9CAFA3019201612F702FFC
:1028B000832D922D0E944E2721966CAF7DAF8EAF57
:1028C0009FAF2197E9962CAD3DAD4EAD5FADE99739
:1028D000CA01B9010E944E276B017C01ED962CAD17
:1028E0003DAD4EAD5FADED97CA01B9010E944E27D7
:1028F0009B01AC01C701B6010E94C6246B017C019B
:10290000C358DF4F288139814A815B81CD57D04040
:10291000CA01B9010E944E279B01AC01C701B60153
:102920000E94C624A5D96B017C019B01AC01E996EC
:102930006CAD7DAD8EAD9FADE9970E944E276D8346
:102940007E838F839887A7019601ED966CAD7DAD50
:102950008EAD9FADED970E944E2769877A878B8752
:102960009C87A7019601C358DF4F688179818A81CE
:102970009B81CD57D0400E944E276D877E878F87E1
:10298000988B4090142050901520609016207090E5
:102990001720E0901420F09015200091162010913F
:1029A00017206996ECAEFDAE0EAF1FAF6997609130
:1029B000142070911520809116209091172020915D
:1029C000792130917A2140917B2150917C210E9484
:1029D0004E2769A37AA38BA39CA3609114207091C6
:1029E000152080911620909117202091752130910B
:1029F000762140917721509178210E944E276D8F4A
:102A00007E8F8F8F98A360911420709115208091F4
:102A100016209091172020917121309172214091C0
:102A20007321509174210E944E276D8B7E8B8F8B6A
:102A3000988FC0907921D0907A21E0907B21F090FE
:102A40007C218091792190917A21A0917B21B09174
:102A50007C2189AB9AABABABBCAB60917921709117
:102A60007A2180917B2190917C2120917521309158
:102A7000762140917721509178210E944E2769A7B5
:102A80007AA78BA79CA76091792170917A21809178
:102A90007B2190917C212091712130917221409174
:102AA0007321509174210E944E276DA77EA78FA796
:102AB00098AB6091752170917621809177219091EA
:102AC0007821209175213091762140917721509184
:102AD00078210E944E2725966CAF7DAF8EAF9FAFB9
:102AE0002597609175217091762180917721909141
:102AF0007821209171213091722140917321509160
:102B000074210E944E2729966CAF7DAF8EAF9FAF88
:102B10002997609171217091722180917321909118
:102B20007421209171213091722140917321509133
:102B300074210E944E276DA37EA38FA398A725968C
:102B40002CAD3DAD4EAD5FAD259760E070E080E00F
:102B50009FE30E94C5242DA13EA14FA158A50E942C
:102B6000C5242D966CAF7DAF8EAF9FAF2D972D896D
:102B70003E894F89588D69A57AA58BA59CA50E9491
:102B8000C52461966CAF7DAF8EAF9FAF61972DA5C9
:102B90003EA54FA558A96D8D7E8D8F8D98A10E9461
:102BA000C62465966CAF7DAF8EAF9FAF65972D96AF
:102BB0002CAD3DAD4EAD5FAD2D976D817E818F818A
:102BC00098850E944E274B015C0161962CAD3DAD6E
:102BD0004EAD5FAD619769857A858B859C850E9436
:102BE0004E279B01AC01C501B4010E94C6244B01D4
:102BF0005C0165962CAD3DAD4EAD5FAD65976D85C5
:102C00007E858F8598890E944E279B01AC01C50166
:102C1000B4010E94C6249B01AC010E94C6244B0152
:102C20005C0129A93AA94BA95CA9C701B6010E9478
:102C30004E279B01AC0160E070E080E09FE30E94C2
:102C4000C52469AB7AAB8BAB9CAB29A53AA54BA548
:102C50005CA56D897E898F89988D0E94C6242D81FF
:102C60003E814F8158850E944E276B017C012DA12A
:102C70003EA14FA158A569A97AA98BA99CA90E9438
:102C8000C52429853A854B855C850E944E279B018A
:102C9000AC01C701B6010E94C6246B017C0129A1C9
:102CA0003AA14BA15CA129966CAD7DAD8EAD9FADD7
:102CB00029970E94C5242D853E854F8558890E94FD
:102CC0004E279B01AC01C701B6010E94C6249B019F
:102CD000AC010E94C6246B017C01A5019401C501D1
:102CE000B4010E944E276D8B7E8B8F8B988FA50130
:102CF0009401C501B4010E944E274B015C01A7015C
:102D00009601C701B6010E944E279B01AC01C50187
:102D1000B4010E94C6240E94B5274B015C012D8D91
:102D20003E8D4F8D58A16DA57EA58FA598A90E94B7
:102D3000C5246D8F7E8F8F8F98A329962CAD3DADC6
:102D40004EAD5FAD299769A17AA18BA19CA10E948C
:102D5000C62469A37AA38BA39CA325962CAD3DAD75
:102D60004EAD5FAD259769A97AA98BA99CA90E9450
:102D7000C5246D8B7E8B8F8B988F2D8D3E8D4F8DC7
:102D800058A16D817E818F8198850E944E276B01AD
:102D90007C0129A13AA14BA15CA169857A858B852B
:102DA0009C850E944E279B01AC01C701B6010E9481
:102DB000C6246B017C012D893E894F89588D6D8514
:102DC0007E858F8598890E944E279B01AC01C701A3
:102DD000B6010E94C6249B01AC010E94C6246B016F
:102DE0007C0169962CAD3DAD4EAD5FAD6997C301D9
:102DF000B2010E944E2720E030E040E05FE30E94F5
:102E0000C5242DA13EA14FA158A50E94C6246DA3A3
:102E10007EA38FA398A7A50194012D966CAD7DADDF
:102E20008EAD9FAD2D970E944E272B013C01A7012F
:102E300096016D8D7E8D8F8D98A10E944E279B01EE
:102E4000AC01C301B2010E94C62469A77AA78BA76F
:102E50009CA7A501940161966CAD7DAD8EAD9FAD33
:102E600061970E944E272B013C01A701960169A1A1
:102E70007AA18BA19CA10E944E279B01AC01C301AA
:102E8000B2010E94C6246DA77EA78FA798ABA501AB
:102E9000940165966CAD7DAD8EAD9FAD65970E943A
:102EA0004E272B013C01A70196016D897E898F89F0
:102EB000988D0E944E279B01AC01C301B2010E9474
:102EC000C6246B017C012DA13EA14FA158A569AD7F
:102ED0007AAD8BAD9CAD0E944E274B015C0129A1C0
:102EE0003AA14BA15CA121966CAD7DAD8EAD9FAD9D
:102EF00021970E944E279B01AC01C501B4010E949D
:102F0000C5244B015C01A701960169857A858B85F3
:102F10009C850E944E272B013C012DA53EA54FA567
:102F200058A96D857E858F8598890E944E279B01C3
:102F3000AC01C301B2010E94C5249B01AC01C501D3
:102F4000B4010E94C6246D8B7E8B8F8B988F2D8D44
:102F50003E8D4F8D58A121966CAD7DAD8EAD9FAD50
:102F600021970E944E274B015C012DA13EA14FA14C
:102F700058A56DA97EA98FA998AD0E944E279B01E7
:102F8000AC01C501B4010E94C5244B015C0129A517
:102F90003AA54BA55CA56D857E858F8598890E9495
:102FA0004E272B013C01A70196016D817E818F8107
:102FB00098850E944E279B01AC01C301B2010E947B
:102FC000C5249B01AC01C501B4010E94C6244B017C
:102FD0005C0129A13AA14BA15CA16DA97EA98FA991
:102FE00098AD0E944E276B017C012D8D3E8D4F8D3B
:102FF00058A169AD7AAD8BAD9CAD0E944E279B0167
:10300000AC01C701B6010E94C5246B017C012DA54E
:103010003EA54FA558A96D817E818F8198850E941C
:103020004E272B013C0129A53AA54BA55CA5698536
:103030007A858B859C850E944E279B01AC01C3013C
:10304000B2010E94C5249B01AC01C701B6010E94D8
:10305000C6246B017C0160917D2170917E2180915D
:103060007F219091802120E030E0A9010E94432738
:1030700018160CF0ABC020917D2130917E2140913B
:103080007F215091802140906D2150906E21609061
:103090006F21709070216D897E898F89988D0E9433
:1030A0004E272AEF39EC44E359E30E944E27A3014F
:1030B00092010E94C62460936D2170936E218093CB
:1030C0006F219093702120917D2130917E2140913C
:1030D0007F21509180214090692150906A21609019
:1030E0006B2170906C21C501B4010E944E272AEF1C
:1030F00039EC44E359E30E944E27A30192010E9458
:10310000C6246093692170936A2180936B21909308
:103110006C2120917D2130917E2140917F21509121
:1031200080214090652150906621609067217090C9
:103130006821C701B6010E944E272AEF39EC44E30B
:1031400059E30E944E27A30192010E94C624609376
:103150006521709366218093672190936821209167
:103160006D2130916E2140916F21509170216989BC
:103170007A898B899C890E94C624698B7A8B8B8B78
:103180009C8B2091692130916A2140916B21509153
:103190006C21698D7A8D8B8D9C8D0E94C624698FE0
:1031A0007A8F8B8F9C8F2091652130916621409181
:1031B00067215091682169817A818B819C810E946D
:1031C000C62469837A838B839C8318C010926D21F7
:1031D00010926E2110926F2110927021109269212D
:1031E00010926A2110926B2110926C21109265212D
:1031F0001092662110926721109268212091182068
:103200003091192040911A2050911B206D897E89A0
:103210008F89988D0E944E279B01AC0169897A891C
:103220008B899C890E94C624698B7A8B8B8B9C8BA3
:10323000209118203091192040911A2050911B2084
:10324000C501B4010E944E279B01AC01698D7A8DA6
:103250008B8D9C8D0E94C624698F7A8F8B8F9C8F5B
:10326000209118203091192040911A2050911B2054
:10327000C701B6010E944E279B01AC0169817A818A
:103280008B819C810E94C62469837A838B839C8373
:103290002AEF39EC44EB58E369897A898B899C8958
:1032A0000E944E276D837E838F8398872AEF39ECA7
:1032B00044EB58E3698D7A8D8B8D9C8D0E944E274F
:1032C00069877A878B879C872AEF39EC44EB58E330
:1032D00069817A818B819C810E944E276D877E87D0
:1032E0008F87988BE0901420F09015200091162085
:1032F00010911720E98AFA8A0B8B1C8B8090792118
:1033000090907A21A0907B21B0907C21E090752153
:10331000F09076210091772110917821E98EFA8E34
:103320000B8F1C8F409071215090722160907321FF
:1033300070907421C0901420D0901520E090162039
:10334000F0901720C501B40190582D813E814F8126
:1033500058850E944E2769837A838B839C83298DAD
:103360003A8D4B8D5C8D69857A858B859C850E9415
:103370004E279B01AC0169817A818B819C810E94DF
:10338000C52469837A838B839C83A30192016D8515
:103390007E858F8598890E944E279B01AC016981AB
:1033A0007A818B819C810E94C524A70196010E948D
:1033B000C624609314207093152080931620909358
:1033C000172040907121509072216090732170906D
:1033D0007421C0907921D0907A21E0907B21F090E7
:1033E0007C2129893A894B895C896D817E818F8115
:1033F00098850E944E2769837A838B839C83298DCD
:103400003A8D4B8D5C8D6D857E858F8598890E9468
:103410004E279B01AC0169817A818B819C810E943E
:10342000C62469837A838B839C83A3019201698577
:103430007A858B859C850E944E279B01AC01698112
:103440007A818B819C810E94C524A70196010E94EC
:10345000C6246093792170937A2180937B21909385
:103460007C21409071215090722160907321709066
:103470007421C0907521D0907621E0907721F09052
:10348000782129893A894B895C8969857A858B8578
:103490009C850E944E2769837A838B839C83A50138
:1034A00094016D857E858F8598890E944E279B01AA
:1034B000AC0169817A818B819C810E94C5246983DA
:1034C0007A838B839C83A30192016D817E818F819E
:1034D00098850E944E279B01AC0169817A818B817E
:1034E0009C810E94C624A70196010E94C624609375
:1034F0007521709376218093772190937821C090E5
:103500007121D0907221E0907321F090742129896B
:103510003A894B895C896D857E858F8598890E9463
:103520004E272B013C01A501940169857A858B8585
:103530009C850E944E279B01AC01C301B2010E94F1
:10354000C6244B015C01298D3A8D4B8D5C8D6D81BC
:103550007E818F8198850E944E279B01AC01C50119
:10356000B4010E94C524A70196010E94C62460935D
:1035700071217093722180937321909374216091D3
:103580001420709115208091162090911720209181
:1035900014203091152040911620509117208090D2
:1035A000792190907A21A0907B21B0907C2140904D
:1035B000792150907A2160907B2170907C21E0905D
:1035C0007521F09076210091772110917821ED827C
:1035D000FE820F831887E0907521F090762100918C
:1035E000772110917821E986FA860B871C87E09075
:1035F0007121F09072210091732110917421E98260
:10360000FA820B831C83E0907121F090722100916B
:10361000732110917421ED86FE860F87188B0E940E
:103620004E276B017C01A3019201C501B4010E94E8
:103630004E279B01AC01C701B6010E94C6244B0175
:103640005C0129853A854B855C856D817E818F8102
:1036500098850E944E279B01AC01C501B4010E94D0
:10366000C6244B015C012D853E854F8558896981B3
:103670007A818B819C810E944E279B01AC01C50100
:10368000B4010E94C6240E94380E6B017C01209177
:1036900014203091152040911620509117200E943F
:1036A0004E276093142070931520809316209093DA
:1036B00017202091792130917A2140917B215091DE
:1036C0007C21C701B6010E944E2760937921709337
:1036D0007A2180937B2190937C21209175213091D8
:1036E00076214091772150917821C701B6010E943F
:1036F0004E27609375217093762180937721909364
:103700007821209171213091722140917321509143
:103710007421C701B6010E944E27609371217093F6
:1037200072218093732190937421C85ADF4FCDBFCB
:10373000DEBFDF91CF911F910F91FF90EF90DF904F
:10374000CF90BF90AF909F908F907F906F905F9041
:103750004F903F902F90089504C0615071098109E6
:1037600091096115710581059105B9F708950F93C8
:103770001F938B019C01642F70E088EE93E00E9400
:103780000B28ECE1F0E288E6808389E1818381E027
:1037900090E08087918761506093932140E0BF0162
:1037A000C8010E9481071F910F9108959F92AF92C7
:1037B000BF92CF92DF92EF92FF920F931F93CF931E
:1037C000DF936B017C01CCE1D0E20F2EF8E69F2E57
:1037D000F02D98828AE18983AA24A394B12CA8862B
:1037E000B98603E911E282E0F801808340E0BE017E
:1037F000C6010E94810798828BE18983A886B986D9
:1038000088E1F801808340E0BE01C6010E94810783
:10381000DF91CF911F910F91FF90EF90DF90CF90AC
:10382000BF90AF909F9008959F92AF92BF92CF921A
:10383000DF92EF92FF920F931F93CF93DF936B0171
:103840007C01CCE1D0E20F2EF8E69F2EF02D98827D
:103850008CE18983AA24A394B12CA886B98603E9B4
:1038600011E288E1F801808340E0BE01C6010E94B8
:10387000810798828DE18983A886B98682E0F80164
:10388000808340E0BE01C6010E948107DF91CF9195
:103890001F910F91FF90EF90DF90CF90BF90AF906E
:1038A0009F9008952F923F924F925F926F927F92D6
:1038B0008F929F92AF92BF92CF92DF92EF92FF9240
:1038C0000F931F93CF93DF936B017C01CCE1D0E288
:1038D0000F2EF8E69F2EF02D98820F2EF5E26F2E18
:1038E000F02D6982AA24A394B12CA886B98603E995
:1038F00011E20F2EFCE04F2EF02DF801408240E047
:10390000BE01C6010E94810798820F2EF6E27F2E2B
:10391000F02D7982A886B9860F2EFAE05F2EF02D61
:10392000F801508240E0BE01C6010E9481079882E2
:103930000F2EF3E63F2EF02D3982A886B9868FE14F
:10394000F801808340E0BE01C6010E948107988291
:103950000F2EF7E28F2EF02D8982A886B98681E896
:10396000F801808340E0BE01C6010E9481076BE040
:103970007AE180E090E0F0DE98826982A886B986DC
:103980008CE8F801808340E0BE01C6010E948107F7
:1039900098827982A886B9866894222424F8F8014E
:1039A000208240E0BE01C6010E9481079882898280
:1039B000A886B98683E8F801808340E0BE01C6018D
:1039C0000E9481076BE07AE180E090E0C5DE98829A
:1039D00089E4898384E090E08887998741E0BE018B
:1039E000C6010E948107F801608170E080E090E0EC
:1039F0000E94402620E030E040E053E4C6D720E0BB
:103A000030E040E85BE30E944E2720E030E040E8F1
:103A10005FE3BCD76093892170938A2180938B21C7
:103A200090938C21F801618170E080E090E00E9429
:103A3000402620E030E040E053E4A7D720E030E02B
:103A400040E85BE30E944E2720E030E040E85FE37F
:103A50009DD76093852170938621809387219093D1
:103A60008821F801628170E080E090E00E944026A9
:103A700020E030E040E053E488D720E030E040E848
:103A80005BE30E944E2720E030E040E85FE37ED712
:103A9000609381217093822180938321909384216C
:103AA00098826982A886B986F801408240E0BE010A
:103AB000C6010E94810798827982A886B986F8019A
:103AC000508240E0BE01C6010E948107988239827F
:103AD000A886B986F801208240E0BE01C6010E9496
:103AE000810798828982A886B98681E8F801808357
:103AF00040E0BE01C6010E9481076BE07AE180E0F0
:103B000090E02ADEDF91CF911F910F91FF90EF900F
:103B1000DF90CF90BF90AF909F908F907F906F90ED
:103B20005F904F903F902F9008954F925F926F92C9
:103B30007F928F929F92AF92BF92CF92DF92EF923D
:103B4000FF920F931F93CF93DF936B017C01CCE126
:103B5000D0E20F2EF8E69F2EF02D988284E2898322
:103B6000AA24A394B12CA886B98603E911E28DECAE
:103B7000F801808340E0BE01C6010E94810798825F
:103B800087E68983A886B9860F2EF1E86F2EF02D7F
:103B9000F801608240E0BE01C6010E948107988260
:103BA0008AE68983A886B98680E2F801808340E0AE
:103BB000BE01C6010E94810798820F2EF5E25F2E9A
:103BC000F02D5982A886B9868CE0F801808340E008
:103BD000BE01C6010E94810798820F2EF6E27F2E59
:103BE000F02D7982A886B9868BE0F801808340E0C9
:103BF000BE01C6010E94810798820F2EF3E64F2E68
:103C0000F02D4982A886B98681E0F801808340E0E2
:103C1000BE01C6010E94810798820F2EF7E28F2E07
:103C2000F02D8982A886B986F801608240E0BE0145
:103C3000C6010E94810766E07DE080E090E08CDDB7
:103C4000C701B6012FDE98827982A886B9868AE0FC
:103C5000F801808340E0BE01C6010E94810798827E
:103C60004982A886B98686E1F801808340E0BE01DA
:103C7000C6010E94810798828982A886B986F801C8
:103C8000608240E0BE01C6010E94810766E07DE0DF
:103C900080E090E061DD98825982A886B9868CE840
:103CA000F801808340E0BE01C6010E94810798822E
:103CB0007982A886B98683E0F801808340E0BE015E
:103CC000C6010E94810798828982A886B98687E802
:103CD000F801808340E0BE01C6010E948107DF91A8
:103CE000CF911F910F91FF90EF90DF90CF90BF90F9
:103CF000AF909F908F907F906F905F904F900895BE
:103D00009F92AF92BF92CF92DF92EF92FF920F936A
:103D10001F93CF93DF936B017C01CCE1D0E20F2E98
:103D2000F8E69F2EF02D988287E38983AA24A39436
:103D3000B12CA886B98603E911E280E1F8018083FD
:103D400040E0BE01C6010E948107988288E3898312
:103D5000A886B98681E0F801808340E0BE01C601F3
:103D60000E948107DF91CF911F910F91FF90EF90FB
:103D7000DF90CF90BF90AF909F9008957F928F92E9
:103D80009F92AF92BF92CF92DF92EF92FF920F93EA
:103D90001F93CF93DF936B017C01742ECCE1D0E2B3
:103DA0000F2EF8E69F2EF02D98820F2EFBE68F2E19
:103DB000F02D8982AA24A394B12CA886B98603E9A0
:103DC00011E280E8F801808340E0BE01C6010E9454
:103DD000810766E372E880E090E0BEDC9882898229
:103DE000A886B98688248394F801808240E0BE01C9
:103DF000C6010E94810798828CE68983A886B986CD
:103E0000F801108240E0BE01C6010E948107C7018F
:103E1000B601CCDCC701B60107DD472DC701B601ED
:103E2000A6DCC701B6016CDFC701B6017EDEE0E6A5
:103E3000F6E081E1808B828683E08187DF91CF91FC
:103E40001F910F91FF90EF90DF90CF90BF90AF90B8
:103E50009F908F907F9008954F925F926F927F9284
:103E60008F929F92AF92BF92CF92DF92EF92FF928A
:103E70000F931F93CF93DF93CDB7DEB76897CDBF76
:103E8000DEBF8C01DB01CA01ECE1F0E228E6208311
:103E90002AE3218326E130E02087318741E0BF011A
:103EA0000E948107C0902720D0902820E0902920F0
:103EB000F0902A206091942170E0762F66278091FF
:103EC0009521680F711D072E000C880B990BDAD60F
:103ED000A70196013CD6A3D669837A838B839C8302
:103EE000C0902720D0902820E0902920F0902A2010
:103EF0006091962170E0762F662780919721680F58
:103F0000711D072E000C880B990BBCD6A7019601DA
:103F10001ED685D66D837E838F839887C090272099
:103F2000D0902820E0902920F0902A2060919821BC
:103F300070E0762F662780919921680F711D072EFA
:103F4000000C880B990B9ED6A701960100D667D668
:103F500069877A878B879C87C0902B20D0902C20F4
:103F6000E0902D20F0902E2060919C2170E0762F23
:103F7000662780919D21680F711D072E000C880B0C
:103F8000990B80D6A7019601E2D549D66D877E8729
:103F90008F87988BC0902B20D0902C20E0902D20E4
:103FA000F0902E2060919E2170E0762F6627809100
:103FB0009F21680F711D072E000C880B990B62D68C
:103FC000A7019601C4D52BD6698B7A8B8B8B9C8BE2
:103FD000C0902B20D0902C20E0902D20F0902E200F
:103FE0006091A02170E0762F66278091A121680F53
:103FF000711D072E000C880B990B44D6A701960162
:10400000A6D50DD66D8B7E8B8F8B988FC090892116
:10401000D0908A21E0908B21F0908C216091A32197
:1040200070E0762F66278091A221680F711D072E00
:10403000000C880B990B26D6A70196012FD720E0FC
:1040400030E040EC50E42AD7EAD52B013C01C09087
:104050008521D0908621E0908721F0908821609181
:10406000A52170E0762F66278091A421680F711D2D
:10407000072E000C880B990B05D6A70196010ED7C9
:1040800020E030E040EC50E409D7C9D54B015C0199
:10409000C0908121D0908221E0908321F0908421F2
:1040A0006091A72170E0762F66278091A621680F86
:1040B000711D072E000C880B990BE4D5A701960102
:1040C000EDD620E030E040EC50E4E8D6A8D56B0116
:1040D0007C0160919A2170E0762F662780919B2168
:1040E000680F711D072E000C880B990BCBD523E4AC
:1040F0003DEA45E550E42BD592D56C5C774FE3E97A
:10410000F1E28081F801808389819A8181839283A1
:104110008D819E818383948389859A858583968307
:10412000678370878D859E858187928789899A8923
:10413000838794878D899E89858796874786508A4D
:10414000818A928AC38AD48AC8016896CDBFDEBFAD
:10415000DF91CF911F910F91FF90EF90DF90CF9063
:10416000BF90AF909F908F907F906F905F904F9097
:1041700008951F920F920FB60F9211248F939F9361
:10418000AF93BF9381E0809392218093912180919E
:104190008D2190918E21A0918F21B0919021019637
:1041A000A11DB11D80938D2190938E21A0938F210D
:1041B000B0939021BF91AF919F918F910F900FBEBF
:1041C0000F901F901895CF93DF93EB010E94ED079E
:1041D0008883DF91CF9108950C94E5070895CF93DC
:1041E000DF93CDB7DEB72797CDBFDEBF60E184E0B8
:1041F0000E946201E0E6F6E080818860808380EAC8
:1042000099E080939722909398228CEE90E280938D
:1042100095229093962283EE90E28093932290933E
:104220009422E6E3F0E284818D8385818E8386810A
:104230008F8380819181A281B38189839A83AB83AB
:10424000BC8360E184E00E946201BE016F5F7F4F2A
:1042500080EA99E00E94060968E771E081E991E04F
:1042600010D72796CDBFDEBFDF91CF9108950F9372
:104270001F93CF93DF93CDB7DEB72797CDBFDEBFB8
:1042800060E183E00E94620100EA18E00093972257
:10429000109398228CEE90E2809395229093962230
:1042A00083EE90E28093932290939422EFE2F0E2E7
:1042B00084818D8385818E8386818F8380819181A6
:1042C000A281B38189839A83AB83BC8360E183E05D
:1042D0000E946201BE016F5F7F4F80EA98E00E94FA
:1042E000060968E771E081E991E0CBD6F8018381A6
:1042F00080618383E0EAF0E0828181608283279697
:10430000CDBFDEBFDF91CF911F910F91089504C003
:104310006150710981099109611571058105910546
:10432000B9F70895009709F4D5C0803C910529F4A8
:1043300060E180E00C9462010895811524E0920709
:1043400029F464E080E00C9462010895803821E053
:10435000920729F462E080E00C94620108958115CF
:1043600021E0920729F461E080E00C946201089555
:10437000803823E0920729F461E081E00C94620127
:104380000895811522E0920729F462E081E00C94FF
:1043900062010895803223E0920729F464E082E00C
:1043A0000C9462010895811528E0920729F461E0D8
:1043B00083E00C9462010895811529E0920729F4A5
:1043C00061E084E00C946201089581152AE092076F
:1043D00029F461E085E00C9462010895803428E0BE
:1043E000920729F462E083E00C946201089580341E
:1043F00029E0920729F462E084E00C9462010895B8
:10440000803928E0920729F464E083E00C9462018B
:104410000895803929E0920729F464E084E00C943F
:104420006201089580392AE0920729F464E085E06A
:104430000C9462010895803C28E0920729F468E01A
:1044400083E00C9462010895803C29E0920729F4EE
:1044500068E084E00C9462010895803A28E09207B5
:1044600029F460E183E00C9462010895803A29E028
:10447000920729F460E184E00C9462010895803A87
:104480002AE0920729F460E185E00C946201089526
:10449000803B28E0920729F460E283E00C946201FB
:1044A0000895803B29E0920729F460E284E00C94AF
:1044B00062010895803824E0920729F460E483E0E3
:1044C0000C9462010895803A944021F460E485E000
:1044D0000C9462010895FC01F395408151819A0189
:1044E0002F5F3F4F34960190F081E02D2E173F074C
:1044F00010F020E030E0FC01EE5FFE4F0190F08113
:10450000E02DE217F30759F0FC01E40FF51F60837B
:10451000FC01F3952083318380E090E008958FEFD4
:104520009FEF0895FC01EE5FFE4F208131813297AD
:104530004081518142175307E9F0A9014F5F5F4F56
:1045400034960190F081E02D4E175F0718F4A42FE8
:10455000452F02C0A0E040E0FC01E20FF31F2081E4
:10456000FB012083FC01EE5FFE4FA083418380E0CE
:1045700090E008958FEF9FEF08951F920F920FB66E
:104580000F9211242F933F934F935F936F937F93D9
:104590008F939F93AF93BF93EF93FF936091A00886
:1045A00082E093E298DFFF91EF91BF91AF919F91ED
:1045B0008F917F916F915F914F913F912F910F90CC
:1045C0000FBE0F901F901895CF93DF93CDB7DEB736
:1045D000C854D109CDBFDEBF10920224109203242B
:1045E000109204241092052480E091E08093062428
:1045F000909307240E94510166E07DE080E090E006
:1046000086DE0E94520164E083E00E94620180E045
:1046100092E088DE0E94FD092ADEE1DD6BE07AE1AE
:1046200080E090E074DE78946BE674E081E090E0E6
:104630006EDE0F2EF9E0DF2EF02D8E010F5F1F4F83
:10464000D801ED2D1D92EA95E9F780E89AE1A6E000
:10465000B0E089839A83AB83BC8383E290E0A0E0DF
:10466000B0E08D839E83AF83B88780EA94E05ADE02
:104670007E01FAE0EF0EF11CD7011D92DA94E9F702
:1046800080E593ECA0E0B0E08A879B87AC87BD878C
:1046900080E58A8B8FE090E0A0E0B0E08E879F8776
:1046A000A88BB98B80EA94E03DDEB70180EA94E004
:1046B0000E946C07B80180EA94E00E946C07E0EA6F
:1046C000F4E081818860818360EA74E080E090E0BA
:1046D0000E94480A00E216E00F2EF7E0FF2EF02DB0
:1046E000F801F0828DE390E22ED5D8011496FC9269
:1046F00076DDC12CD12C812C912C54010F2EF7E0AA
:104700002F2EF02D0F2EF0EBEF2EF2E2FF2EF02DDC
:104710002092240666E875E481E090E0F8DDC1149B
:10472000D10411F41092240666E875E481E090E06B
:10473000EEDD40EA54E060E070E0CE0143960E9476
:104740004C0A8B899C89AD89BE8929968CAF9DAF17
:10475000AEAFBFAF29978F89988DA98DBA8D21965D
:104760008CAF9DAFAEAFBFAF21978B8D9C8DAD8DC4
:10477000BE8D25968CAF9DAFAEAFBFAF25970F2EE8
:10478000F0EB6F2EF2E27F2EF02D11E0812F0E94D0
:10479000240A63E876E080E090E0B9DD0E943A0AFE
:1047A000D3018D939D933D011F5F153079F717DD80
:1047B00025966CAD7DAD8EAD9FAD259730D22B018A
:1047C0003C0121966CAD7DAD8EAD9FAD219727D27A
:1047D0006DAB7EAB8FAB98AF29966CAD7DAD8EADDA
:1047E0009FAD29971CD269AF7AAF8BAF9CAFF70111
:1047F00087818F9386818F9385818F9384818F9317
:1048000083818F9382818F9381818F9380818F9316
:104810008FA18F938EA18F938BA98F938AA98F934A
:1048200089A98F9388A98F938FA58F938EA58F9336
:104830008DA58F938CA58F938BA58F938AA58F932E
:1048400089A58F9388A58F938DA18F938CA18F932A
:104850008BA18F938AA18F9389A18F9388A18F9326
:10486000B201052C000C880B990B0CD29B01AC01FA
:1048700025966CAD7DAD8EAD9FAD259786D020E0A1
:1048800030E04AE754E40AD3CAD19B01772324F4E9
:1048900022273327261B370B3F932F935F924F928C
:1048A0002DA93EA9B901330F880B990BEBD19B01C0
:1048B000AC0121966CAD7DAD8EAD9FAD219765D0DD
:1048C00020E030E04AE754E4E9D2A9D19B01772304
:1048D00024F422273327261B370B3F932F933EA91F
:1048E0003F938DA98F93A9ADBAADBD01BB0F880BC6
:1048F000990BC8D19B01AC0129966CAD7DAD8EADF5
:104900009FAD299742D020E030E04AE754E4C6D278
:1049100086D19B01772324F422273327261B370BCC
:104920003F932F93BAADBF93E9ADEF93BF92AF9290
:104930009F928F9228EC30E23F932F93ECD3CDBF20
:10494000DEBF00E010E00FC08CA9082E000C990B10
:10495000F5D30F5F1F4F91E080E00B3F11050CF482
:1049600090E0C92ED82EBE016C5C7F4F82E093E2AE
:10497000D9DD892B49F38AE090E0E0D378DCBFEF02
:104980008B1A9B0AAB0ABB0AC3CE5058BB27AA2777
:104990000ED03FC230D230F035D220F031F49F3FFC
:1049A00011F41EF4EFC10EF4E095E7FBE5C1E92F29
:1049B00041D280F3BA17620773078407950718F08E
:1049C00071F49EF559C20EF4E0950B2EBA2FA02D6E
:1049D0000B01B90190010C01CA01A0011124FF27AC
:1049E000591B99F0593F50F4503E68F11A16F040A7
:1049F000A22F232F342F4427585FF3CF46953795A6
:104A00002795A795F0405395C9F77EF41F16BA0B6A
:104A1000620B730B840BBAF09150A1F0FF0FBB1F18
:104A2000661F771F881FC2F70EC0BA0F621F731F61
:104A3000841F48F4879577956795B795F7959E3FBE
:104A400008F0B3CF9395880F08F09927EE0F97954C
:104A5000879508959F939F77EEE389379E0720F40B
:104A6000ECEFF1E0B7D109C048D19058A2EA2AEDA5
:104A70003FE049EC5FE39BDFCCD10F9007FC9058FF
:104A80000895B9D158F080E891E009F49EEFBAD1C9
:104A900028F040E851E059F45EEF09C073C1ECC161
:104AA000E92FE078C7D168F3092E052AC1F326174C
:104AB00037074807590738F00E2E07F8E02569F048
:104AC000E025E0640AC0EF6307F8009407FADB0111
:104AD000B9019D01DC01CA01AD01EF9347D099D125
:104AE0000AD05F91552331F02BED3FE049E450FDB2
:104AF00049EC4CCF0895DF93DD27B92FBF7740E80D
:104B00005FE31616170648075B0710F4D92FBFD1CD
:104B10009F938F937F936F9366D2E0E1F2E035D15C
:104B200078D12F913F914F915F91C4D1DD2349F00E
:104B30009058A2EA2AED3FE049EC5FE3D0785D2788
:104B400036DFDF9166C1F4D008F481E008950CD01F
:104B500060C158D140F04FD130F021F45F3F19F0DF
:104B60000BC151118AC10EC165D198F39923C9F3C4
:104B70005523B1F3951B550BBB27AA276217730763
:104B8000840738F09F5F5F4F220F331F441FAA1F17
:104B9000A9F333D00E2E3AF0E0E830D091505040D7
:104BA000E695001CCAF729D0FE2F27D0660F771F85
:104BB000881FBB1F261737074807AB07B0E809F067
:104BC000BB0B802DBF01FF2793585F4F2AF09E3FFC
:104BD000510568F0D1C051C15F3FECF3983EDCF362
:104BE000869577956795B795F7959F5FC9F7880F75
:104BF000911D9695879597F90895E1E0660F771FC7
:104C0000881FBB1F621773078407BA0720F0621B57
:104C1000730B840BBA0BEE1F88F7E095089504D050
:104C20006894B1112AC108950DD188F09F5790F072
:104C3000B92F9927B751A0F0D1F0660F771F881FC1
:104C4000991F1AF0BA95C9F712C0B13081F014D18A
:104C5000B1E0089511C1672F782F8827B85F39F028
:104C6000B93FCCF3869577956795B395D9F73EF420
:104C700090958095709561957F4F8F4F9F4F0895C8
:104C8000E89409C097FB3EF49095809570956195E6
:104C90007F4F8F4F9F4F9923A9F0F92F96E9BB279C
:104CA0009395F695879577956795B795F111F8CF18
:104CB000FAF4BB0F11F460FF1BC06F5F7F4F8F4F83
:104CC0009F4F16C0882311F096E911C0772321F079
:104CD0009EE8872F762F05C0662371F096E8862F11
:104CE00070E060E02AF09A95660F771F881FDAF768
:104CF000880F9695879597F90895DF93CF931F9323
:104D00000F938B01EC01EDE3F2E03FD082D09801EC
:104D1000AE018B01EC0160E070E080E89FE335DEDE
:104D200024D19801AE010F911F91CF91DF91C2C0A4
:104D3000990F0008550FAA0BE0E8FEEF16161706AC
:104D4000E807F907C0F012161306E407F50798F014
:104D5000621B730B840B950B39F40A2661F0232B2D
:104D6000242B252B21F408950A2609F4A140A695A9
:104D70008FEF811D811D089597F99F6780E870E08E
:104D800060E008959FEF80EC0895DF93CF931F9329
:104D90000F93FF92EF92DF927B018C01689405C024
:104DA000DA2EEF0187D0FE01E894A5912591359187
:104DB00045915591AEF3EF01FADDFE019701A8018F
:104DC000DA9479F7DF90EF90FF900F911F91CF91D8
:104DD000DF9108959F938F937F936F93FF93EF934A
:104DE0009B01AC015BD0EF91FF91CFDF2F913F9101
:104DF0004F915F9153C000240A94161617061806A7
:104E00000906089500240A941216130614060506CE
:104E10000895092E0394000C11F4882352F0BB0F5F
:104E200040F4BF2B11F460FF04C06F5F7F4F8F4FC2
:104E30009F4F089557FD9058440F551F59F05F3FFD
:104E400071F04795880F97FB991F61F09F3F79F0AC
:104E500087950895121613061406551FF2CF46952E
:104E6000F1DF08C0161617061806991FF1CF8695B0
:104E70007105610508940895E894BB276627772794
:104E8000CB0197F9089554DF08F48FEF08959B0143
:104E9000AC0160E070E080E89FE359CE0BD0B9CF61
:104EA000AADF28F0AFDF18F0952309F065CF6ACFAD
:104EB0001124E3CFBFDFA0F3959FD1F3950F50E00E
:104EC000551F629FF001729FBB27F00DB11D639FBC
:104ED000AA27F00DB11DAA1F649F6627B00DA11D62
:104EE000661F829F2227B00DA11D621F739FB00D08
:104EF000A11D621F839FA00D611D221F749F332778
:104F0000A00D611D231F849F600D211D822F762F10
:104F10006A2F11249F5750408AF0E1F088234AF00D
:104F2000EE0FFF1FBB1F661F771F881F9150504059
:104F3000A9F79E3F510570F01FCF9FCF5F3FECF365
:104F4000983EDCF3869577956795B795F795E79545
:104F50009F5FC1F7FE2B880F911D9695879597F956
:104F6000089511F40EF40ECF41C06CDFD0F39923F5
:104F7000D9F3CEF39F57550B87FF46D00024A0E608
:104F800040EA900180585695979528F4805C660F0A
:104F9000771F881F20F026173707480730F4621B59
:104FA000730B840B202931294A2BA695179407945B
:104FB000202531254A2758F7660F771F881F20F0D4
:104FC00026173707480730F4620B730B840B200D4C
:104FD000311D411DA09581F7B901842F9158880F8B
:104FE0009695879508959B01AC0158CF9F3F31F06E
:104FF000915020F4879577956795B795880F911D07
:105000009695879597F9089591505040660F771FB0
:10501000881FD2F70895AA1BBB1B51E107C0AA1F26
:10502000BB1FA617B70710F0A61BB70B881F991F49
:105030005A95A9F780959095BC01CD010895A1E2FC
:105040001A2EAA1BBB1BFD010DC0AA1FBB1FEE1F02
:10505000FF1FA217B307E407F50720F0A21BB30B4D
:10506000E40BF50B661F771F881F991F1A9469F7C9
:1050700060957095809590959B01AC01BD01CF0125
:1050800008950F931F93CF93DF93009731F4611529
:10509000710519F480E090E039C08B01EC016EE0FD
:1050A00070E081E090E051D2FC01892B99F380E817
:1050B00083830115110571F00287138781E88383CB
:1050C00080911C2590911D25892B21F4E0931C25AE
:1050D000F0931D252097C9F0C087D1878381826016
:1050E000838380911E2590911F25892B71F4E09375
:1050F0001E25F0931F258091202590912125892B35
:1051000021F4E0932025F0932125CF01DF91CF9169
:105110001F910F910895A0E0B0E0E0E9F8E217C414
:10512000AE014B5F5F4FFA0161917191AF018091C8
:105130001E2590911F2537D0E2E022C460911E25E4
:1051400070911F255AC30F931F93CF93DF93E09164
:105150001E25F0911F25238121FF1BC08C01D0E06B
:10516000C0E0F80181918F0160911E2570911F258B
:10517000DB011896ED91FC911997882331F0099580
:10518000892B79F3DFEFCFEFECCF8AE00995892BFC
:1051900019F08FEF9FEF02C08D2F9C2FDF91CF91E1
:1051A0001F910F910895ABE0B0E0E8EDF8E2BFC3C6
:1051B0006C017B018A01FC0116821782838181FFC9
:1051C000BFC1CE0101963C01F6019381F70193FD29
:1051D000859193FF81917F01882309F4ADC18532C8
:1051E00039F493FD859193FF81917F01853221F4FC
:1051F000B60190E002D3E8CF912C212C312CFFE1B5
:10520000F315D8F08B3279F038F4803279F08332AC
:10521000A1F4232D20611DC08D3261F0803369F42B
:10522000232D216016C0832D8260382EE32DE4608B
:105230003E2E2AC0F32DF8601DC037FC2DC020ED96
:10524000280F2A3040F08E32B9F436FC75C1232D78
:105250002064322E19C036FE06C08AE0989E200DCA
:105260001124922E11C0EAE02E9E200D1124222E30
:10527000F32DF0623F2E08C08C3621F4832D806818
:10528000382E02C0883641F4F70193FD859193FFD3
:1052900081917F018111B3CF982F9F7D95549330D9
:1052A00028F40C5F1F4F9FE399830DC0833631F0C4
:1052B000833771F0833509F055C020C0F801808133
:1052C00089830E5F1F4F88248394912C530112C051
:1052D0002801F2E04F0E511CF801A080B18036FE8B
:1052E00003C0692D70E002C06FEF7FEFC5017AD275
:1052F0004C018201F32DFF773F2E15C0280122E0DB
:10530000420E511CF801A080B18036FE03C0692D09
:1053100070E002C06FEF7FEFC50152D24C01F32D58
:10532000F0683F2E820133FC19C0822D90E0881670
:105330009906A0F4B60180E290E05FD22A94F5CFFE
:10534000F50137FC859137FE81915F01B60190E050
:1053500054D221102A9421E0821A910881149104D8
:1053600079F7E1C0843611F0893639F5F80137FE56
:1053700007C060817181828193810C5F1F4F08C0DB
:1053800060817181072E000C880B990B0E5F1F4FF7
:10539000F32DFF763F2E97FF09C09095809570956D
:1053A00061957F4F8F4F9F4FF0683F2E2AE030E08E
:1053B000A3015FD2882E861844C0853731F4232D8F
:1053C0002F7EB22E2AE030E025C0932D997FB92E92
:1053D0008F36C1F018F4883579F0AEC0803719F0F7
:1053E000883721F0A9C0E92FE061BE2EB4FE0DC0C0
:1053F000FB2DF460BF2E09C034FE0AC0292F2660A1
:10540000B22E06C028E030E005C020E130E002C046
:1054100020E132E0F801B7FE07C06081718182812E
:1054200093810C5F1F4F06C06081718180E090E026
:105430000E5F1F4FA3011DD2882E8618FB2DFF770C
:105440003F2E36FE0DC0232D2E7FA22E891458F438
:1054500034FE0BC032FC09C0832D8E7EA82E05C001
:10546000B82CA32C03C0B82C01C0B92CA4FE0FC0CB
:10547000FE01E80DF11D8081803321F49A2D997E83
:10548000A92E09C0A2FE06C0B394B39404C08A2D0D
:10549000867809F0B394A3FC10C0A0FE06C0B21435
:1054A00080F4280C922C9B180DC0B21458F4B6014D
:1054B00080E290E0A2D1B394F8CFB21418F42B1884
:1054C00002C0982C212CA4FE0FC0B60180E390E00E
:1054D00094D1A2FE16C0A1FC03C088E790E002C0F0
:1054E00088E590E0B6010CC08A2D867851F0A1FEC7
:1054F00002C08BE201C080E2A7FC8DE2B60190E021
:105500007CD1891430F4B60180E390E076D19A948E
:10551000F8CF8A94F301E80DF11D8081B60190E087
:105520006CD18110F6CF222009F44ECEB60180E274
:1055300090E063D12A94F7CFF6018681978102C06B
:105540008FEF9FEF2B96E2E10BC20F931F93CF9348
:10555000DF93869F8001879F100D969F100D112469
:10556000C8010DD0EC01009721F0A80160E070E0C7
:1055700032D1CE01DF91CF911F910F9108950F93FA
:105580001F93CF93DF938230910510F482E090E077
:10559000E0912425F091252520E030E0A0E0B0E066
:1055A000309719F1408151810281138148175907C1
:1055B000C8F08417950769F4109731F012960C9390
:1055C000129713961C9327C000932425109325252A
:1055D00022C02115310519F04217530718F49A011A
:1055E000BD01EF01DF01F801DBCF21153105F9F035
:1055F000281B390B2430310580F48A819B81611589
:10560000710521F0FB018283938304C080932425DC
:1056100090932525FE01329644C0FE01E20FF31F50
:105620008193919322503109288339833AC0209184
:10563000222530912325232B41F420910220309103
:1056400003202093222530932325209100203091A0
:1056500001202115310541F42DB73EB740910420BA
:1056600050910520241B350BE0912225F091232534
:10567000E217F307A0F42E1B3F0B2817390778F029
:10568000AC014E5F5F4F2417350748F04E0F5F1F88
:1056900040932225509323258193919302C0E0E00B
:1056A000F0E0CF01DF91CF911F910F910895CF933B
:1056B000DF93009709F481C0FC01329712821382B4
:1056C000A0912425B0912525109781F42081318166
:1056D000820F931F20912225309123252817390707
:1056E00051F5E0932225F093232567C0ED0120E0DA
:1056F00030E0CE17DF0740F44A815B819E014115FF
:105700005105F1F0EA01F5CFC283D3834081518185
:10571000840F951FC817D90759F488819981840F80
:10572000951F0296808391838A819B8182839383D4
:105730002115310529F4E0932425F09325253DC05A
:10574000E901EA83FB8349915991C40FD51FEC17F6
:10575000FD0761F480819181840F951F0296E90114
:1057600088839983828193818A839B83E0E0F0E040
:1057700012968D919C911397009719F0FD01DC0111
:10578000F7CF8D919C9111979D012E5F3F4F820F16
:10579000931F20912225309123252817390769F47A
:1057A000309729F4109224251092252502C01282E8
:1057B0001382A0932225B0932325DF91CF910895E2
:1057C000FC010590615070400110D8F780959095CC
:1057D0008E0F9F1F0895DC0101C06D934150504012
:1057E000E0F70895FC016150704001900110D8F776
:1057F000809590958E0F9F1F08950F931F93CF93C1
:10580000DF93FB01238121FD03C08FEF9FEF2CC0AD
:1058100022FF16C0468157812481358142175307E4
:1058200044F4A081B1819D012F5F3F4F20833183DC
:105830008C93268137812F5F3F4F2683378314C097
:105840008B01EC01FB010084F185E02D0995892B8A
:10585000E1F6D80116968D919C91179701961696B0
:105860008D939C931797CE01DF91CF911F910F914C
:105870000895FA01AA27283051F1203181F1E894E6
:105880006F936E7F6E5F7F4F8F4F9F4FAF4FB1E033
:105890003ED0B4E03CD0670F781F891F9A1FA11D2E
:1058A000680F791F8A1F911DA11D6A0F711D811D2F
:1058B000911DA11D20D009F468943F912AE0269FF4
:1058C00011243019305D3193DEF6CF010895462F53
:1058D0004770405D4193B3E00FD0C9F7F6CF462F34
:1058E0004F70405D4A3318F0495D31FD405241939D
:1058F00002D0A9F7EACFB4E0A6959795879577955A
:105900006795BA95C9F700976105710508959B01E0
:10591000AC010A2E06945795479537952795BA9569
:10592000C9F7620F731F841F951FA01D08952F9242
:105930003F924F925F926F927F928F929F92AF921F
:10594000BF92CF92DF92EF92FF920F931F93CF936C
:10595000DF93CDB7DEB7CA1BDB0BCDBFDEBF09942B
:105960002A88398848885F846E847D848C849B84EF
:10597000AA84B984C884DF80EE80FD800C811B81FD
:10598000AA81B981CE0FD11DCDBFDEBFED01089533
:04599000F894FFCFB9
:1059940000002625200006001CFD0EFFDCFE430A45
:1059A4009401C1FE0000803F0000C8436804000069
:1059B400010093210100006F1203400000803F802A
:1059C40025000003000100C20100030001506163CF
:1059D4006B657420232C20202050697463682C206C
:1059E400202020526F6C6C2C2020202020596177BD
:1059F4002C2020416363582C2020416363592C20C0
:105A0400204163635A2C204779726F582C204779C0
:105A1400726F592C204779726F5A2C20204D616780
:105A2400582C20204D6167592C20204D61675A2C39
:105A3400494D5554656D702C48505354656D702C08
:105A440045585454656D702C42415454656D702C06
:105A5400504D5454656D700025386C752C25336495
:105A64002E253033642C2533642E253033642C25C5
:105A740033642E253033642C2535642C2535642C71
:105A84002535642C2535642C2535642C2535642C6A
:105A94002535642C2535642C2535642C2535642C5A
:105AA4002535642C2535642C2535642C2535640A6C
:025AB4000000F0
:00000001FF
