:1000000032C100004DC100004BC1000049C10000D9
:1000100047C1000045C1000043C1000041C10000CC
:100020003FC100003DC100003BC1000039C10000DC
:1000300037C100000BC7000048C200006FC20000BB
:1000400096C20000BDC20000E4C200000BC3000065
:1000500032C3000059C3000080C30000A7C30000E2
:100060001FC100000C9437231BC1000019C1000000
:1000700017C1000015C1000013C1000011C100002C
:100080000FC100000DC100000BC1000009C100003C
:1000900007C1000005C1000003C1000001C100004C
:1000A000FFC00000FDC00000FBC00000F9C0000060
:1000B000F7C00000F5C00000ECC600003AC5000023
:1000C00061C5000088C50000AFC50000D6C50000AE
:1000D000FDC50000E5C00000E3C00000E1C0000075
:1000E000DFC00000DDC00000DBC00000D9C00000A0
:1000F000D7C00000D5C00000D3C00000D1C00000B0
:100100000C94D620CDC00000CBC00000C9C00000B8
:10011000C7C00000C5C00000C3C0000014C100007B
:1001200040C100006CC1000098C10000B9C00000CF
:10013000B7C0000064C300008BC30000B2C300005E
:10014000D9C3000000C4000027C400004EC4000052
:1001500075C400009CC40000C3C40000A1C000001E
:100160009FC000009DC000009BC0000099C000001F
:1001700097C0000095C0000093C0000091C000002F
:100180008FC000008DC000008BC0000089C000003F
:1001900087C0000085C0000083C0000081C000004F
:1001A0007FC000007DC000007BC0000079C000005F
:1001B00077C0000075C0000073C0000071C000006F
:1001C0006FC000006DC000006BC0000069C000007F
:1001D00067C0000065C0000063C0000061C000008F
:1001E0005FC000005DC000005BC0000059C000009F
:1001F00057C0000055C0000053C00000036EDB363E
:100200003D9A9999993DABAAAA2A3E000000803FE9
:10021000084AD73B3BCE016E84BCBFFDC12F3D6C6D
:1002200074319ABD56833DDA3D00C77F11BED9E4D3
:10023000BB4C3E916BAAAABE000000803F072C7AFF
:10024000A5BA6CC590DA3B9365FC8BBC53F810FDE6
:100250003C5692834DBD879D3AB63DCBC9BF5BBE30
:1002600073DA0FC93F0011241FBECFEFCDBFDFE20D
:10027000DEBF11E2A0E0B0E2ECEEFDE502C00590C9
:100280000D92A839B107D9F72CE2A8E9B1E201C073
:100290001D92AC39B207E1F70E945E230C94F42E54
:1002A000AFCE08958FEF809370008093710080939C
:1002B0007200809373008093740080937500809324
:1002C00076000895CF93DF931F92CDB7DEB79FB727
:1002D0009983F8949981E82FF0E0E059FF4F6095F9
:1002E0008081682360839FBF0F90DF91CF91089535
:1002F000CF93DF931F92CDB7DEB780910D239091FE
:100300000E23E0910923F0910A23BE016F5F7F4F16
:1003100009958981082E000C990B0F90DF91CF91E0
:100320000895682F80910D2390910E23E0910B2367
:10033000F0910C23099599231CF081E090E0089539
:100340008FEF9FEF08951F920F920FB60F92112417
:100350002F933F934F935F936F937F938F939F93CD
:10036000AF93BF93EF93FF934091240250912502E6
:10037000E0910F23F091102361E080E092E0099575
:10038000FF91EF91BF91AF919F918F917F916F916D
:100390005F914F913F912F910F900FBE0F901F9043
:1003A00018951F920F920FB60F9211242F933F931F
:1003B0004F935F936F937F938F939F93AF93BF936D
:1003C000EF93FF9340912C0250912D02E0910F2367
:1003D000F091102362E080E092E00995FF91EF91A7
:1003E000BF91AF919F918F917F916F915F914F914D
:1003F0003F912F910F900FBE0F901F9018951F9255
:100400000F920FB60F9211242F933F934F935F9348
:100410006F937F938F939F93AF93BF93EF93FF93CC
:100420004091340250913502E0910F23F091102356
:1004300064E080E092E00995FF91EF91BF91AF9168
:100440009F918F917F916F915F914F913F912F91EC
:100450000F900FBE0F901F9018951F920F920FB61E
:100460000F9211242F933F934F935F936F937F933A
:100470008F939F93AF93BF93EF93FF9340913C0271
:1004800050913D02E0910F23F091102368E080E04D
:1004900092E00995FF91EF91BF91AF919F918F915C
:1004A0007F916F915F914F913F912F910F900FBE70
:1004B0000F901F9018954091CA01E62FF72F809357
:1004C000CA0184914093CA0108951F920F920FB6FA
:1004D0000F9211242F933F934F935F936F937F93CA
:1004E0008F939F93AF93BF93EF93FF93E091CA21B4
:1004F000F091CB21309709F00995FF91EF91BF91D1
:10050000AF919F918F917F916F915F914F913F91AB
:100510002F910F900FBE0F901F9018951F920F9262
:100520000FB60F9211242F933F934F935F936F93C6
:100530007F938F939F93AF93BF93EF93FF93E0913C
:10054000C821F091C921309709F00995FF91EF91E9
:10055000BF91AF919F918F917F916F915F914F91DB
:100560003F912F910F900FBE0F901F9018951F92E3
:100570000F920FB60F9211242F933F934F935F93D7
:100580006F937F938F939F93AF93BF93EF93FF935B
:10059000E091C621F091C721309709F00995FF91AC
:1005A000EF91BF91AF919F918F917F916F915F91EB
:1005B0004F913F912F910F900FBE0F901F90189564
:1005C0001F920F920FB60F9211242F933F934F93C8
:1005D0005F936F937F938F939F93AF93BF93EF93AB
:1005E000FF93E091C421F091C521309709F009955E
:1005F000FF91EF91BF91AF919F918F917F916F91FB
:100600005F914F913F912F910F900FBE0F901F90D0
:1006100018951F920F920FB60F9211242F933F93AC
:100620004F935F936F937F938F939F93AF93BF93FA
:10063000EF93FF93E091C221F091C321309709F02D
:100640000995FF91EF91BF91AF919F918F917F910C
:100650006F915F914F913F912F910F900FBE0F902F
:100660001F9018951F920F920FB60F9211242F937F
:100670003F934F935F936F937F938F939F93AF932A
:10068000BF93EF93FF93E091C021F091C121309788
:1006900009F00995FF91EF91BF91AF919F918F91D3
:1006A0007F916F915F914F913F912F910F900FBE6E
:1006B0000F901F9018951F920F920FB60F92112452
:1006C0002F933F934F935F936F937F938F939F935A
:1006D000AF93BF93EF93FF93E091BE21F091BF21C1
:1006E000309709F00995FF91EF91BF91AF919F91DC
:1006F0008F917F916F915F914F913F912F910F90CB
:100700000FBE0F901F9018951F920F920FB60F9269
:1007100011242F933F934F935F936F937F938F9306
:100720009F93AF93BF93EF93FF93E091BC21F09120
:10073000BD21309709F00995FF91EF91BF91AF91DD
:100740009F918F917F916F915F914F913F912F91E9
:100750000F900FBE0F901F9018951F920F920FB61B
:100760000F9211242F933F934F935F936F937F9337
:100770008F939F93AF93BF93EF93FF93E091BA2131
:10078000F091BB21309709F00995FF91EF91BF914E
:10079000AF919F918F917F916F915F914F913F9119
:1007A0002F910F900FBE0F901F9018951F920F92D0
:1007B0000FB60F9211242F933F934F935F936F9334
:1007C0007F938F939F93AF93BF93EF93FF93E091AA
:1007D000B821F091B921309709F00995FF91EF9177
:1007E000BF91AF919F918F917F916F915F914F9149
:1007F0003F912F910F900FBE0F901F9018951F9251
:100800000F920FB60F9211242F933F934F935F9344
:100810006F937F938F939F93AF93BF93EF93FF93C8
:10082000E091B621F091B721309709F00995FF9139
:10083000EF91BF91AF919F918F917F916F915F9158
:100840004F913F912F910F900FBE0F901F901895D1
:100850001F920F920FB60F9211242F933F934F9335
:100860005F936F937F938F939F93AF93BF93EF9318
:10087000FF93E091B421F091B521309709F00995EB
:10088000FF91EF91BF91AF919F918F917F916F9168
:100890005F914F913F912F910F900FBE0F901F903E
:1008A00018951F920F920FB60F9211242F933F931A
:1008B0004F935F936F937F938F939F93AF93BF9368
:1008C000EF93FF93E091B221F091B321309709F0BB
:1008D0000995FF91EF91BF91AF919F918F917F917A
:1008E0006F915F914F913F912F910F900FBE0F909D
:1008F0001F9018951F920F920FB60F9211242F93ED
:100900003F934F935F936F937F938F939F93AF9397
:10091000BF93EF93FF93E091B021F091B121309715
:1009200009F00995FF91EF91BF91AF919F918F9140
:100930007F916F915F914F913F912F910F900FBEDB
:100940000F901F9018951F920F920FB60F921124BF
:100950002F933F934F935F936F937F938F939F93C7
:10096000AF93BF93EF93FF93E091AE21F091AF214E
:10097000309709F00995FF91EF91BF91AF919F9149
:100980008F917F916F915F914F913F912F910F9038
:100990000FBE0F901F9018951F920F920FB60F92D7
:1009A00011242F933F934F935F936F937F938F9374
:1009B0009F93AF93BF93EF93FF93E091AC21F0919E
:1009C000AD21309709F00995FF91EF91BF91AF915B
:1009D0009F918F917F916F915F914F913F912F9157
:1009E0000F900FBE0F901F9018951F920F920FB689
:1009F0000F9211242F933F934F935F936F937F93A5
:100A00008F939F93AF93BF93EF93FF93E091AA21AE
:100A1000F091AB21309709F00995FF91EF91BF91CB
:100A2000AF919F918F917F916F915F914F913F9186
:100A30002F910F900FBE0F901F9018951F920F923D
:100A40000FB60F9211242F933F934F935F936F93A1
:100A50007F938F939F93AF93BF93EF93FF93E09117
:100A6000A821F091A921309709F00995FF91EF9104
:100A7000BF91AF919F918F917F916F915F914F91B6
:100A80003F912F910F900FBE0F901F9018951F92BE
:100A90000F920FB60F9211242F933F934F935F93B2
:100AA0006F937F938F939F93AF93BF93EF93FF9336
:100AB000E091A621F091A721309709F00995FF91C7
:100AC000EF91BF91AF919F918F917F916F915F91C6
:100AD0004F913F912F910F900FBE0F901F9018953F
:100AE0001F920F920FB60F9211242F933F934F93A3
:100AF0005F936F937F938F939F93AF93BF93EF9386
:100B0000FF93E091A421F091A521309709F0099578
:100B1000FF91EF91BF91AF919F918F917F916F91D5
:100B20005F914F913F912F910F900FBE0F901F90AB
:100B300018951F920F920FB60F9211242F933F9387
:100B40004F935F936F937F938F939F93AF93BF93D5
:100B5000EF93FF93E091A221F091A321309709F048
:100B60000995FF91EF91BF91AF919F918F917F91E7
:100B70006F915F914F913F912F910F900FBE0F900A
:100B80001F9018951F920F920FB60F9211242F935A
:100B90003F934F935F936F937F938F939F93AF9305
:100BA000BF93EF93FF93E091A021F091A1213097A3
:100BB00009F00995FF91EF91BF91AF919F918F91AE
:100BC0007F916F915F914F913F912F910F900FBE49
:100BD0000F901F9018951F920F920FB60F9211242D
:100BE0002F933F934F935F936F937F938F939F9335
:100BF000AF93BF93EF93FF93E0919E21F0919F21DC
:100C0000309709F00995FF91EF91BF91AF919F91B6
:100C10008F917F916F915F914F913F912F910F90A5
:100C20000FBE0F901F9018951F920F920FB60F9244
:100C300011242F933F934F935F936F937F938F93E1
:100C40009F93AF93BF93EF93FF93E0919C21F0911B
:100C50009D21309709F00995FF91EF91BF91AF91D8
:100C60009F918F917F916F915F914F913F912F91C4
:100C70000F900FBE0F901F9018951F920F920FB6F6
:100C80000F9211242F933F934F935F936F937F9312
:100C90008F939F93AF93BF93EF93FF93E0919A212C
:100CA000F0919B21309709F00995FF91EF91BF9149
:100CB000AF919F918F917F916F915F914F913F91F4
:100CC0002F910F900FBE0F901F9018951F920F92AB
:100CD0000FB60F9211242F933F934F935F936F930F
:100CE0007F938F939F93AF93BF93EF93FF93E09185
:100CF0009821F0919921309709F00995FF91EF9192
:100D0000BF91AF919F918F917F916F915F914F9123
:100D10003F912F910F900FBE0F901F901895CF937A
:100D2000DF93E091CC21F091CD21848183FF08C035
:100D30008860848383E0838386EF8093D62183C099
:100D4000982F947131F083E083838FEF8093D621C5
:100D50007AC086FF43C0CCECD1E2AA81BB818C81F2
:100D60009D8114962D913C911597821793076CF4F1
:100D70009C012F5F3F4F2093D0213093D121A80FAA
:100D8000B91F11968C9187835EC08091D22190917A
:100D9000D32118962D913C91199782179307C8F487
:100DA0002091D421222321F08681816086834BC04B
:100DB00016962D913C911797AC014F5F5F4F409372
:100DC000D2215093D321D901A80FB91F8C918783C9
:100DD0003AC083E083831092D62135C0882384F5FE
:100DE000ACECB1E21296CD91DC91139716968D91F1
:100DF0009C9117972885398582179307D8F46E81BF
:100E00007F819C012F5F3F4F2093D2213093D321CC
:100E10004781DB01A80FB91F4C9388859985281756
:100E2000390718F482E083830EC087E08383109231
:100E3000D62109C083E0838389EF8093D62103C044
:100E40008BEF8093D621DF91CF9108951F920F925F
:100E50000FB60F9211242F933F934F935F936F938D
:100E60007F938F939F93AF93BF93EF93FF9357DF3E
:100E7000FF91EF91BF91AF919F918F917F916F9172
:100E80005F914F913F912F910F900FBE0F901F9048
:100E900018951F920F920FB60F9211242F933F9324
:100EA0004F935F936F937F938F939F93AF93BF9372
:100EB000EF93FF9334DFFF91EF91BF91AF919F913B
:100EC0008F917F916F915F914F913F912F910F90F3
:100ED0000FBE0F901F901895FC01DB0114968C91AA
:100EE000858388EB818381E08483ECECF1E21186D9
:100EF0001286E0EAF0E0828182608283789480E06A
:100F00000895CF93DF931F92CDB7DEB79C01FB010D
:100F1000892B09F451C0309709F450C09285809113
:100F2000D521882319F09923F1F34AC08FB789831B
:100F3000F8948981ACECB1E291E019969C931997F1
:100F400090E81A969C931A978FBF2D933C93119714
:100F500012966D937C93139714961D921C9215977D
:100F600016961D921C92179718964C938081880FA5
:100F700064817581672B11F4411103C0F9018683E7
:100F800003C08160F9018683ECECF1E29285903830
:100F9000E9F3F90184818370813049F0ACECB1E26E
:100FA000ED91FC911197848183708130C9F7ECEC4D
:100FB000F1E28285118605C088EF03C088EF01C089
:100FC00086EF0F90DF91CF910895FC01918195FFFD
:100FD000FDCF608380E090E00895FC01918199232A
:100FE000ECF7808108954F925F926F927F928F927B
:100FF0009F92AF92BF92EF92FF920F931F93CF9366
:101000007C014A015B0128013901FC01848182FFD6
:1010100016C0D901C801689412F8B695A79597959E
:1010200087951694D1F7B901A801032E36E176957C
:101030006795579547953A95D1F7302D15C0D90149
:10104000C801689413F8B695A79597958795169457
:10105000D1F7B901A801032E37E176956795579529
:1010600047953A95D1F7302D88159905AA05BB0506
:1010700008F4A6C084169506A606B70608F4A2C012
:10108000F701848182FD04C0880C991CAA1CBB1C3A
:10109000C301B201A50194010E944B2A2F3F3105E3
:1010A0004105510508F490C08FEF90E0A0E0B0E05A
:1010B000C9EF05C0281739074A075B0758F0880FA2
:1010C000991FAA1FBB1FCD3F0CF48160CF5FC730B3
:1010D00089F74FC0CC230CF04CC0D501C401880F58
:1010E000991FAA1FBB1F880F991FAA1FBB1F880F1C
:1010F000991FAA1FBB1F481A590A6A0A7B0ACE3FCA
:10110000F4F48DEF9FEF8C1B9109C7FD939504C0FC
:10111000440C551C661C771C8A95D2F7D501C40176
:10112000B695A79597958795BC01CD01640D751D62
:10113000861D971DA50194010E944B2A37C083E0AC
:101140008C0FA501940104C0220F331F441F551FAB
:101150008A95D2F7DA01C901B695A7959795879533
:10116000BC01CD01640D751D861D971D0E944B2A83
:101170001DC083E08C0FA501940104C0220F331F12
:10118000441F551F8A95D2F7DA01C901B695A79574
:1011900097958795BC01CD01640D751D861D971D22
:1011A0000E944B2A2150310941095109832F8F7028
:1011B000C295C07FC82BF701C783268381E018C082
:1011C00080E016C080E014C0D501C401880F991FCB
:1011D000AA1FBB1F880F991FAA1FBB1F880F991F2B
:1011E000AA1FBB1F481A590A6A0A7B0AC9EF89CF8E
:1011F000CF911F910F91FF90EF90BF90AF909F9074
:101200008F907F906F905F904F9008950F931F93F2
:10121000CF93DF93EC018B01009709F4CCC0803CA5
:10122000910521F460E180E04DD8C5C0C11584E08E
:10123000D80721F464E080E045D8BDC0C038E1E0C3
:10124000DE0721F462E080E03DD8B5C0C115F1E0D1
:10125000DF0721F461E080E035D8ADC0C03883E01D
:10126000D80721F461E081E02DD8A5C0C115E2E0E6
:10127000DE0721F462E081E025D89DC0C032F3E0B2
:10128000DF0721F464E082E01DD895C0C11588E035
:10129000D80721F461E083E015D88DC0C115E9E0DD
:1012A000DE0721F461E084E00DD885C0C115FAE0C5
:1012B000DF0721F461E085E005D87DC0C03488E017
:1012C000D80729F462E083E00E94620174C0C03450
:1012D000E9E0DE0729F462E084E00E9462016BC06D
:1012E000C039F8E0DF0729F464E083E00E9462017E
:1012F00062C0C03989E0D80729F464E084E00E9424
:10130000620159C0C039EAE0DE0729F464E085E0F3
:101310000E94620150C0C03CF8E0DF0729F468E099
:1013200083E00E94620147C0C03C89E0D80729F4ED
:1013300068E084E00E9462013EC0C03AE8E0DE0757
:1013400029F460E183E00E94620135C0C03AF9E00F
:10135000DF0729F460E184E00E9462012CC0C03AFA
:101360008AE0D80729F460E185E00E94620123C089
:10137000C03BE8E0DE0729F460E283E00E946201FE
:101380001AC0C03BF9E0DF0729F460E284E00E9464
:10139000620111C0C03884E0D80729F460E483E01A
:1013A0000E94620108C0C03AE4E0DE0721F460E474
:1013B00085E00E9462018D818F738D83F801958194
:1013C0008481892B9681911198E0892B8D83F80176
:1013D000408151816281738100E814E82EE130E0A0
:1013E000CE0101DE9C8198609C839C8190619C83EE
:1013F000DF91CF911F910F910895FF920F931F934B
:10140000CF93DF93C0E0D2E0FF24F394F8821982F7
:1014100080E18A8385E08C8361E270E082E04BD8D2
:10142000082F10E0102F002760E270E082E043D820
:10143000082B0C871D87F8A288E089A3DF91CF9144
:101440001F910F91FF900895813021F488E08093DF
:1014500021020895823021F480E1809321020895D1
:10146000833021F488E180932102089580E2809303
:1014700021020895E0E0F2E080A1806880A383A1CA
:101480008823E9F3E0E0F2E013A284A195A1089596
:1014900044E60C94C41E08952F923F924F925F929F
:1014A0006F927F928F929F92AF92BF92CF92DF9274
:1014B000EF92FF920F931F93CF93DF93CDB7DEB7D9
:1014C000C154D109CDBFDEBF1C01CE0101960E94DF
:1014D000321F85E1FE013196A1E1B3E201900D9248
:1014E0008A95E1F701E113E2F80161817281072E2B
:1014F000000C880B990B0E946E286B017C01609197
:101500000C2070910D20072E000C880B990B0E9467
:101510006E289B01AC01C701B6010E94F2265B0157
:101520006C01F80165857685072E000C880B990BF8
:101530000E946E282B013C016091D7217091D82127
:10154000072E000C880B990B0E946E289B01AC01A2
:10155000C301B2010E94F22620E030E040E057E4EF
:101560000E94F22620E030E04AE755E40E947A2902
:1015700020E03FEF4FE757E40E94D32720E030E020
:101580004AEF54E40E94F1266A8F7B8F8C8F9D8FE7
:10159000F80163857485072E000C880B990B0E9457
:1015A0006E282B013C016091D9217091DA21072E20
:1015B000000C880B990B0E946E289B01AC01C301A3
:1015C000B2010E94F22620E030E040E057E40E94A1
:1015D000F22620E030E04AE755E40E947A2920E034
:1015E0003FEF4FE757E40E94D32720E030E04AEF77
:1015F00054E40E94F1266E8F7F8F88A399A3F8018F
:1016000061857285072E000C880B990B0E946E284D
:101610002B013C016091062070910720072E000CE1
:10162000880B990B0E946E289B01AC01C301B2018B
:101630000E94F22620E030E040E057E40E94F226CB
:1016400020E030E04AE755E40E947A2920E03FEFAD
:101650004FE757E40E94D32720E030E04AEF54E4FC
:101660000E94F1262B013C01F80163897489072E41
:10167000000C880B990B0E946E286E8B7F8B888FD5
:10168000998F60910E2070910F20072E000C880B0F
:10169000990B0E946E289B01AC016E897F89888D11
:1016A000998D0E94F226DC01CB01B058BF93AF9315
:1016B0009F938F93F80167857089072E000C880B24
:1016C000990B0E946E286E8B7F8B888F998F60910B
:1016D000122070911320072E000C880B990B0E948A
:1016E0006E289B01AC016E897F89888D998D0E943F
:1016F000F2269F938F937F936F93F801618972898C
:10170000072E000C880B990B0E946E286E8B7F8B26
:10171000888F998F6091102070911120072E000CF6
:10172000880B990B0E946E289B01AC016E897F8902
:10173000888D998D0E94F2269F938F937F936F934C
:10174000F80165817681072E000C880B990B0E94A9
:101750006E286E8B7F8B888F998F60910820709197
:101760000920072E000C880B990B0E946E289B0104
:10177000AC016E897F89888D998D0E94F2269F9396
:101780008F937F936F93F80163817481072E000C10
:10179000880B990B0E946E286E8B7F8B888F998F98
:1017A00060910A2070910B20072E000C880B990B7A
:1017B0000E946E289B01AC016E897F89888D998D6E
:1017C0000E94F2269F938F937F936F93EA8CFB8CFA
:1017D0000C8D1D8D2E8D3F8D48A159A1C301B201E5
:1017E00083D76091142070911520809116209091DC
:1017F00017202091142030911520409116205091EF
:101800001720C090EF21D090F021E090F121F090CE
:10181000F2218090EF219090F021A090F121B090E2
:10182000F2214090EB215090EC216090ED217090DE
:10183000EE214A8E5B8E6C8E7D8E4090EB21509017
:10184000EC216090ED217090EE214E8E5F8E68A2AB
:1018500079A24090E7215090E8216090E9217090B2
:10186000EA214E8A5F8A688E798E4090E7215090F7
:10187000E8216090E9217090EA214AA25BA26CA263
:101880007DA24090EF215090F0216090F121709066
:10189000F2214EA25FA268A679A64090EB2150905B
:1018A000EC216090ED217090EE214AA65BA66CA61B
:1018B0007DA64090142050901520609016207090C6
:1018C00017204EAA5FAA68AE79AE4090E7215090EB
:1018D000E8216090E9217090EA214EA65FA668AAEF
:1018E00079AA0E947A292B013C01A5019401C70124
:1018F000B6010E947A299B01AC01C301B2010E948A
:10190000F2266B017C012E8D3F8D48A159A16A8D75
:101910007B8D8C8D9D8D0E947A299B01AC01C70126
:10192000B6010E94F1266B017C012AA13BA14CA1CA
:101930005DA16E897F89888D998D0E947A299B018E
:10194000AC01C701B6010E94F1266B017C012AA5FA
:101950003BA54CA55DA56EA17FA188A599A50E9478
:101960007A294B015C012EA53FA548A959A96EA96A
:101970007FA988AD99AD0E947A299B01AC01C50170
:10198000B4010E94F2269B01AC010E94F226A7013D
:1019900096010E947C276A8F7B8F8C8F9D8F609130
:1019A000EF217091F0218091F1219091F22120910D
:1019B000E7213091E8214091E9215091EA2180907E
:1019C000142090901520A0901620B09017204090E1
:1019D000EB215090EC216090ED217090EE210E945F
:1019E0007A296B017C01A3019201C501B4010E9417
:1019F0007A299B01AC01C701B6010E94F1269B0127
:101A0000AC010E94F2260E9456276E8F7F8F88A31A
:101A100099A36091142070911520809116209091C7
:101A200017202091142030911520409116205091BC
:101A300017208090EF219090F021A090F121B0909C
:101A4000F2214090EF215090F0216090F1217090B0
:101A5000F221E090EB21F090EC210091ED2110912A
:101A6000EE21EE8AFF8A088F198FE090EB21F0902B
:101A7000EC210091ED211091EE21EAA2FBA20CA332
:101A80001DA3E090E721F090E8210091E921109159
:101A9000EA21EEA2FFA208A719A7E090E721F090A3
:101AA000E8210091E9211091EA21EAA6FBA60CA702
:101AB0001DA7E0901420F0901520009116201091A1
:101AC0001720EEA6FFA608AB19ABE090EF21F0902F
:101AD000F0210091F1211091F221EAAAFBAA0CABAE
:101AE0001DABE090EB21F090EC210091ED211091E5
:101AF000EE212296ECAEFDAE0EAF1FAF2297E09026
:101B0000E721F090E8210091E9211091EA21EEAA65
:101B1000FFAA08AF19AF0E947A296B017C01A301CB
:101B20009201C501B4010E947A299B01AC01C70151
:101B3000B6010E94F1264B015C012AA13BA14CA1F8
:101B40005DA16E897F89888D998D0E947A299B017C
:101B5000AC01C501B4010E94F1264B015C012AA52C
:101B60003BA54CA55DA56EA17FA188A599A50E9466
:101B70007A299B01AC01C501B4010E94F2262B0118
:101B80003C012AA93BA94CA95DA96EA57FA588A9FE
:101B900099A90E947A294B015C012EA93FA948AD61
:101BA00059AD22966CAD7DAD8EAD9FAD22970E9452
:101BB0007A299B01AC01C501B4010E94F2269B0168
:101BC000AC010E94F226A30192010E947C276B01C6
:101BD0007C0185E1E1E1F3E2D1011C9601900D92D7
:101BE0008A95E1F76E8D7F8D88A199A190582DEE91
:101BF0003EE245E652E40E947A29F1016083718356
:101C0000828393832DEE3EE245E652E4C701B6019E
:101C10000E947A29F10164837583868397832DEE70
:101C20003EE245E652E46A8D7B8D8C8D9D8D0E944F
:101C30007A29F1016087718782879387CDBFDEBFE4
:101C4000C101CF5BDF4FCDBFDEBFDF91CF911F91D1
:101C50000F91FF90EF90DF90CF90BF90AF909F904B
:101C60008F907F906F905F904F903F902F9008954E
:101C7000CF92DF92EF92FF920F931F938B019C0103
:101C800035952795179507950F2EFFEDCF2EF9E582
:101C9000DF2EF7E3EF2EFFE5FF2EF02DC01AD10A5D
:101CA000E20AF30A20E030E040E05FE30E947A2994
:101CB000A70196010E947A29A70196010E947A291C
:101CC0009B01AC0160E070E080EC9FE30E94F12694
:101CD000A70196010E947A291F910F91FF90EF9022
:101CE000DF90CF9008954F925F926F927F928F9284
:101CF0009F92AF92BF92CF92DF92EF92FF920F939B
:101D00001F93CF93DF93CDB7DEB7A497CDBFDEBFD0
:101D100069877A878B879C872D873E874F87588B6B
:101D2000E98AFA8A0B8B1C8B20E030E0A901C601FE
:101D3000B5010E94CF27811117C020E030E0A90132
:101D40006FA978AD89AD9AAD0E94CF2781110CC0E3
:101D500020E030E0A9016BAD7CAD8DAD9EAD0E9461
:101D6000CF27882309F460C2A6019501C601B501F9
:101D70000E947A292B013C012FA938AD49AD5AADFB
:101D8000CA01B9010E947A299B01AC01C301B201C9
:101D90000E94F2262B013C012BAD3CAD4DAD5EAD5A
:101DA000CA01B9010E947A299B01AC01C301B201A9
:101DB0000E94F2265DDF2B013C019B01AC01C601B4
:101DC000B5010E947A2969837A838B839C83A3015E
:101DD00092016FA978AD89AD9AAD0E947A296D8381
:101DE0007E838F839887A30192016BAD7CAD8DAD0F
:101DF0009EAD0E947A296D8B7E8B8F8B988F609120
:101E0000EF217091F0218091F1219091F2212091A8
:101E1000E7213091E8214091E9215091EA21809019
:101E2000142090901520A0901620B090172040907C
:101E3000EB215090EC216090ED217090EE210E94FA
:101E40007A296B017C01A3019201C501B4010E94B2
:101E50007A299B01AC01C701B6010E94F126698F66
:101E60007A8F8B8F9C8F60911420709115208091B8
:101E70001620909117202091EF213091F021409170
:101E8000F1215091F2218090EB219090EC21A090D3
:101E9000ED21B090EE214090E7215090E821609034
:101EA000E9217090EA210E947A296B017C01A3014B
:101EB0009201C501B4010E947A299B01AC01C701BE
:101EC000B6010E94F2266D8F7E8F8F8F98A360914E
:101ED0001420709115208091162090911720209148
:101EE0001420309115204091162050911720809099
:101EF000E7219090E821A090E921B090EA2140905C
:101F0000E7215090E8216090E9217090EA210E9439
:101F10007A2920E030E040E05FE30E94F1266B0187
:101F20007C01A3019201C501B4010E947A299B01A1
:101F3000AC01C701B6010E94F2266B017C019B0136
:101F4000AC016D817E818F8198850E947A294B0139
:101F50005C012D8D3E8D4F8D58A16D897E898F89B5
:101F6000988D0E947A299B01AC01C501B4010E94A1
:101F7000F12669A37AA38BA39CA3298D3A8D4B8D5F
:101F80005C8D6D897E898F89988D0E947A294B019D
:101F90005C01A701960169817A818B819C810E94F5
:101FA0007A299B01AC01C501B4010E94F1264B01C5
:101FB0005C012D8D3E8D4F8D58A169817A818B8179
:101FC0009C810E947A296B017C01298D3A8D4B8D71
:101FD0005C8D6D817E818F8198850E947A299B011D
:101FE000AC01C701B6010E94F1266B017C01609132
:101FF000F3217091F4218091F5219091F62120E058
:1020000030E0A9010E946F2918160CF0ABC0209196
:10201000F3213091F4214091F5215091F621409027
:10202000E3215090E4216090E5217090E62169A1C0
:102030007AA18BA19CA10E947A292AEF39EC44E372
:1020400059E30E947A29A30192010E94F22660932B
:10205000E3217093E4218093E5219093E621209180
:10206000F3213091F4214091F5215091F6214090D7
:10207000DF215090E0216090E1217090E221C501C4
:10208000B4010E947A292AEF39EC44E359E30E9413
:102090007A29A30192010E94F2266093DF217093B6
:1020A000E0218093E1219093E2212091F32130916E
:1020B000F4214091F5215091F6214090DB21509080
:1020C000DC216090DD217090DE21C701B6010E9405
:1020D0007A292AEF39EC44E359E30E947A29A301D3
:1020E00092010E94F2266093DB217093DC218093A1
:1020F000DD219093DE212091E3213091E421409174
:10210000E5215091E62169857A858B859C850E9421
:10211000F22669877A878B879C872091DF2130910F
:10212000E0214091E1215091E2216D857E858F85EE
:1021300098890E94F2266D877E878F87988B2091E1
:10214000DB213091DC214091DD215091DE21698934
:102150007A898B899C890E94F226698B7A8B8B8B7A
:102160009C8B18C01092E3211092E4211092E5217B
:102170001092E6211092DF211092E0211092E121CD
:102180001092E2211092DB211092DC211092DD21CD
:102190001092DE21209118203091192040911A20B0
:1021A00050911B2069A17AA18BA19CA10E947A2940
:1021B0009B01AC0169857A858B859C850E94F226FE
:1021C00069877A878B879C87209118203091192006
:1021D00040911A2050911B20C501B4010E947A2918
:1021E0009B01AC016D857E858F8598890E94F226C2
:1021F0006D877E878F87988B2091182030911920CA
:1022000040911A2050911B20C701B6010E947A29E3
:102210009B01AC0169897A898B899C890E94F2268D
:10222000698B7A8B8B8B9C8B2AEF39EC44EB58E3D0
:1022300069857A858B859C850E947A2969877A874A
:102240008B879C872AEF39EC44EB58E36D857E85BC
:102250008F8598890E947A296D877E878F87988BD2
:102260002AEF39EC44EB58E369897A898B899C8998
:102270000E947A29698B7A8B8B8B9C8BE09014203F
:10228000F09015200091162010911720ED82FE820B
:102290000F8318878090EF219090F021A090F1217A
:1022A000B090F221E090EB21F090EC210091ED2133
:1022B0001091EE21ED8AFE8A0F8B188F4090E72156
:1022C0005090E8216090E9217090EA21C09014209C
:1022D000D0901520E0901620F0901720C501B40191
:1022E000905829853A854B855C850E947A296983B7
:1022F0007A838B839C832D893E894F89588D6D8588
:102300007E858F8598890E947A299B01AC0169811D
:102310007A818B819C810E94F12669837A838B83E9
:102320009C83A301920169897A898B899C890E9487
:102330007A299B01AC0169817A818B819C810E9401
:10234000F126A70196010E94F22660931420709353
:10235000152080931620909317204090E7215090ED
:10236000E8216090E9217090EA21C090EF21D0909F
:10237000F021E090F121F090F2212D813E814F81FA
:10238000588569857A858B859C850E947A29698321
:102390007A838B839C832D893E894F89588D6989E7
:1023A0007A898B899C890E947A299B01AC01698179
:1023B0007A818B819C810E94F22669837A838B8348
:1023C0009C83A30192016D857E858F8598890E94EB
:1023D0007A299B01AC0169817A818B819C810E9461
:1023E000F126A70196010E94F2266093EF217093D7
:1023F000F0218093F1219093F2214090E7215090B9
:10240000E8216090E9217090EA21C090EB21D09002
:10241000EC21E090ED21F090EE212D813E814F8165
:1024200058856D857E858F8598890E947A29698374
:102430007A838B839C83A501940169897A898B892E
:102440009C890E947A299B01AC0169817A818B81E8
:102450009C810E94F12669837A838B839C83A301EC
:10246000920169857A858B859C850E947A299B01DA
:10247000AC0169817A818B819C810E94F226A7013F
:1024800096010E94F2266093EB217093EC218093D9
:10249000ED219093EE21C090E721D090E821E090CB
:1024A000E921F090EA212D813E814F81588569898B
:1024B0007A898B899C890E947A292B013C01A5018C
:1024C00094016D857E858F8598890E947A299B016C
:1024D000AC01C301B2010E94F2264B015C012D89BF
:1024E0003E894F89588D69857A858B859C850E94A8
:1024F0007A299B01AC01C501B4010E94F126A70114
:1025000096010E94F2266093E7217093E821809360
:10251000E9219093EA216091142070911520809117
:102520001620909117202091142030911520409171
:102530001620509117208090EF219090F021A090CC
:10254000F121B090F2214090EF215090F021609065
:10255000F1217090F221E090EB21F090EC210091BC
:10256000ED211091EE21E986FA860B871C87E09019
:10257000EB21F090EC210091ED211091EE21ED8600
:10258000FE860F87188BE090E721F090E8210091FC
:10259000E9211091EA21E982FA820B831C83E09001
:1025A000E721F090E8210091E9211091EA21E98AE0
:1025B000FA8A0B8B1C8B0E947A296B017C01A30188
:1025C0009201C501B4010E947A299B01AC01C701A7
:1025D000B6010E94F2264B015C012D853E854F8598
:1025E000588969857A858B859C850E947A299B010B
:1025F000AC01C501B4010E94F2264B015C0129899E
:102600003A894B895C8969817A818B819C810E949E
:102610007A299B01AC01C501B4010E94F22628DB96
:102620006B017C01209114203091152040911620DF
:10263000509117200E947A296093142070931520DE
:1026400080931620909317202091EF213091F02154
:102650004091F1215091F221C701B6010E947A29DF
:102660006093EF217093F0218093F1219093F221F8
:102670002091EB213091EC214091ED215091EE2100
:10268000C701B6010E947A296093EB217093EC2177
:102690008093ED219093EE212091E7213091E82164
:1026A0004091E9215091EA21C701B6010E947A299F
:1026B0006093E7217093E8218093E9219093EA21C8
:1026C000A496CDBFDEBFDF91CF911F910F91FF90F8
:1026D000EF90DF90CF90BF90AF909F908F907F90C2
:1026E0006F905F904F9008952F923F924F925F921C
:1026F0006F927F928F929F92AF92BF92CF92DF9212
:10270000EF92FF920F931F93CF93DF93CDB7DEB776
:10271000C855D109CDBFDEBF698B7A8B8B8B9C8B63
:10272000298F3A8F4B8F5C8FE982FA820B831C834F
:10273000AE96FFACAE97AF96EFACAF97E0969FAC7E
:10274000E097E1968FACE197E2961FADE297E396B2
:102750000FADE397E4963FACE497E5962FACE59791
:1027600020E030E0A901E9966CAD7DAD8EAD9FAD66
:10277000E9970E94CF27811134C020E030E0A90101
:10278000ED966CAD7DAD8EAD9FADED970E94CF27E0
:10279000811127C020E030E0A901C358DF4F6881D4
:1027A00079818A819B81CD57D0400E94CF278111AA
:1027B00018C02F923F920F931F938F929F92EF9288
:1027C000FF92E980FA800B811C81298D3A8D4B8D17
:1027D0005C8D69897A898B899C8985DACDBFDEBF5A
:1027E000A4C720E030E0A901C601B5010E94CF27AF
:1027F000811117C020E030E0A9016F2D7E2D892DB9
:10280000982D0E94CF2781110CC020E030E0A90153
:10281000612F702F832D922D0E94CF27882309F4DA
:1028200037C5A6019501C601B5010E947A292B0181
:102830003C012F2D3E2D492D582D6F2D7E2D892D9C
:10284000982D0E947A299B01AC01C301B2010E941C
:10285000F2262B013C01212F302F432D522D612FC9
:10286000702F832D922D0E947A299B01AC01C30108
:10287000B2010E94F226FCD92B013C019B01AC0164
:10288000C601B5010E947A296DAB7EAB8FAB98AFC4
:10289000A30192016F2D7E2D892D982D0E947A29FA
:1028A00069AF7AAF8BAF9CAFA3019201612F702FFC
:1028B000832D922D0E947A2921966CAF7DAF8EAF29
:1028C0009FAF2197E9962CAD3DAD4EAD5FADE99739
:1028D000CA01B9010E947A296B017C01ED962CADE9
:1028E0003DAD4EAD5FADED97CA01B9010E947A29A9
:1028F0009B01AC01C701B6010E94F2266B017C016D
:10290000C358DF4F288139814A815B81CD57D04040
:10291000CA01B9010E947A299B01AC01C701B60125
:102920000E94F226A5D96B017C019B01AC01E996BE
:102930006CAD7DAD8EAD9FADE9970E947A296D8318
:102940007E838F839887A7019601ED966CAD7DAD50
:102950008EAD9FADED970E947A2969877A878B8724
:102960009C87A7019601C358DF4F688179818A81CE
:102970009B81CD57D0400E947A296D877E878F87B3
:10298000988B4090142050901520609016207090E5
:102990001720E0901420F09015200091162010913F
:1029A00017206996ECAEFDAE0EAF1FAF6997609130
:1029B000142070911520809116209091172020915D
:1029C000EF213091F0214091F1215091F2210E94AC
:1029D0007A2969A37AA38BA39CA360911420709198
:1029E000152080911620909117202091EB21309195
:1029F000EC214091ED215091EE210E947A296D8FBA
:102A00007E8F8F8F98A360911420709115208091F4
:102A10001620909117202091E7213091E8214091D4
:102A2000E9215091EA210E947A296D8B7E8B8F8B50
:102A3000988FC090EF21D090F021E090F121F0909C
:102A4000F2218091EF219091F021A091F121B0919C
:102A5000F22189AB9AABABABBCAB6091EF2170912B
:102A6000F0218091F1219091F2212091EB21309180
:102A7000EC214091ED215091EE210E947A2969A725
:102A80007AA78BA79CA76091EF217091F02180918C
:102A9000F1219091F2212091E7213091E82140919C
:102AA000E9215091EA210E947A296DA77EA78FA77C
:102AB00098AB6091EB217091EC218091ED21909188
:102AC000EE212091EB213091EC214091ED215091AC
:102AD000EE210E947A2925966CAF7DAF8EAF9FAF15
:102AE00025976091EB217091EC218091ED219091DF
:102AF000EE212091E7213091E8214091E921509188
:102B0000EA210E947A2929966CAF7DAF8EAF9FAFE4
:102B100029976091E7217091E8218091E9219091B6
:102B2000EA212091E7213091E8214091E92150915B
:102B3000EA210E947A296DA37EA38FA398A72596E8
:102B40002CAD3DAD4EAD5FAD259760E070E080E00F
:102B50009FE30E94F1262DA13EA14FA158A50E94FE
:102B6000F1262D966CAF7DAF8EAF9FAF2D972D893F
:102B70003E894F89588D69A57AA58BA59CA50E9491
:102B8000F12661966CAF7DAF8EAF9FAF61972DA59B
:102B90003EA54FA558A96D8D7E8D8F8D98A10E9461
:102BA000F22665966CAF7DAF8EAF9FAF65972D9681
:102BB0002CAD3DAD4EAD5FAD2D976D817E818F818A
:102BC00098850E947A294B015C0161962CAD3DAD40
:102BD0004EAD5FAD619769857A858B859C850E9436
:102BE0007A299B01AC01C501B4010E94F2264B0178
:102BF0005C0165962CAD3DAD4EAD5FAD65976D85C5
:102C00007E858F8598890E947A299B01AC01C50138
:102C1000B4010E94F2269B01AC010E94F2264B01F6
:102C20005C0129A93AA94BA95CA9C701B6010E9478
:102C30007A299B01AC0160E070E080E09FE30E9494
:102C4000F12669AB7AAB8BAB9CAB29A53AA54BA51A
:102C50005CA56D897E898F89988D0E94F2262D81D1
:102C60003E814F8158850E947A296B017C012DA1FC
:102C70003EA14FA158A569A97AA98BA99CA90E9438
:102C8000F12629853A854B855C850E947A299B012E
:102C9000AC01C701B6010E94F2266B017C0129A19B
:102CA0003AA14BA15CA129966CAD7DAD8EAD9FADD7
:102CB00029970E94F1262D853E854F8558890E94CF
:102CC0007A299B01AC01C701B6010E94F2269B0143
:102CD000AC010E94F2266B017C01A5019401C501A3
:102CE000B4010E947A296D8B7E8B8F8B988FA50102
:102CF0009401C501B4010E947A294B015C01A7012E
:102D00009601C701B6010E947A299B01AC01C50159
:102D1000B4010E94F2260E94E1294B015C012D8D35
:102D20003E8D4F8D58A16DA57EA58FA598A90E94B7
:102D3000F1266D8F7E8F8F8F98A329962CAD3DAD98
:102D40004EAD5FAD299769A17AA18BA19CA10E948C
:102D5000F22669A37AA38BA39CA325962CAD3DAD47
:102D60004EAD5FAD259769A97AA98BA99CA90E9450
:102D7000F1266D8B7E8B8F8B988F2D8D3E8D4F8D99
:102D800058A16D817E818F8198850E947A296B017F
:102D90007C0129A13AA14BA15CA169857A858B852B
:102DA0009C850E947A299B01AC01C701B6010E9453
:102DB000F2266B017C012D893E894F89588D6D85E6
:102DC0007E858F8598890E947A299B01AC01C70175
:102DD000B6010E94F2269B01AC010E94F2266B0113
:102DE0007C0169962CAD3DAD4EAD5FAD6997C301D9
:102DF000B2010E947A2920E030E040E05FE30E94C7
:102E0000F1262DA13EA14FA158A50E94F2266DA347
:102E10007EA38FA398A7A50194012D966CAD7DADDF
:102E20008EAD9FAD2D970E947A292B013C01A70101
:102E300096016D8D7E8D8F8D98A10E947A299B01C0
:102E4000AC01C301B2010E94F22669A77AA78BA741
:102E50009CA7A501940161966CAD7DAD8EAD9FAD33
:102E600061970E947A292B013C01A701960169A173
:102E70007AA18BA19CA10E947A299B01AC01C3017C
:102E8000B2010E94F2266DA77EA78FA798ABA5017D
:102E9000940165966CAD7DAD8EAD9FAD65970E943A
:102EA0007A292B013C01A70196016D897E898F89C2
:102EB000988D0E947A299B01AC01C301B2010E9446
:102EC000F2266B017C012DA13EA14FA158A569AD51
:102ED0007AAD8BAD9CAD0E947A294B015C0129A192
:102EE0003AA14BA15CA121966CAD7DAD8EAD9FAD9D
:102EF00021970E947A299B01AC01C501B4010E946F
:102F0000F1264B015C01A701960169857A858B85C5
:102F10009C850E947A292B013C012DA53EA54FA539
:102F200058A96D857E858F8598890E947A299B0195
:102F3000AC01C301B2010E94F1269B01AC01C501A5
:102F4000B4010E94F2266D8B7E8B8F8B988F2D8D16
:102F50003E8D4F8D58A121966CAD7DAD8EAD9FAD50
:102F600021970E947A294B015C012DA13EA14FA11E
:102F700058A56DA97EA98FA998AD0E947A299B01B9
:102F8000AC01C501B4010E94F1264B015C0129A5E9
:102F90003AA54BA55CA56D857E858F8598890E9495
:102FA0007A292B013C01A70196016D817E818F81D9
:102FB00098850E947A299B01AC01C301B2010E944D
:102FC000F1269B01AC01C501B4010E94F2264B0120
:102FD0005C0129A13AA14BA15CA16DA97EA98FA991
:102FE00098AD0E947A296B017C012D8D3E8D4F8D0D
:102FF00058A169AD7AAD8BAD9CAD0E947A299B0139
:10300000AC01C701B6010E94F1266B017C012DA520
:103010003EA54FA558A96D817E818F8198850E941C
:103020007A292B013C0129A53AA54BA55CA5698508
:103030007A858B859C850E947A299B01AC01C3010E
:10304000B2010E94F1269B01AC01C701B6010E94AA
:10305000F2266B017C016091F3217091F421809143
:10306000F5219091F62120E030E0A9010E946F291E
:1030700018160CF0ABC02091F3213091F42140914F
:10308000F5215091F6214090E3215090E421609089
:10309000E5217090E6216D897E898F89988D0E9447
:1030A0007A292AEF39EC44E359E30E947A29A301F3
:1030B00092010E94F2266093E3217093E4218093B1
:1030C000E5219093E6212091F3213091F421409164
:1030D000F5215091F6214090DF215090E021609041
:1030E000E1217090E221C501B4010E947A292AEF02
:1030F00039EC44E359E30E947A29A30192010E942A
:10310000F2266093DF217093E0218093E121909378
:10311000E2212091F3213091F4214091F521509149
:10312000F6214090DB215090DC216090DD217090F1
:10313000DE21C701B6010E947A292AEF39EC44E367
:1031400059E30E947A29A30192010E94F22660931A
:10315000DB217093DC218093DD219093DE2120918F
:10316000E3213091E4214091E5215091E6216989E4
:103170007A898B899C890E94F226698B7A8B8B8B4A
:103180009C8B2091DF213091E0214091E1215091F1
:10319000E221698D7A8D8B8D9C8D0E94F226698F3C
:1031A0007A8F8B8F9C8F2091DB213091DC21409195
:1031B000DD215091DE2169817A818B819C810E9481
:1031C000F22669837A838B839C8318C01092E32153
:1031D0001092E4211092E5211092E6211092DF2155
:1031E0001092E0211092E1211092E2211092DB2155
:1031F0001092DC211092DD211092DE212091182006
:103200003091192040911A2050911B206D897E89A0
:103210008F89988D0E947A299B01AC0169897A89EE
:103220008B899C890E94F226698B7A8B8B8B9C8B75
:10323000209118203091192040911A2050911B2084
:10324000C501B4010E947A299B01AC01698D7A8D78
:103250008B8D9C8D0E94F226698F7A8F8B8F9C8F2D
:10326000209118203091192040911A2050911B2054
:10327000C701B6010E947A299B01AC0169817A815C
:103280008B819C810E94F22669837A838B839C8345
:103290002AEF39EC44EB58E369897A898B899C8958
:1032A0000E947A296D837E838F8398872AEF39EC79
:1032B00044EB58E3698D7A8D8B8D9C8D0E947A2921
:1032C00069877A878B879C872AEF39EC44EB58E330
:1032D00069817A818B819C810E947A296D877E87A2
:1032E0008F87988BE0901420F09015200091162085
:1032F00010911720E98AFA8A0B8B1C8B8090EF21A2
:103300009090F021A090F121B090F221E090EB217B
:10331000F090EC210091ED211091EE21E98EFA8ED2
:103320000B8F1C8F4090E7215090E8216090E9219D
:103330007090EA21C0901420D0901520E0901620C3
:10334000F0901720C501B40190582D813E814F8126
:1033500058850E947A2969837A838B839C83298D7F
:103360003A8D4B8D5C8D69857A858B859C850E9415
:103370007A299B01AC0169817A818B819C810E94B1
:10338000F12669837A838B839C83A30192016D85E7
:103390007E858F8598890E947A299B01AC0169817D
:1033A0007A818B819C810E94F126A70196010E945F
:1033B000F22660931420709315208093162090932A
:1033C00017204090E7215090E8216090E92170900B
:1033D000EA21C090EF21D090F021E090F121F0900F
:1033E000F22129893A894B895C896D817E818F819F
:1033F00098850E947A2969837A838B839C83298D9F
:103400003A8D4B8D5C8D6D857E858F8598890E9468
:103410007A299B01AC0169817A818B819C810E9410
:10342000F22669837A838B839C83A3019201698549
:103430007A858B859C850E947A299B01AC016981E4
:103440007A818B819C810E94F126A70196010E94BE
:10345000F2266093EF217093F0218093F1219093F5
:10346000F2214090E7215090E8216090E92170908E
:10347000EA21C090EB21D090EC21E090ED21F0907A
:10348000EE2129893A894B895C8969857A858B8502
:103490009C850E947A2969837A838B839C83A5010A
:1034A00094016D857E858F8598890E947A299B017C
:1034B000AC0169817A818B819C810E94F1266983AC
:1034C0007A838B839C83A30192016D817E818F819E
:1034D00098850E947A299B01AC0169817A818B8150
:1034E0009C810E94F226A70196010E94F226609319
:1034F000EB217093EC218093ED219093EE21C0900D
:10350000E721D090E821E090E921F090EA21298993
:103510003A894B895C896D857E858F8598890E9463
:103520007A292B013C01A501940169857A858B8557
:103530009C850E947A299B01AC01C301B2010E94C3
:10354000F2264B015C01298D3A8D4B8D5C8D6D818E
:103550007E818F8198850E947A299B01AC01C501EB
:10356000B4010E94F126A70196010E94F226609301
:10357000E7217093E8218093E9219093EA216091FB
:103580001420709115208091162090911720209181
:1035900014203091152040911620509117208090D2
:1035A000EF219090F021A090F121B090F221409075
:1035B000EF215090F0216090F1217090F221E09085
:1035C000EB21F090EC210091ED211091EE21ED82A4
:1035D000FE820F831887E090EB21F090EC210091A0
:1035E000ED211091EE21E986FA860B871C87E09089
:1035F000E721F090E8210091E9211091EA21E98288
:10360000FA820B831C83E090E721F090E82100917F
:10361000E9211091EA21ED86FE860F87188B0E9422
:103620007A296B017C01A3019201C501B4010E94BA
:103630007A299B01AC01C701B6010E94F2264B0119
:103640005C0129853A854B855C856D817E818F8102
:1036500098850E947A299B01AC01C501B4010E94A2
:10366000F2264B015C012D853E854F855889698185
:103670007A818B819C810E947A299B01AC01C501D2
:10368000B4010E94F2260E94380E6B017C01209149
:1036900014203091152040911620509117200E943F
:1036A0007A296093142070931520809316209093AC
:1036B00017202091EF213091F0214091F12150917C
:1036C000F221C701B6010E947A296093EF2170931D
:1036D000F0218093F1219093F2212091EB21309100
:1036E000EC214091ED215091EE21C701B6010E94DD
:1036F0007A296093EB217093EC218093ED219093D4
:10370000EE212091E7213091E8214091E92150916B
:10371000EA21C701B6010E947A296093E7217093DC
:10372000E8218093E9219093EA21C85ADF4FCDBF69
:10373000DEBFDF91CF911F910F91FF90EF90DF904F
:10374000CF90BF90AF909F908F907F906F905F9041
:103750004F903F902F90089504C0615071098109E6
:1037600091096115710581059105B9F708950F93C8
:103770001F938B019C01642F70E088EE93E00E9400
:10378000372AECE1F0E288E6808389E1818381E0F9
:1037900090E08087918761506093092240E0BF01EB
:1037A000C8010E9481071F910F9108959F92AF92C7
:1037B000BF92CF92DF92EF92FF920F931F93CF931E
:1037C000DF936B017C01CCE1D0E20F2EF8E69F2E57
:1037D000F02D98828AE18983AA24A394B12CA8862B
:1037E000B98609E012E282E0F801808340E0BE0180
:1037F000C6010E94810798828BE18983A886B986D9
:1038000088E1F801808340E0BE01C6010E94810783
:10381000DF91CF911F910F91FF90EF90DF90CF90AC
:10382000BF90AF909F9008959F92AF92BF92CF921A
:10383000DF92EF92FF920F931F93CF93DF936B0171
:103840007C01CCE1D0E20F2EF8E69F2EF02D98827D
:103850008CE18983AA24A394B12CA886B98609E0B7
:1038600012E288E1F801808340E0BE01C6010E94B7
:10387000810798828DE18983A886B98682E0F80164
:10388000808340E0BE01C6010E948107DF91CF9195
:103890001F910F91FF90EF90DF90CF90BF90AF906E
:1038A0009F9008952F923F924F925F926F927F92D6
:1038B0008F929F92AF92BF92CF92DF92EF92FF9240
:1038C0000F931F93CF93DF936B017C01CCE1D0E288
:1038D0000F2EF8E69F2EF02D98820F2EF5E26F2E18
:1038E000F02D6982AA24A394B12CA886B98609E098
:1038F00012E20F2EFCE04F2EF02DF801408240E046
:10390000BE01C6010E94810798820F2EF6E27F2E2B
:10391000F02D7982A886B9860F2EFAE05F2EF02D61
:10392000F801508240E0BE01C6010E9481079882E2
:103930000F2EF3E63F2EF02D3982A886B9868FE14F
:10394000F801808340E0BE01C6010E948107988291
:103950000F2EF7E28F2EF02D8982A886B98681E896
:10396000F801808340E0BE01C6010E9481076BE040
:103970007AE180E090E0F0DE98826982A886B986DC
:103980008CE8F801808340E0BE01C6010E948107F7
:1039900098827982A886B9866894222424F8F8014E
:1039A000208240E0BE01C6010E9481079882898280
:1039B000A886B98683E8F801808340E0BE01C6018D
:1039C0000E9481076BE07AE180E090E0C5DE98829A
:1039D00089E4898384E090E08887998741E0BE018B
:1039E000C6010E948107F801608170E080E090E0EC
:1039F0000E946C2820E030E040E053E40E94F12671
:103A000020E030E040E85BE30E947A2920E030E0EB
:103A100040E85FE30E94F2266093FF21709300224A
:103A20008093012290930222F801618170E080E08E
:103A300090E00E946C2820E030E040E053E40E94D7
:103A4000F12620E030E040E85BE30E947A2920E0A4
:103A500030E040E85FE30E94F2266093FB21709320
:103A6000FC218093FD219093FE21F801628170E09A
:103A700080E090E00E946C2820E030E040E053E4D9
:103A80000E94F12620E030E040E85BE30E947A29C2
:103A900020E030E040E85FE30E94F2266093F721E7
:103AA0007093F8218093F9219093FA21988269828A
:103AB000A886B986F801408240E0BE01C6010E9496
:103AC000810798827982A886B986F801508240E001
:103AD000BE01C6010E94810798823982A886B986F4
:103AE000F801208240E0BE01C6010E948107988251
:103AF0008982A886B98681E8F801808340E0BE010A
:103B0000C6010E9481076BE07AE180E090E024DE4C
:103B1000DF91CF911F910F91FF90EF90DF90CF90A9
:103B2000BF90AF909F908F907F906F905F904F90DD
:103B30003F902F9008954F925F926F927F928F9255
:103B40009F92AF92BF92CF92DF92EF92FF920F932C
:103B50001F93CF93DF936B017C01CCE1D0E20F2E5A
:103B6000F8E69F2EF02D988284E28983AA24A394FC
:103B7000B12CA886B98609E012E28DECF8018083A9
:103B800040E0BE01C6010E948107988287E68983D2
:103B9000A886B9860F2EF1E86F2EF02DF80160820D
:103BA00040E0BE01C6010E94810798828AE68983AF
:103BB000A886B98680E2F801808340E0BE01C60194
:103BC0000E94810798820F2EF5E25F2EF02D598218
:103BD000A886B9868CE0F801808340E0BE01C6016A
:103BE0000E94810798820F2EF6E27F2EF02D7982B7
:103BF000A886B9868BE0F801808340E0BE01C6014B
:103C00000E94810798820F2EF3E64F2EF02D4982F5
:103C1000A886B98681E0F801808340E0BE01C60134
:103C20000E94810798820F2EF7E28F2EF02D898255
:103C3000A886B986F801608240E0BE01C6010E94F4
:103C4000810766E07DE080E090E086DDC701B60197
:103C500029DE98827982A886B9868AE0F801808375
:103C600040E0BE01C6010E94810798824982A88671
:103C7000B98686E1F801808340E0BE01C6010E945A
:103C8000810798828982A886B986F801608240E01F
:103C9000BE01C6010E94810766E07DE080E090E001
:103CA0005BDD98825982A886B9868CE8F80180830A
:103CB00040E0BE01C6010E94810798827982A886F1
:103CC000B98683E0F801808340E0BE01C6010E940E
:103CD000810798828982A886B98687E8F80180835F
:103CE00040E0BE01C6010E948107DF91CF911F9184
:103CF0000F91FF90EF90DF90CF90BF90AF909F908B
:103D00008F907F906F905F904F9008959F92AF92A9
:103D1000BF92CF92DF92EF92FF920F931F93CF93B8
:103D2000DF936B017C01CCE1D0E20F2EF8E69F2EF1
:103D3000F02D988287E38983AA24A394B12CA886C6
:103D4000B98609E012E280E1F801808340E0BE011B
:103D5000C6010E948107988288E38983A886B98674
:103D600081E0F801808340E0BE01C6010E94810726
:103D7000DF91CF911F910F91FF90EF90DF90CF9047
:103D8000BF90AF909F9008957F928F929F92AF9235
:103D9000BF92CF92DF92EF92FF920F931F93CF9338
:103DA000DF936B017C01742ECCE1D0E20F2EF8E69C
:103DB0009F2EF02D98820F2EFBE68F2EF02D8982FC
:103DC000AA24A394B12CA886B98609E012E280E85F
:103DD000F801808340E0BE01C6010E94810766E3CE
:103DE00072E880E090E0B8DC98828982A886B98683
:103DF00088248394F801808240E0BE01C6010E94BD
:103E0000810798828CE68983A886B986F80110829A
:103E100040E0BE01C6010E948107C701B601C6DCB1
:103E2000C701B60101DD472DC701B601A0DCC701FE
:103E3000B6016CDFC701B6017EDEE0E6F6E081E1A7
:103E4000808B828683E08187DF91CF911F910F91D4
:103E5000FF90EF90DF90CF90BF90AF909F908F90AA
:103E60007F9008954F925F926F927F928F929F9270
:103E7000AF92BF92CF92DF92EF92FF920F931F9378
:103E8000CF93DF93CDB7DEB76897CDBFDEBF8C0190
:103E9000DB01CA01ECE1F0E228E620832AE321837A
:103EA00026E130E02087318741E0BF010E94810791
:103EB000C0902720D0902820E0902920F0902A2040
:103EC00060910A2270E0762F662780910B22680F9E
:103ED000711D072E000C880B990B0E946E28A701FC
:103EE00096010E94D3270E943B2869837A838B83A3
:103EF0009C83C0902720D0902820E0902920F0902B
:103F00002A2060910C2270E0762F662780910D2286
:103F1000680F711D072E000C880B990B0E946E28EC
:103F2000A70196010E94D3270E943B286D837E83C0
:103F30008F839887C0902720D0902820E090292058
:103F4000F0902A2060910E2270E0762F66278091F3
:103F50000F22680F711D072E000C880B990B0E9411
:103F60006E28A70196010E94D3270E943B286987EB
:103F70007A878B879C87C0902B20D0902C20E09054
:103F80002D20F0902E206091122270E0762F66276F
:103F900080911322680F711D072E000C880B990B5E
:103FA0000E946E28A7019601FED70E943B286D87CC
:103FB0007E878F87988BC0902B20D0902C20E0900C
:103FC0002D20F0902E206091142270E0762F66272D
:103FD00080911522680F711D072E000C880B990B1C
:103FE0000E946E28A7019601DED70E943B28698BAC
:103FF0007A8B8B8B9C8BC0902B20D0902C20E090C8
:104000002D20F0902E206091162270E0762F6627EA
:1040100080911722680F711D072E000C880B990BD9
:104020000E946E28A7019601BED70E943B286D8B87
:104030007E8B8F8B988FC090FF21D0900022E090D4
:104040000122F09002226091192270E0762F6627FB
:1040500080911822680F711D072E000C880B990B98
:104060000E946E28A70196010E947A2920E030E084
:1040700040EC50E40E947A29FED72B013C01C0900D
:10408000FB21D090FC21E090FD21F090FE21609179
:104090001B2270E0762F662780911A22680F711D0F
:1040A000072E000C880B990B0E946E28A701960121
:1040B0000E947A2920E030E040EC50E40E947A2906
:1040C000DAD74B015C01C090F721D090F821E09045
:1040D000F921F090FA2160911D2270E0762F662779
:1040E00080911C22680F711D072E000C880B990B04
:1040F000F5D7A70196010E947A2920E030E040EC34
:1041000050E40E947A29B7D76B017C01609110229C
:1041100070E0762F662780911122680F711D072E9F
:10412000000C880B990BDAD723E43DEA45E550E40F
:104130003AD7A1D76C5C774FE9E0F2E28081F801D1
:10414000808389819A81818392838D819E818383FB
:10415000948389859A8585839683678370878D8507
:104160009E858187928789899A89838794878D899B
:104170009E89858796874786508A818A928AC38AD4
:10418000D48AC8016896CDBFDEBFDF91CF911F9161
:104190000F91FF90EF90DF90CF90BF90AF909F90E6
:1041A0008F907F906F905F904F9008951F920F9225
:1041B0000FB60F9211248F939F93AF93BF9381E01B
:1041C00080930822809307228091032290910422F9
:1041D000A0910522B09106220196A11DB11D8093E8
:1041E000032290930422A0930522B0930622BF914C
:1041F000AF919F918F910F900FBE0F901F901895C8
:10420000CF93DF93EB010E94ED078883DF91CF917D
:1042100008950C94E5070895CF93DF93CDB7DEB7EB
:104220002797CDBFDEBF60E184E00E946201E0E637
:10423000F6E080818860808380EA99E080930D2396
:1042400090930E2389E091E280930B2390930C23AB
:1042500080E091E28093092390930A23EDE3F0E25A
:1042600084818D8385818E8386818F8380819181F6
:10427000A281B38189839A83AB83BC8360E184E0AC
:104280000E946201BE016F5F7F4F80EA99E00E9449
:10429000060968E771E081E991E00E946D2A27969E
:1042A000CDBFDEBFDF91CF9108950F931F93CF93C2
:1042B000DF93CDB7DEB72797CDBFDEBF60E183E0E8
:1042C0000E946201E0E4F6E080818860808300EA79
:1042D00018E000930D2310930E2389E091E2809360
:1042E0000B2390930C2380E091E280930923909319
:1042F0000A23E6E3F0E284818D8385818E838681C3
:104300008F8380819181A281B38189839A83AB83DA
:10431000BC8360E183E00E946201BE016F5F7F4F5A
:1043200080EA98E00E94060968E771E081E991E07F
:104330000E946D2AF801838180618383E0EAF0E0C6
:104340008281816082832796CDBFDEBFDF91CF91CE
:104350001F910F9108950F931F93CF93DF93CDB7C4
:10436000DEB72797CDBFDEBF60E183E00E94620128
:10437000E0E4F6E080818860808300EA18E0009342
:104380000D2310930E2389E091E280930B239093E9
:104390000C2380E091E28093092390930A23EFE2BB
:1043A000F0E284818D8385818E8386818F838081F5
:1043B0009181A281B38189839A83AB83BC8360E1BD
:1043C00083E00E946201BE016F5F7F4F80EA98E048
:1043D0000E94060968E771E081E991E00E946D2A78
:1043E000F801838180618383E0EAF0E0828181606B
:1043F00082832796CDBFDEBFDF91CF911F910F91B2
:10440000089504C061507109810991096115710510
:1044100081059105B9F70895009709F4D5C0803C4E
:10442000910529F460E180E00C9462010895811502
:1044300024E0920729F464E080E00C94620108957E
:10444000803821E0920729F462E080E00C94620158
:104450000895811521E0920729F461E080E00C9431
:1044600062010895803823E0920729F461E081E039
:104470000C9462010895811522E0920729F462E00C
:1044800081E00C9462010895803223E0920729F4C0
:1044900064E082E00C9462010895811528E092079F
:1044A00029F461E083E00C9462010895811529E00C
:1044B000920729F461E084E00C946201089581156B
:1044C0002AE0920729F461E085E00C9462010895E6
:1044D000803428E0920729F462E083E00C946201C2
:1044E0000895803429E0920729F462E084E00C9476
:1044F00062010895803928E0920729F464E083E09E
:104500000C9462010895803929E0920729F464E04F
:1045100084E00C946201089580392AE0920729F41E
:1045200064E085E00C9462010895803C28E09207E5
:1045300029F468E083E00C9462010895803C29E04E
:10454000920729F468E084E00C9462010895803AAF
:1045500028E0920729F460E183E00C946201089559
:10456000803A29E0920729F460E184E00C9462012A
:104570000895803A2AE0920729F460E185E00C94DE
:1045800062010895803B28E0920729F460E283E00D
:104590000C9462010895803B29E0920729F460E2BF
:1045A00084E00C9462010895803824E0920729F495
:1045B00060E483E00C9462010895803A944021F411
:1045C00060E485E00C9462010895FC01F85F40818D
:1045D00051819A012F5F3F4F34960190F081E02D79
:1045E0002E173F0710F020E030E0FC01EE5FF74FA0
:1045F0000190F081E02DE217F30759F0FC01E40F80
:10460000F51F6083FC01F85F2083318380E090E038
:1046100008958FEF9FEF0895FC01EE5FF74F208123
:10462000318132974081518142175307E9F0A90146
:104630004F5F5F4F34960190F081E02D4E175F077A
:1046400018F4A42F452F02C0A0E040E0FC01E20FC7
:10465000F31F2081FB012083FC01EE5FF74FA08355
:10466000418380E090E008958FEF9FEF08951F92BF
:104670000F920FB60F9211242F933F934F935F9396
:104680006F937F938F939F93AF93BF93EF93FF931A
:104690006091A00888E793E298DFFF91EF91BF91C6
:1046A000AF919F918F917F916F915F914F913F91CA
:1046B0002F910F900FBE0F901F901895CF93DF93FF
:1046C000CDB7DEB7C45BD109CDBFDEBF1092782B6A
:1046D0001092792B10927A2B10927B2B80E098E02D
:1046E00080937C2B90937D2B0E945101789466E0FF
:1046F0007DE080E090E085DE0E94520164E083E08E
:104700000E94620180E092E087DE0E94FD09CDDD1B
:1047100060E177E280E090E074DE8CE2E4E4F0E2D5
:10472000DE01129601900D928A95E1F703E010E008
:104730006E012EE2C20ED11C13C0D7018D917D01F6
:1047400090E028D7CE14DF04C1F78AE090E022D7AA
:1047500060E177E280E090E054DE0150110929F039
:104760007E01B2E0EB0EF11CE8CF60E177E280E081
:1047700090E047DE80E1E0E7F0E2DE019E96019006
:104780000D928A95E1F703E010E06E01EEE3CE0EA4
:10479000D11C13C0D7018D917D0190E0FBD6EC14A4
:1047A000FD04C1F780EB90E2FAD660E177E280E0A9
:1047B00090E027DE0150110929F07E01BEE2EB0EE8
:1047C000F11CE8CF60E177E280E090E01ADE80E162
:1047D000E0E8F0E2DE01DE9601900D928A95E1F7C5
:1047E0000F2EF3E0EF2EF12CF02D14C0F801819183
:1047F0008F0190E0CFD60C151D05C1F780EB90E23C
:10480000CED660E177E280E090E0FBDDF1E0EF1AE8
:10481000F10841F08E01025C1F4F680120E1C20ED9
:10482000D11CE4CF60E177E280E090E0EADD80E156
:10483000E0E9F0E2DE01A25BBF4F01900D928A95A4
:10484000E1F70F2EF3E0EF2EF12CF02D14C0D8017C
:104850008D918D0190E09ED60C151D05C1F780EB62
:1048600090E29DD660E177E280E090E0CADDB1E0C1
:10487000EB1AF10841F08E01025B1F4F6801E0E185
:10488000CE0ED11CE4CF60E177E280E090E0B9DDAC
:1048900080E1E0EAF0E2DE01A25ABF4F01900D9202
:1048A0008A95E1F70F2EF3E0EF2EF12CF02D14C0D6
:1048B000D8018D918D0190E06DD6C016D106C1F75B
:1048C00080EB90E26CD660E177E280E090E099DDE9
:1048D000B1E0EB1AF10841F08E01025A1F4F680156
:1048E000E0E1CE0ED11CE4CF60E177E280E090E021
:1048F00088DD92DC00E010E0C12CD12C14C089814D
:10490000082E000C990B46D60F5F1F4F6EE471E026
:1049100080E090E076DD91E080E00F3E11050CF440
:1049200090E0C92ED82EBE016F5F7F4F88E793E2DB
:1049300073DE892B21F388EC90E231D660E177E2D7
:1049400080E090E05EDD7E01FEE6EF0EF11C0F2EB2
:10495000F9E0BF2EF02DD701EB2D1D92EA95E9F776
:1049600080E89AE1A6E0B0E0F70180839183A2831A
:10497000B38383E290E0A0E0B0E084839583A683D4
:10498000B78380EA94E048DD8E0109581F4FD801B3
:104990001D92BA94E9F780E593ECA0E0B0E0F8014D
:1049A00080839183A283B38380E580878FE090E04A
:1049B000A0E0B0E084839583A683B78380EA94E087
:1049C0002BDDB80180EA94E00E946C07B70180EA11
:1049D00094E00E946C07E0EAF4E0818188608183C2
:1049E00060EA74E080E090E00E94480AE0E2F6E0CD
:1049F00087E08083848382EB90E2D1D582EC90E2E1
:104A0000CED58AEC90E2CBD507DC812C912C5401D9
:104A10000F2EF7E02F2EF02D0F2EF6E2EF2EF3E201
:104A2000FF2EF02D209224066BE278E680E090E0E5
:104A3000E8DCC114D10411F41092240640EA54E0D9
:104A400060E070E0CE0180589F4F0E944C0AC05831
:104A5000DF4F88819981AA81BB81C058D040C7555A
:104A6000DF4F88839983AA83BB83C95AD040CC5730
:104A7000DF4F88819981AA81BB81C458D040C3553A
:104A8000DF4F88839983AA83BB83CD5AD040C85710
:104A9000DF4F88819981AA81BB81C858D040CF540B
:104AA000DF4F88839983AA83BB83C15BD0400F2EDD
:104AB000F6E26F2EF3E27F2EF02D11E0812F0E949F
:104AC000240A63E876E080E090E09BDC0E943A0AEA
:104AD000D3018D939D933D011F5F153079F79CDBCA
:104AE000CF54DF4F688179818A819B81C15BD0403F
:104AF000C2D22B013C01C355DF4F688179818A8185
:104B00009B81CD5AD040B7D2CF55DF4F6883798390
:104B10008A839B83C15AD040C755DF4F6881798112
:104B20008A819B81C95AD040A6D2CB55DF4F68837A
:104B300079838A839B83C55AD040F70187818F93FD
:104B400086818F9385818F9384818F9383818F93C7
:104B500082818F9381818F9380818F93CC56DF4F99
:104B60008881C459D0408F93CD56DF4F8881C35977
:104B7000D0408F93C056DF4F8881C05AD0408F936A
:104B8000C156DF4F8881CF59D0408F93C256DF4F37
:104B90008881CE59D0408F93C356DF4F8881CD593D
:104BA000D0408F93C456DF4F8881CC59D0408F932B
:104BB000C556DF4F8881CB59D0408F93C656DF4F03
:104BC0008881CA59D0408F93C756DF4F8881C95911
:104BD000D0408F93C856DF4F8881C859D0408F93FB
:104BE000C956DF4F8881C759D0408F93CA56DF4FCF
:104BF0008881C659D0408F93CB56DF4F8881C559E5
:104C0000D0408F93CE56DF4F8881C259D0408F93CA
:104C1000CF56DF4F8881C159D0408F93C057DF4FA7
:104C20008881C059D0408F93C157DF4F8881CF58BA
:104C3000D0408F93C257DF4F8881CE58D0408F939A
:104C4000C357DF4F8881CD58D0408F93B201052CD8
:104C5000000C880B990B42D29B01AC01CF54DF4F63
:104C6000688179818A819B81C15BD040BAD020E084
:104C700030E04AE754E43ED3FED19B01772324F48D
:104C800022273327261B370B3F932F935F924F9298
:104C9000CF55DF4F28813981C15AD040B901330F38
:104CA000880B990B1BD29B01AC01C355DF4F688168
:104CB00079818A819B81CD5AD04093D020E030E029
:104CC0004AE754E417D3D7D19B01772324F4222752
:104CD0003327261B370B3F932F93CE55DF4F388159
:104CE000C25AD0403F93CF55DF4F8881C15AD04040
:104CF0008F93CB55DF4FA881B981C55AD040BD01F4
:104D0000BB0F880B990BEAD19B01AC01C755DF4F54
:104D1000688179818A819B81C95AD04062D020E024
:104D200030E04AE754E4E6D2A6D19B01772324F48D
:104D300022273327261B370B3F932F93CA55DF4F6C
:104D4000B881C65AD040BF93CB55DF4FE881C55AD2
:104D5000D040EF93BF92AF929F928F922FE331E2B8
:104D60003F932F9304D4CDBFDEBFBE016F5F7F4F53
:104D700088E793E251DC892BC1F78981082E000C6A
:104D8000990B08D466E07DE080E090E03ADB00E03B
:104D900010E015C08981082E000C990BFBD30F5F22
:104DA0001F4F6CE171E080E090E02BDB91E080E050
:104DB0000035B1E01B070CF490E0C92ED82EBE01DF
:104DC0006F5F7F4F88E793E227DC892B19F388EC2C
:104DD00090E2E5D3C0DAEFEF8E1A9E0AAE0ABE0A61
:104DE00021CE5058BB27AA270ED03FC230D230F078
:104DF00035D220F031F49F3F11F41EF4EFC10EF4D0
:104E0000E095E7FBE5C1E92F41D280F3BA176207CD
:104E100073078407950718F071F49EF559C20EF4D4
:104E2000E0950B2EBA2FA02D0B01B90190010C01BA
:104E3000CA01A0011124FF27591B99F0593F50F4D2
:104E4000503E68F11A16F040A22F232F342F44272A
:104E5000585FF3CF469537952795A795F040539522
:104E6000C9F77EF41F16BA0B620B730B840BBAF0F2
:104E70009150A1F0FF0FBB1F661F771F881FC2F75D
:104E80000EC0BA0F621F731F841F48F48795779571
:104E90006795B795F7959E3F08F0B3CF9395880F28
:104EA00008F09927EE0F9795879508959F939F7720
:104EB000EEE389379E0720F4ECEFF1E0B7D109C0AB
:104EC00048D19058A2EA2AED3FE049EC5FE39BDF2E
:104ED000CCD10F9007FC90580895B9D158F080E8D4
:104EE00091E009F49EEFBAD128F040E851E059F47E
:104EF0005EEF09C073C1ECC1E92FE078C7D168F358
:104F0000092E052AC1F3261737074807590738F035
:104F10000E2E07F8E02569F0E025E0640AC0EF6393
:104F200007F8009407FADB01B9019D01DC01CA0111
:104F3000AD01EF9347D099D10AD05F91552331F05D
:104F40002BED3FE049E450FD49EC4CCF0895DF9351
:104F5000DD27B92FBF7740E85FE31616170648072D
:104F60005B0710F4D92FBFD19F938F937F936F93DB
:104F700066D2E0E1F2E035D178D12F913F914F91A7
:104F80005F91C4D1DD2349F09058A2EA2AED3FE0B9
:104F900049EC5FE3D0785D2736DFDF9166C1F4D05E
:104FA00008F481E008950CD060C158D140F04FD191
:104FB00030F021F45F3F19F00BC151118AC10EC1CD
:104FC00065D198F39923C9F35523B1F3951B550B7C
:104FD000BB27AA2762177307840738F09F5F5F4FCC
:104FE000220F331F441FAA1FA9F333D00E2E3AF00D
:104FF000E0E830D091505040E695001CCAF729D027
:10500000FE2F27D0660F771F881FBB1F2617370775
:105010004807AB07B0E809F0BB0B802DBF01FF27A5
:1050200093585F4F2AF09E3F510568F0D1C051C19F
:105030005F3FECF3983EDCF3869577956795B795DF
:10504000F7959F5FC9F7880F911D9695879597F9FA
:105050000895E1E0660F771F881FBB1F6217730773
:105060008407BA0720F0621B730B840BBA0BEE1F88
:1050700088F7E095089504D06894B1112AC1089585
:105080000DD188F09F5790F0B92F9927B751A0F014
:10509000D1F0660F771F881F991F1AF0BA95C9F7CC
:1050A00012C0B13081F014D1B1E0089511C1672F61
:1050B000782F8827B85F39F0B93FCCF3869577957C
:1050C0006795B395D9F73EF4909580957095619565
:1050D0007F4F8F4F9F4F0895E89409C097FB3EF490
:1050E00090958095709561957F4F8F4F9F4F992335
:1050F000A9F0F92F96E9BB279395F69587957795B3
:105100006795B795F111F8CFFAF4BB0F11F460FF72
:105110001BC06F5F7F4F8F4F9F4F16C0882311F0CA
:1051200096E911C0772321F09EE8872F762F05C0DE
:10513000662371F096E8862F70E060E02AF09A9579
:10514000660F771F881FDAF7880F9695879597F96E
:105150000895DF93CF931F930F938B01EC01EDE341
:10516000F2E03FD082D09801AE018B01EC0160E00B
:1051700070E080E89FE335DE24D19801AE010F9105
:105180001F91CF91DF91C2C0990F0008550FAA0B54
:10519000E0E8FEEF16161706E807F907C0F012164A
:1051A0001306E407F50798F0621B730B840B950B4D
:1051B00039F40A2661F0232B242B252B21F40895A2
:1051C0000A2609F4A140A6958FEF811D811D08953F
:1051D00097F99F6780E870E060E008959FEF80ECAA
:1051E0000895DF93CF931F930F93FF92EF92DF9277
:1051F0007B018C01689405C0DA2EEF0187D0FE0197
:10520000E894A5912591359145915591AEF3EF0123
:10521000FADDFE019701A801DA9479F7DF90EF90AB
:10522000FF900F911F91CF91DF9108959F938F93DE
:105230007F936F93FF93EF939B01AC015BD0EF9152
:10524000FF91CFDF2F913F914F915F9153C0002489
:105250000A941616170618060906089500240A94DB
:1052600012161306140605060895092E0394000C61
:1052700011F4882352F0BB0F40F4BF2B11F460FFF0
:1052800004C06F5F7F4F8F4F9F4F089557FD905819
:10529000440F551F59F05F3F71F04795880F97FBFA
:1052A000991F61F09F3F79F08795089512161306B4
:1052B0001406551FF2CF4695F1DF08C016161706E3
:1052C0001806991FF1CF8695710561050894089518
:1052D000E894BB2766277727CB0197F9089554DF19
:1052E00008F48FEF08959B01AC0160E070E080E866
:1052F0009FE359CE0BD0B9CFAADF28F0AFDF18F06B
:10530000952309F065CF6ACF1124E3CFBFDFA0F367
:10531000959FD1F3950F50E0551F629FF001729F4A
:10532000BB27F00DB11D639FAA27F00DB11DAA1F69
:10533000649F6627B00DA11D661F829F2227B00DB6
:10534000A11D621F739FB00DA11D621F839FA00D41
:10535000611D221F749F3327A00D611D231F849F91
:10536000600D211D822F762F6A2F11249F575040E8
:105370008AF0E1F088234AF0EE0FFF1FBB1F661F83
:10538000771F881F91505040A9F79E3F510570F03C
:105390001FCF9FCF5F3FECF3983EDCF38695779568
:1053A0006795B795F795E7959F5FC1F7FE2B880F37
:1053B000911D9695879597F9089511F40EF40ECFE7
:1053C00041C06CDFD0F39923D9F3CEF39F57550B2F
:1053D00087FF46D00024A0E640EA90018058569509
:1053E000979528F4805C660F771F881F20F026179A
:1053F0003707480730F4621B730B840B20293129CF
:105400004A2BA69517940794202531254A2758F74B
:10541000660F771F881F20F026173707480730F4DC
:10542000620B730B840B200D311D411DA09581F77C
:10543000B901842F9158880F9695879508959B01FF
:10544000AC0158CF9F3F31F0915020F4879577956C
:105450006795B795880F911D9695879597F908954B
:1054600091505040660F771F881FD2F70895AA1BEE
:10547000BB1B51E107C0AA1FBB1FA617B70710F03F
:10548000A61BB70B881F991F5A95A9F78095909571
:10549000BC01CD010895A1E21A2EAA1BBB1BFD0180
:1054A0000DC0AA1FBB1FEE1FFF1FA217B307E40703
:1054B000F50720F0A21BB30BE40BF50B661F771F5B
:1054C000881F991F1A9469F760957095809590953B
:1054D0009B01AC01BD01CF0108950F931F93CF93A2
:1054E000DF93009731F46115710519F480E090E0C5
:1054F00039C08B01EC016EE070E081E090E051D2A8
:10550000FC01892B99F380E883830115110571F063
:105510000287138781E883838091922C9091932C4A
:10552000892B21F4E093922CF093932C2097C9F0CF
:10553000C087D1878381826083838091942C9091EE
:10554000952C892B71F4E093942CF093952C8091F9
:10555000962C9091972C892B21F4E093962CF09324
:10556000972CCF01DF91CF911F910F910895A0E06B
:10557000B0E0ECEBFAE217C4AE014B5F5F4FFA010B
:1055800061917191AF018091942C9091952C37D0BD
:10559000E2E022C46091942C7091952C5AC30F9331
:1055A0001F93CF93DF93E091942CF091952C23815E
:1055B00021FF1BC08C01D0E0C0E0F80181918F0178
:1055C0006091942C7091952CDB011896ED91FC91D3
:1055D0001997882331F00995892B79F3DFEFCFEF05
:1055E000ECCF8AE00995892B19F08FEF9FEF02C06D
:1055F0008D2F9C2FDF91CF911F910F910895ABE0DC
:10560000B0E0E4E0FBE2BFC36C017B018A01FC0176
:1056100016821782838181FFBFC1CE0101963C01B2
:10562000F6019381F70193FD859193FF81917F01AD
:10563000882309F4ADC1853239F493FD859193FF38
:1056400081917F01853221F4B60190E002D3E8CF49
:10565000912C212C312CFFE1F315D8F08B3279F00D
:1056600038F4803279F08332A1F4232D20611DC0FB
:105670008D3261F0803369F4232D216016C0832DB3
:105680008260382EE32DE4603E2E2AC0F32DF860B0
:105690001DC037FC2DC020ED280F2A3040F08E327F
:1056A000B9F436FC75C1232D2064322E19C036FEA4
:1056B00006C08AE0989E200D1124922E11C0EAE0C7
:1056C0002E9E200D1124222EF32DF0623F2E08C0B5
:1056D0008C3621F4832D8068382E02C0883641F440
:1056E000F70193FD859193FF81917F018111B3CFE4
:1056F000982F9F7D9554933028F40C5F1F4F9FE3A4
:1057000099830DC0833631F0833771F0833509F00A
:1057100055C020C0F801808189830E5F1F4F882407
:105720008394912C530112C02801F2E04F0E511CBA
:10573000F801A080B18036FE03C0692D70E002C080
:105740006FEF7FEFC5017AD24C018201F32DFF7715
:105750003F2E15C0280122E0420E511CF801A08006
:10576000B18036FE03C0692D70E002C06FEF7FEF9D
:10577000C50152D24C01F32DF0683F2E820133FC5B
:1057800019C0822D90E088169906A0F4B60180E237
:1057900090E05FD22A94F5CFF50137FC859137FE72
:1057A00081915F01B60190E054D221102A9421E04A
:1057B000821A91088114910479F7E1C0843611F0BE
:1057C000893639F5F80137FE07C060817181828121
:1057D00093810C5F1F4F08C060817181072E000C00
:1057E000880B990B0E5F1F4FF32DFF763F2E97FF0F
:1057F00009C090958095709561957F4F8F4F9F4F11
:10580000F0683F2E2AE030E0A3015FD2882E861890
:1058100044C0853731F4232D2F7EB22E2AE030E0AC
:1058200025C0932D997FB92E8F36C1F018F4883595
:1058300079F0AEC0803719F0883721F0A9C0E92F80
:10584000E061BE2EB4FE0DC0FB2DF460BF2E09C07A
:1058500034FE0AC0292F2660B22E06C028E030E0B0
:1058600005C020E130E002C020E132E0F801B7FEDF
:1058700007C060817181828193810C5F1F4F06C0D8
:105880006081718180E090E00E5F1F4FA3011DD207
:10589000882E8618FB2DFF773F2E36FE0DC0232D58
:1058A0002E7FA22E891458F434FE0BC032FC09C09E
:1058B000832D8E7EA82E05C0B82CA32C03C0B82C37
:1058C00001C0B92CA4FE0FC0FE01E80DF11D8081BE
:1058D000803321F49A2D997EA92E09C0A2FE06C01C
:1058E000B394B39404C08A2D867809F0B394A3FCD2
:1058F00010C0A0FE06C0B21480F4280C922C9B1895
:105900000DC0B21458F4B60180E290E0A2D1B39475
:10591000F8CFB21418F42B1802C0982C212CA4FE36
:105920000FC0B60180E390E094D1A2FE16C0A1FCA6
:1059300003C088E790E002C088E590E0B6010CC0A3
:105940008A2D867851F0A1FE02C08BE201C080E270
:10595000A7FC8DE2B60190E07CD1891430F4B60149
:1059600080E390E076D19A94F8CF8A94F301E80D21
:10597000F11D8081B60190E06CD18110F6CF22201C
:1059800009F44ECEB60180E290E063D12A94F7CFBD
:10599000F6018681978102C08FEF9FEF2B96E2E19F
:1059A0000BC20F931F93CF93DF93869F8001879F36
:1059B000100D969F100D1124C8010DD0EC01009719
:1059C00021F0A80160E070E032D1CE01DF91CF91EB
:1059D0001F910F9108950F931F93CF93DF93823000
:1059E000910510F482E090E0E0919A2CF0919B2CCC
:1059F00020E030E0A0E0B0E0309719F14081518123
:105A00000281138148175907C8F08417950769F474
:105A1000109731F012960C93129713961C9327C08F
:105A200000939A2C10939B2C22C02115310519F05C
:105A30004217530718F49A01BD01EF01DF01F80185
:105A4000DBCF21153105F9F0281B390B2430310546
:105A500080F48A819B816115710521F0FB018283AD
:105A6000938304C080939A2C90939B2CFE013296D2
:105A700044C0FE01E20FF31F81939193225031093C
:105A8000288339833AC02091982C3091992C232B6C
:105A900041F420910220309103202093982C3093E0
:105AA000992C20910020309101202115310541F4DD
:105AB0002DB73EB74091042050910520241B350B93
:105AC000E091982CF091992CE217F307A0F42E1B8B
:105AD0003F0B2817390778F0AC014E5F5F4F241752
